:020000040800F2
:1000000000000520850D0008DD290008DF29000813
:10001000E1290008E3290008E529000800000000A4
:10002000000000000000000000000000C19800086F
:10003000E729000800000000519900081991000804
:10004000D50D0008D50D0008D50D0008D50D000808
:10005000D50D0008D50D0008E9290008D50D0008C8
:10006000D50D0008D50D0008D50D0008D50D0008E8
:10007000D50D0008D50D0008D50D0008D50D0008D8
:10008000D50D0008D50D0008D50D0008D50D0008C8
:10009000D50D0008D50D0008D50D0008D50D0008B8
:1000A000D50D0008D50D0008D50D0008D50D0008A8
:1000B000D50D0008D50D0008D50D0008D50D000898
:1000C000D50D0008D50D0008D50D0008D50D000888
:1000D000D50D0008D50D0008D50D0008D50D000878
:1000E000EF290008D50D0008D50D0008D50D000832
:1000F000D50D0008D50D0008D50D0008D50D000858
:10010000D50D0008D50D0008D50D0008D50D000847
:10011000D50D0008D50D0008F9290008D50D0008F7
:10012000D50D0008052A0008D50D0008D50D0008DA
:10013000D50D0008D50D0008D50D0008D50D000817
:10014000D50D0008D50D0008D50D0008D50D000807
:10015000D50D0008D50D0008D50D0008D50D0008F7
:10016000D50D0008D50D0008D50D0008D50D0008E7
:10017000D50D0008D50D0008D50D000800000000C1
:10018000D50D0008D50D0008D50D0008D50D0008C7
:10019000D50D0008D50D0008D50D0008D50D0008B7
:1001A000112A0008D50D00081D2A0008D50D0008E9
:0401B000292A0008F0
:1001C00010B5054C237833B9044B13B10448AFF391
:1001D00000800123237010BD4801002000000000B2
:1001E000B843020808B5034B1BB103490348AFF3FA
:1001F000008008BD000000004C010020B843020848
:1002000001F0FF01102A2BDB10F0070F08D010F8C7
:10021000013B013A8B422DD010F0070F42B3F6D1CB
:10022000F0B441EA012141EA014122F007047FF0E4
:1002300000070023F0E80256083C85EA010586EA3B
:10024000010685FA47F5A3FA87F586FA47F6A5FA77
:1002500087F68EB9EED1F0BC01F0FF0102F0070283
:1002600032B110F8013B013A83EA010313B1F8D12E
:100270000020704701387047002D06BF354603380F
:10028000073815F0010F07D1013015F4807F02BF48
:10029000013015F4C03F0130F0BC0138704700BF99
:1002A00081F0004102E000BF83F0004330B54FEA27
:1002B00041044FEA430594EA050F08BF90EA020F94
:1002C0001FBF54EA000C55EA020C7FEA645C7FEA27
:1002D000655C00F0E2804FEA5454D4EB5555B8BF4A
:1002E0006D420CDD2C4480EA020281EA030382EABB
:1002F000000083EA010180EA020281EA0303362D4D
:1003000088BF30BD11F0004F4FEA01314FF4801C1F
:100310004CEA113102D0404261EB410113F0004F31
:100320004FEA03334CEA133302D0524263EB4303E8
:1003300094EA050F00F0A780A4F10104D5F1200E86
:100340000DDB02FA0EFC22FA05F2801841F10001E1
:1003500003FA0EF2801843FA05F359410EE0A5F1B5
:1003600020050EF1200E012A03FA0EFC28BF4CF0E6
:10037000020C43FA05F3C01851EBE37101F000459C
:1003800007D54FF0000EDCF1000C7EEB00006EEBA9
:100390000101B1F5801F1BD3B1F5001F0CD3490833
:1003A0005FEA30004FEA3C0C04F101044FEA44528A
:1003B00012F5800F80F09A80BCF1004F08BF5FEA11
:1003C000500C50F1000041EB045141EA050130BDF1
:1003D0005FEA4C0C404141EB0101013C28BFB1F503
:1003E000801FE9D291F0000F04BF01460020B1FA4E
:1003F00081F308BF2033A3F10B03B3F120020CDA21
:100400000C3208DD02F1140CC2F10C0201FA0CF0FE
:1004100021FA02F10CE002F11402D8BFC2F1200C63
:1004200001FA02F120FA0CFCDCBF41EA0C01904019
:10043000E41AA2BF01EB0451294330BD6FEA040462
:100440001F3C1CDA0C340EDC04F11404C4F120024D
:1004500020FA04F001FA02F340EA030021FA04F35F
:1004600045EA030130BDC4F10C04C4F1200220FAB6
:1004700002F001FA04F340EA0300294630BD21FAF4
:1004800004F0294630BD94F0000F83F4801306BFBA
:1004900081F480110134013D4EE77FEA645C18BFAE
:1004A0007FEA655C29D094EA050F08BF90EA020F45
:1004B00005D054EA000C04BF1946104630BD91EA3D
:1004C000030F1EBF0021002030BD5FEA545C05D140
:1004D0004000494128BF41F0004130BD14F580047F
:1004E0003CBF01F5801130BD01F0004545F0FE41F3
:1004F00041F470014FF0000030BD7FEA645C1ABF28
:10050000194610467FEA655C1CBF0B46024650EA5E
:10051000013406BF52EA033591EA030F41F400218A
:1005200030BD00BF90F0000F04BF0021704730B510
:100530004FF4806404F132044FF000054FF00001E5
:1005400050E700BF90F0000F04BF0021704730B5A6
:100550004FF4806404F1320410F0004548BF40427B
:100560004FF000013EE700BF42004FEAE2014FEAD0
:1005700031014FEA02701FBF12F07F4393F07F4FAB
:1005800081F06051704732F07F4208BF704793F0AE
:100590007F4F04BF41F40021704730B54FF46074C1
:1005A00001F0004521F000411CE700BF50EA0102C4
:1005B00008BF704730B54FF000050AE050EA01026D
:1005C00008BF704730B511F0004502D5404261EBDD
:1005D00041014FF4806404F132045FEA915C3FF41E
:1005E000D8AE4FF003025FEADC0C18BF03325FEABB
:1005F000DC0C18BF033202EBDC02C2F1200300FA6C
:1006000003FC20FA02F001FA03FE40EA0E0021FA90
:1006100002F11444BDE600BF70B54FF0FF0C4CF47E
:10062000E06C1CEA11541DBF1CEA135594EA0C0F30
:1006300095EA0C0F00F0DEF82C4481EA030621EA6B
:100640004C5123EA4C5350EA013518BF52EA0335A6
:1006500041F4801143F4801338D0A0FB02CE4FF058
:100660000005E1FB02E506F00042E0FB03E54FF088
:100670000006E1FB03569CF0000F18BF4EF0010E80
:10068000A4F1FF04B6F5007F64F5407404D25FEA7C
:100690004E0E6D4146EB060642EAC62141EA55512F
:1006A0004FEAC52040EA5E504FEACE2EB4F1FD0C71
:1006B00088BFBCF5E06F1ED8BEF1004F08BF5FEAEF
:1006C000500E50F1000041EB045170BD06F00046A1
:1006D00046EA010140EA020081EA0301B4EB5C044E
:1006E000C2BFD4EB0C0541EA045170BD41F4801146
:1006F0004FF0000E013C00F3AB8014F1360FDEBF6B
:10070000002001F0004170BDC4F10004203C35DA46
:100710000C341BDC04F11404C4F1200500FA05F3C9
:1007200020FA04F001FA05F240EA020001F000426A
:1007300021F0004110EBD37021FA04F642EB0601E0
:100740005EEA430E08BF20EAD37070BDC4F10C040A
:10075000C4F1200500FA04F320FA05F001FA04F2CE
:1007600040EA020001F0004110EBD37041F10001BA
:100770005EEA430E08BF20EAD37070BDC4F12005C5
:1007800000FA05F24EEA020E20FA04F301FA05F22D
:1007900043EA020321FA04F001F0004121FA04F2D5
:1007A00020EA020000EBD3705EEA430E08BF20EAA5
:1007B000D37070BD94F0000F0FD101F000464000DF
:1007C00041EB010111F4801F08BF013CF7D041EA61
:1007D000060195F0000F18BF704703F00046520065
:1007E00043EB030313F4801F08BF013DF7D043EA36
:1007F0000603704794EA0C0F0CEA135518BF95EAEC
:100800000C0F0CD050EA410618BF52EA4306D1D172
:1008100081EA030101F000414FF0000070BD50EA91
:10082000410606BF1046194652EA430619D094EA1B
:100830000C0F02D150EA013613D195EA0C0F05D105
:1008400052EA03361CBF104619460AD181EA030159
:1008500001F0004141F0FE4141F470014FF0000011
:1008600070BD41F0FE4141F4780170BD70B54FF0AC
:10087000FF0C4CF4E06C1CEA11541DBF1CEA13552C
:1008800094EA0C0F95EA0C0F00F0A7F8A4EB05040E
:1008900081EA030E52EA03354FEA013100F0888005
:1008A0004FEA03334FF0805545EA131343EA1263CE
:1008B0004FEA022245EA111545EA10654FEA002683
:1008C0000EF000419D4208BF964244F1FD0404F53C
:1008D000407402D25B084FEA3202B61A65EB030598
:1008E0005B084FEA32024FF480104FF4002CB6EB55
:1008F000020E75EB030E22BFB61A754640EA0C00D5
:100900005B084FEA3202B6EB020E75EB030E22BF14
:10091000B61A754640EA5C005B084FEA3202B6EB55
:10092000020E75EB030E22BFB61A754640EA9C0014
:100930005B084FEA3202B6EB020E75EB030E22BFE4
:10094000B61A754640EADC0055EA060E18D04FEAA2
:10095000051545EA16754FEA06164FEAC30343EA42
:1009600052734FEAC2025FEA1C1CC0D111F4801F0F
:100970000BD141EA00014FF000004FF0004CB6E708
:1009800011F4801F04BF01430020B4F1FD0C88BFA7
:10099000BCF5E06F3FF6AFAEB5EB030C04BFB6EBB2
:1009A000020C5FEA500C50F1000041EB045170BDA5
:1009B0000EF0004E4EEA113114EB5C04C2BFD4EBD2
:1009C0000C0541EA045170BD41F480114FF0000E56
:1009D000013C90E645EA060E8DE60CEA135594EAD2
:1009E0000C0F08BF95EA0C0F3FF43BAF94EA0C0FD5
:1009F0000AD150EA01347FF434AF95EA0C0F7FF44A
:100A000025AF104619462CE795EA0C0F06D152EA9D
:100A100003353FF4FDAE1046194622E750EA410681
:100A200018BF52EA43067FF4C5AE50EA41047FF492
:100A30000DAF52EA43057FF4EBAE12E74FEA4102F5
:100A400012F5001215D211D56FF47873B3EB625220
:100A500012D94FEAC12343F0004343EA505311F047
:100A6000004F23FA02F018BF404270474FF00000D9
:100A7000704750EA013005D111F0004008BF6FF017
:100A8000004070474FF00000704700BF53B94AB9AB
:100A9000002908BF00281CBF4FF0FF314FF0FF3086
:100AA00000F06EB9ADF1080C6DE904CE00F006F867
:100AB000DDF804E0DDE9022304B070472DE9F047DA
:100AC000089D04468C46002B40F083808A421746DE
:100AD00047D9B2FA82F242B1C2F1200024FA00F002
:100AE0009140974040EA010C94404FEA1748230C8C
:100AF000BCFBF8F61FFA87FE08FB16C143EA014368
:100B000006FB0EF1994209D9FB1806F1FF3080F07F
:100B10001981994240F21681023E3B445B1AA4B20D
:100B2000B3FBF8F008FB103344EA034400FB0EFE6D
:100B3000A64509D93C1900F1FF3380F00581A6458F
:100B400040F2028102383C4440EA0640A4EB0E0425
:100B500000261DB1D4400023C5E900433146BDE85D
:100B6000F08702B9FFDEB2FA82F2002A50D1CB1B25
:100B70004FEA174E1FFA87F80126B3FBFEFC210C43
:100B80000EFB1C3341EA034108FB0CF38B4207D9EF
:100B900079180CF1FF3002D28B4200F2E9808446D2
:100BA000C91AA3B2B1FBFEF00EFB101143EA0144D7
:100BB00008FB00F8A04507D93C1900F1FF3302D229
:100BC000A04500F2D9801846A4EB080440EA0C4086
:100BD000BFE78B4209D9002D00F0B1800026C5E99E
:100BE000000130463146BDE8F087B3FA83F6002EA7
:100BF0004AD18B4202D3824200F2B880841A61EB60
:100C0000030101208C46002DA8D0C5E9004CA5E7C2
:100C1000C2F1200320FA03F6974001FA02F04FEAEE
:100C2000174ED9403043030CB1FBFEF61FFA87F88C
:100C30000EFB161143EA014306FB08F1994204FA40
:100C400002F409D9FB1806F1FF3C80F08D8099422F
:100C500040F28A80023E3B445B1A81B2B3FBFEF055
:100C60000EFB103341EA034100FB08F38B4207D926
:100C7000791800F1FF3C73D28B4271D902383944A4
:100C8000CB1A40EA064678E7C6F1200C03FA06F4D0
:100C900022FA0CF31C4320FA0CF701FA06F34FEA90
:100CA000144E21FA0CF11F433B0CB1FBFEF91FFA65
:100CB00084F80EFB191143EA014109FB08FA8A4541
:100CC00002FA06F200FA06F308D9611809F1FF30BA
:100CD00048D28A4546D9A9F102092144A1EB0A016B
:100CE000BFB2B1FBFEF00EFB101147EA014700FB5B
:100CF00008F8B84507D9E71900F1FF312ED2B845F9
:100D00002CD90238274440EA0940A7EB0807A0FB8A
:100D100002894F45C64649461AD317D05DB1B3EB99
:100D20000E0267EB010707FA0CFCF2404CEA0202E4
:100D3000F740C5E9002700263146BDE8F0872E467A
:100D400028460BE70646E9E61846FDE64345E5D2A8
:100D5000B8EB020E69EB04010138DFE70846D2E781
:100D600060468DE78146B9E7664675E730464AE753
:100D7000ACF1020C394413E702383C4424E700BFCD
:100D8000704700BFDFF834D0002103E00C4B5B5804
:100D9000435004310B480C4B42189A42F6D30B4A8D
:100DA00002E0002342F8043B094B9A42F9D304F0D5
:100DB000EBFE22F0D1FA01F02FF870470000052079
:100DC0004491020800000020480100204801002052
:100DD000D4DB0020FEE700F0EFBD00F05DBE002197
:100DE000084604F039BA002004F070BA4068704731
:100DF00041607047054A136843F080731360044AEA
:100E0000136843F001031360704700BFFCED00E07E
:100E1000001000E0511A01EB5301B1FBF3F07047F1
:100E2000014B1868704700BF041000E0704710B510
:100E30000C21044621F027FC204610BD036810B5A4
:100E40001B69044631B19847A26863689B1A18442D
:100E5000606010BD9847A060FBE7704770470000D6
:100E600008B5FFF7BCFF024B00221A6008BD00BFA7
:100E70006401002070B50D46FFF7B5FF0B4A93786B
:100E800056781178D370C4B213F001009670517087
:100E900014700AD016F0010007D011F0010004D040
:100EA000E3075ABF01202870002070BD64010020B4
:100EB00010B50421044621F0E6FB204610BD704722
:100EC00010B50421044621F0DEFB204610BD0000D1
:100ED00008B54FF4F0714FF4487004F0A1FD074BD2
:100EE00010B901221A7008BD1B78002BFBD1044BEE
:100EF000044A0548242122F0E5F900BF68010020DA
:100F00007C4402088F440208B94402087FB50B4BA9
:100F10001C780E4615465CB101A804F0BFFD9DF893
:100F2000043043B1BDF806303360BDF80A302B60A1
:100F3000204604B070BD1C46FAE700BF68010020DF
:100F400010B1012809D07047084B09481A68B2FA55
:100F500082F25209402105F031BF044B05485A681E
:100F6000B2FA82F252091021F5E700BF6C010020AD
:100F700000180240000C024010B1012809D070474F
:100F8000084B09481A68003A18BF0122402105F0B1
:100F900015BF044B05485A68003A18BF01221021BA
:100FA000F5E700BF6C01002000180240000C024071
:100FB00010B1012804D070470348402105F003BF59
:100FC00002481021FAE700BF00180240000C02405E
:100FD00008B530B1012809D00020431E58425841BD
:100FE00008BD0448402105F0E3FEF6E70248102161
:100FF000F9E700BF00180240000C024070B5084D30
:1010000000240126E0B2FFF7E3FF18B12B68012BA3
:1010100018BF2E600134052C05F10405F2D170BD16
:101020006C010020012380F8741080F8753070473F
:101030000020704700207047836B0BB108461847AB
:1010400070474FF6FF707047406803689B69184708
:1010500070477047014B1868704700BF7C01002043
:101060007047000038B50446094DFFF7C7FF20461A
:1010700000F094FD002384F84A302846FFF7BAFEBA
:10108000012384F86C30034B2561636138BD00BFD8
:1010900088010020840100200368044607B59B6F87
:1010A0009847236820461B6F984700F017FA23687B
:1010B00020469B6E9847002106480091292315225F
:1010C00005F065FC00F00AFA236820469B6E9847FD
:1010D000F8E700BF1CD9002010B504460BF0A0FEB5
:1010E00023682046D3F8A030BDE81040184700F030
:1010F00054BD00F06BBD00F06BBD00F03DBD00F0D5
:1011000043BD00F067BD0000024B00221A700BF0D7
:1011100079B800BF1400002010B504460BF07EF82B
:1011200094F84B3013B1024B01221A7010BD00BF6E
:10113000140000200BF02CB810B57C21044621F0DF
:10114000A2FA204610BD90F877301BB140680368C2
:101150001B6818471846704730B590F8341090F85F
:101160007440104B8C421A780DD05AB90E4A0F4970
:101170000F4814880F4D0C8001881180298004804D
:1011800001221A7030BD002AFCD00948074A0188A4
:101190001180054A074D14882C801180048000229C
:1011A000EFE700BF98D5002094D500209AD5002005
:1011B00096D500209CD5002010B50C4C216031B98B
:1011C0000B4B0C4A0C484FF4257122F07BF8C0E918
:1011D0000F12003A0949436418BF01220A70003B0C
:1011E000074A18BF0123137010BD00BF7C01002007
:1011F00018450208504502089E4502089ED5002069
:101200009FD50020012807B50AD84B7800930B78AA
:1012100008481522002105F0BAFB03B05DF804FB75
:1012200001910B5C0093392203460021014805F02F
:10123000BFFBF2E71CD9002037B50B4A0B4C022349
:101240001525137055700192442200920021392215
:10125000204605F0ADFB0021009135232A462046AB
:1012600005F095FB03B030BD940100201CD900208F
:1012700007B50190FFF7E0FF019803B05DF804EBBC
:1012800000F08ABC07B5074B03EB80002A230190CE
:101290000093392204230021034805F089FB03B0A1
:1012A0005DF804FB040000201CD9002070B5154D2A
:1012B00004460020FFF744FE2A6892F866300133A6
:1012C00082F8663000F0FEF80F4B28681A781B7819
:1012D00080F84A2023B10D4D2B7803F0FF0623B18F
:1012E000BDE870400020FFF747BE0BF099FD084BAA
:1012F00030461E60FFF7C6FF204605F038FB01238D
:101300002B7070BDA0D50020140000209601002095
:1013100080010020304B314A70B505461868304CCA
:10132000013018602F4B03281E682ADCD4F80414FF
:101330004FF4C87303FB006321F00801C4F80414E0
:1013400093620CBFE823C823023327491B0443F4EC
:10135000F1730B61254B4B61A3F5F0735360244B84
:10136000D36201234B62FFF78DFF1D4AD2F804348C
:1013700043F008032846C2F80434BDE8704005F085
:10138000F6BAD4F804341B4923F00803C4F8043433
:10139000154B9662196101F10111596116495160AD
:1013A0001349D16201225A620020FFF76BFFD4F883
:1013B000043443F00803C4F804340020FFF7DCFDD4
:1013C0000E4B00221A700E4B186820B10368BDE85E
:1013D0007040DB69184770BD8001002084680140BF
:1013E000006C01407C01002000680140E301CA005C
:1013F00093018006E201CA000300CA0096010020A2
:10140000A0D5002008B5044B0146186801B10121A0
:101410000BF020FD012008BDA0D50020054B06489B
:1014200000225A609A60054A1A60054B0360FFF774
:1014300017BD00BF8801002084010020404402083D
:1014400068440208012108B50022084607F059FF48
:101450000A4B186028B90A4B0A4A27210A4821F08A
:1014600031FF00220421012007F0EAFF074B18603A
:1014700018B9074B034A2B21F0E708BD9C01002057
:10148000B0460208F94602082847020898010020E1
:101490006F470208024B4FF0FF31186807F07CBF1E
:1014A0009C010020014B186807F0A2BF9C0100209E
:1014B000024B0021186807F06FBF00BF9C0100209D
:1014C000FFF7F0BF03480449006800231A4607F0FD
:1014D000F3BF00BF980100201800002013B5084C8E
:1014E00000231A4601A9206808F016F820684FF07A
:1014F000FF33002201A908F00FF802B010BD00BFB1
:101500009801002007F08CBE03685B6C184701202F
:10151000704703689B6A184782B0002301930D4B04
:101520001A6B42F400021A631A6B02F40002019271
:10153000019A1A6942F400021A611A6922F400023F
:101540001A61054B054A1A61054B4FF080629A609B
:1015500002B07047003802402CDA00206D150008F8
:1015600000E100E040F2EF3070470000024B1B68E2
:10157000586803685B691847A0D5002008B50B2898
:101580000BD8DFE800F01206100A0A0A0A08080859
:101590000808012008BD0520FCE7054B054A064860
:1015A000652121F08FFE0020F4E70220F2E700BF62
:1015B000B1470208CC4702081848020808B50A28B3
:1015C00009D8DFE800F010060E080808080606062D
:1015D0000600012008BD054B054A0648862121F07A
:1015E00071FE0020F6E70220F4E700BFB1470208D1
:1015F0005D480208184802082DE9F84391F81D805B
:101600000C464046FFF7BAFFA77F05463846FFF76E
:10161000B5FF06463846FFF7D1FFA18A628B534BD0
:10162000521A1A649A61228B521A1A61E28A58631A
:1016300042EA01425A6421696268D963DA60D4F8E7
:1016400000C094F81C90BCF1800F4FEA09629E46DE
:101650003BD015D8BCF1200F45EA020079D0BCF18F
:10166000400F76D0BCF1040F2BD0404B2A4342F4FC
:101670000032B845DA6114BF3D4A40F201221EE053
:10168000BCF5807F07D0BCF5007FEED142F400327C
:1016900042F0090203E042F4003242F00A02DA6149
:1016A000E0680202440102F4780204F47C44C000C1
:1016B0002243C0B202431A622E4A5E6259611A6026
:1016C00043E040F40030D861F6E7A0682A4342F4D2
:1016D0000032041DDC62DA6102785E62596142B157
:1016E000012A1CD0244B254A25484FF4887121F04B
:1016F000E9FD4288D969501E21F47F4222F0100290
:1017000042EA0022DA610125184CE36943F0200324
:10171000E361E3699B0613D5FFF7F4FEF9E742881E
:10172000D969501E21F47F4222F0100242EA0022C1
:10173000B9F1FF0542F0100218BF0125DA61E3E7B5
:101740001023A3601DB10B4B2360BDE8F883084B49
:10175000FAE7084B40F40030CEF81C00CEF82460C5
:10176000CEF81410CEF80030EFE700BF00B0024012
:101770000102010001020200AA480208C44802084E
:1017800018480208F8B58E7F0C463046FFF716FF62
:10179000A78AE18A628B1E4B2569586341EA07419B
:1017A000D21B5964DD631A642168082918D19A6133
:1017B0001A615862217F174A42EA0162DA61E168E0
:1017C0000A02480102F4780200F47C40C900024396
:1017D000C9B20A431A62104A5D61DD601A60F8BD41
:1017E0000022D8611A61E1681EB99963084B0B4A5F
:1017F000F4E70A02480102F4780200F47C40C900D0
:10180000C9B202430A43217F42EA01629A63EDE7CB
:1018100000B00240090001000102020001020300C1
:10182000054B0360054B4FF08062C3F88820BFF37F
:101830004F8FBFF36F8F70470C49020800E100E043
:1018400010B50446FFF7ECFF20464FF4426120F04C
:101850001AFF204610BD000070B5044625460A4B0D
:101860000C30002660602672667245F8203B6022CC
:1018700029460BF027FC04F54263EE602035AB42AD
:10188000FBD1204670BD00BF0C4902080120704703
:101890000C2070470C2303FB0100083070470C2319
:1018A00003FB0100083070470120704743F24450A9
:1018B000704743F2445303FB01000830704743F282
:1018C000445303FB0100083070470120704710208B
:1018D000704700EB01100830704700EB0110083032
:1018E0007047084602F088B910B5034B0360044600
:1018F00009F0A6FE204610BDC449020810B50446F2
:10190000FFF7F2FF2046142120F0BDFE204610BD57
:1019100010B5034B0360044609F092FE204610BD4B
:101920009049020810B50446FFF7F2FF204643F243
:101930004C5120F0A8FE204610BD000010B5034B0E
:101940000360044609F07CFE204610BD5C49020895
:1019500010B50446FFF7F2FF2046182120F093FE51
:10196000204610BD10B5094B0360044600F55550E4
:101970003830FFF7B9FF04F12C00FFF7C9FF04F17D
:101980001400FFF7DBFF204610BD00BFF849020836
:1019900008B50248FFF7E6FF08BD00BFA40100201C
:1019A00010B50446FFF7DEFF204643F2E86120F061
:1019B0006AFE204610BD00002DE9F34101F0B0F8A9
:1019C000054601F0B1F80024014623462846224688
:1019D000009412F075FC244B244A254D1A602046D1
:1019E00002F08AFC234812F0ADFB2B78BFF35B8F2B
:1019F000DB0733D4284620F048FE78B31E4C1F4F37
:101A00001F4B236007F1180604F1140004F12C08A1
:101A10006060C4F80880E760266109F013FE194B86
:101A20006361404609F00EFE174BE362384609F049
:101A300009FE164B3B6007F1140002F0A1FF22469D
:101A400007F11401304602F091FF304602F0D4F85D
:101A5000284620F026FE0E4821F052FC0D4802B028
:101A6000BDE8F041FFF7FEBA1CD600202C4500204F
:101A7000A00100201C000020A40100201C37002031
:101A8000F84902085C49020890490208C449020862
:101A900091190008B04400200148FFF7FDBA00BFCB
:101AA000B044002070B5244C244E254B254D2360B6
:101AB0003046FFF7D1FE284615F086FC224B002267
:101AC0004FF48071C3E912122049DC60C3E9191296
:101AD0004FF080715967012183F878101C491D4C23
:101AE0000B601D491A854FF4507008804FF4F07157
:101AF000C3E90422C3E90622C3E90822C3E90E228E
:101B0000C3E91022C3E91422C3E9162283F82A206C
:101B1000DA621A861A6683F86C201A67C3E90165CF
:101B200021800E4C83F8342022700D4C0D4A208009
:101B30000D481A60018070BD8C380020903800205C
:101B40000845020830450020B04400200100000193
:101B5000A0D5002096D5002094D5002098D500204F
:101B60009AD50020EC4502089CD500200148FFF7DB
:101B700057BE00BF90380020024B902283F85A23B2
:101B8000704700BF00E100E0024B4FF080629A60B6
:101B9000704700BF00E100E07047704738B5044669
:101BA0000AF049FB2368DD6D0FF022FA014620465A
:101BB000A8472368D3F8805000231A464FF04041CD
:101BC0002046A847012384F84A3038BD0AF0E6BA17
:101BD0000AF03FBC044B4FF08062C3F88820BFF38B
:101BE0004F8FBFF36F8F704700E100E00149002085
:101BF00008F0D2BF051400084C4B2DE9F74F1868C8
:101C00004B4E4FF47A7107F065FB4A4B1A889B786C
:101C10008DF802300523ADF8002001930125002442
:101C20004548DFF81CB1DFF81CA1DFF81C91DFF894
:101C30001C81424F0322694607F09EF99DF800304F
:101C4000622B31D0733BDAB2042A34D8042B32D859
:101C5000DFE803F0030A121A2200002330681A4654
:101C60000DF1010108F00CF90023DBF800001A4621
:101C70000DF1010108F004F90023DAF800001A461A
:101C80000DF1010108F0FCF80023D9F800001A4614
:101C90000DF1010108F0F4F80023D8F800001A460D
:101CA0000DF1010108F0ECF8002338681A460DF137
:101CB000010108F0E5F872238DF8003000231A4680
:101CC00001A9306808F0DCF800231A4601A9DBF806
:101CD000000008F0D5F800231A4601A9DAF8000040
:101CE00008F0CEF800231A4601A9D9F8000008F040
:101CF000C7F800231A4601A9D8F8000008F0C0F878
:101D0000013400233868A4B21A4601A908F0B8F8D3
:101D1000642C07D9019B2B440193013B762B88BF90
:101D20006D420024012007F08DFA79E7E4D9002004
:101D3000C8460020044A0208E8D90020BC4600201A
:101D4000CC460020D0460020D4460020D8460020B3
:101D500010B50648082105F036F805480549006821
:101D60000023BDE810401A4608F08AB80028024057
:101D7000C4460020A845002030B595B010220021AF
:101D800009A821F02BFB1422002102A821F026FB38
:101D900000241F4B00941A6C42F080521A641B6C92
:101DA00003F080530093009B1A4B01941A6842F48D
:101DB00040421A601B6803F4404301930122019BD7
:101DC0004FF48033CDE9072302254FF48003082127
:101DD000CDE90D534FF4B473CDE90F13042006235E
:101DE000CDE9120307A8119506F0B6FB05F0F6FD44
:101DF0000F23CDE9023504944FF480534FF4A054DF
:101E0000052102A8CDE9054306F06AF915B030BDF9
:101E100000380240007000402DE98048BBB000242B
:101E2000C74D03F0BFFEFFF7A7FF142200212DA826
:101E300021F0D4FA03942B6BC24843F040032B6388
:101E40002B6B03F040030393039B04942B6B43F031
:101E500010032B632B6B03F010030493049B059476
:101E60002B6B43F002032B632B6B03F002030593F0
:101E7000059B06942B6B43F008032B632B6B03F03D
:101E800008030693069B07942B6B43F480732B6324
:101E90002B6B03F480730793079B08942B6B43F021
:101EA00020032B632B6B03F020030893089B0994FA
:101EB0002B6B43F480632B632B6B03F480630993D8
:101EC000099B0A942B6B43F080032B632B6B03F06D
:101ED00080030A930A9B0B942B6B43F004032B6340
:101EE0002B6B03F004030B930B9B0C942B6B43F0B5
:101EF00001032B632B6B03F001030C930C9B0D94DC
:101F00002B6B43F400732B632B6B03F400730122E0
:101F100008210D930D9B04F051FF8B4822461021A0
:101F200004F04CFF89482246402104F047FF224636
:101F30008748802104F042FF4FF002094FF4005B14
:101F40004FF488178148CDF8BC902DA9CDE92DB765
:101F5000112604F0A5FD08237A482DA94FF00108A9
:101F6000CDE92D364FF0100ACDE92F4404F098FD4D
:101F700075482DA9CDE92DA8CDE92F4904F090FD94
:101F8000402372482DA9CDE92D38CDE92F4904F021
:101F900087FD70482F942DA9CDE92D8704F080FD91
:101FA000802703236A4830932DA9CDE92D762F94FD
:101FB00004F076FD22460521062003F045FE0620AA
:101FC00003F074FE05212246282003F03DFE282060
:101FD00003F06CFE6048614B614E036003F088FEC5
:101FE000604AC6E90A44C6E90C443046C6E9002402
:101FF000C6E9024404F088F84146304604F03CF952
:1020000039462246524804F0D9FE142003F0F6FD6A
:10201000394642464E4804F0D1FE0A2003F0EEFD58
:102020002422214617A821F0D9F91822214611A807
:1020300021F0D4F9342221462DA821F0CFF92C2209
:1020400021460DEB070021F0C9F9474F474B10948B
:102050000426C7E900340EA97D233846C7E9026883
:10206000CDE90E3904F0D0F917A93846CDE9178427
:10207000CDE91944CDE91B44CDE91D441F9404F07A
:10208000EDFB1C222123CDE911230F211923CDE9DA
:102090001313384611A9CDE9154404F0A2FB3146CB
:1020A000384604F08DFB42F21071384604F0E1FC32
:1020B0002146384604F045F94FF480704FF4007320
:1020C0004FF4806CCDE92D034FF400634FF4804E44
:1020D000CDE92FC34FF480524FF48033CDE933E381
:1020E000CDE9312B4FF480234FF4003B4FF4002215
:1020F000CDE935B32DA94FF080733846CDE93723AC
:10210000CDF8E49004F028FBC82320A93846CDE997
:10211000223ACDE92446CDE92044CDE92694CDE903
:102120002844CDF8A88004F0A5FA2146384604F0EA
:1021300090FA0F480F490462C0E9001440231BE0E5
:102140000038024000280240000C02400018024003
:10215000001C02400000024014D900200030024060
:102160002CDA002000B002401CD90020006C014095
:102170006CDA0020400100A02021C0E904134FF4D4
:10218000C0714FF48052C0E906144FF48043072118
:10219000C0E90923CDE92E16032330912DA9CDE9FD
:1021A0003139C0E90246CDF8B490CDF8CC9006F0B4
:1021B00089FB03F01FFC03F0CFFB3422214620A84B
:1021C00021F00CF9684E694AB486C6E90024CA2198
:1021D0004FF4F172C6E90912CB2040F2E312C6E9CE
:1021E0000B023046C6E90244C6E90448C6E906893E
:1021F000C6F8209086F8364005F0BAFAFF21CDE9FE
:1022000025144FF0050B4FF48061C8234FF4F07292
:10221000CDE9271B4FF04041CDE92913CDE9232912
:1022200020A92B9230462246CDE921342094ADF8E6
:10223000B0408DF8B24005F067FB3268936923F037
:1022400001039361384604F06FFB4146484602F0B3
:1022500045FD2823152221463846009404F097FBBB
:102260002DA93846CDE92D44CDE92F44CDE931449F
:10227000CDE93344CDE93544379404F06DFA4FF499
:1022800048712246304605F06DFB32683848936944
:10229000384F43EA08039361374B0462C0E90038C2
:1022A0001B264FF48063C0E90463C0E9028A334E01
:1022B000C0E9064405F0AAFC03F014FA03F048F95B
:1022C00003F0BEF82E4B3462C6E9007330464FF47B
:1022D0008043C6E90434C6E90244C6E9064404F072
:1022E00063FF304605F008F82D942B6B43F4800310
:1022F0002B632B6B03F48003224659462D93392020
:102300002D9B03F0A1FC392003F0D0FCDFF89CC02A
:102310001C484FF4E133C0E900C30C23C0E9053485
:10232000C0E902440461C46106F024FDFEF753FDD8
:1023300006F000FF144B15482246414606F08EFF7A
:10234000134B144A18602146134806F01FFF134B25
:10235000134A18602146134806F018FF124B186004
:1023600006F0FAFEFEE700BF38D900200068014001
:10237000A0DA002000540040001000A0C0D80020C7
:10238000801A0600E8D90020744A0208511D00088E
:10239000E4D90020504A0208F91B00085CD800204C
:1023A0002C4A0208DB0D0008E0D90020001401408F
:1023B000012810B502D0B0F5005F0CD10648082105
:1023C00004F001FD0548064900680023BDE81040FF
:1023D0001A4607F007BE10BD00280240C046002084
:1023E000A84500200268034B9A4201D103F0F4BBD8
:1023F000704700BF001000407047000082B00E4BD5
:1024000000220092596C41F480415964596C01F4E6
:102410008041009100990192196C41F0805119643A
:102420001B6C03F080530193019B0F216FF001009F
:1024300002B003F009BC00BF003802400268094B3B
:102440009A4282B00BD100230193074B1A6B42F4DE
:1024500080521A631B6B03F480530193019B02B0FB
:10246000704700BF003002400038024007B50F4BF4
:1024700002689A4216D10022A3F5F0430192196B2B
:1024800041F4000119631B6B03F400030193052160
:102490005A20019B03F0D8FB5A2003B05DF804EBEF
:1024A00003F004BC03B05DF804FB00BF00B00240C1
:1024B00010B5044688B01422002103A820F08EFF36
:1024C0002268184B9A422AD103F54C430024019408
:1024D0005A6C154842F000625A645A6C02F000626D
:1024E0000192019A02941A6B42F400721A631B6BF8
:1024F00003F4007302930422029B0223CDE9032319
:1025000003A90D230793CDE9054404F0C9FA5C2023
:102510002246052103F098FB5C2003F0C7FB08B0BE
:1025200010BD00BF006C01400024024030B50446DD
:1025300089B01422002103A820F050FF22681A4B12
:102540009A422FD1194C1A4800250195236B43F06C
:1025500002032363236B03F002030193019B4FF4F7
:1025600040721223CDE9032301210323CDE9051392
:10257000042303A9079304F093FA0295236C43F410
:1025800000132364236C03F400130293029B236A59
:1025900043F400132362236A23F4001323626420AC
:1025A00003F02CFB09B030BD00540040003802405D
:1025B0000004024008B502680A4B9A4210D10A4A48
:1025C0000A48136C23F4001313644FF4807104F071
:1025D0004DFBBDE8084005484FF4007104F046BBD0
:1025E00008BD00BF00540040003802400004024013
:1025F00010B5044690B03C22002101A820F0EEFE68
:102600002268134B9A4221D1082301934FF4B473EB
:1026100005930024062301A808930B9405F03AFEC5
:1026200008B1FFF7E9FE0B4B00945A6C42F0806250
:102630005A645B6C03F080630093582000220521EC
:10264000009B03F001FB582003F030FB10B010BDDD
:102650000068014000380240F0B5044689B01422F9
:10266000002103A820F0BAFE2268244B9A4243D1ED
:10267000234B2448002400949A6B42F002029A6390
:102680009A6B02F002020092009A01941A6B42F0D7
:1026900002021A631A6B02F002020192019A02947A
:1026A0001A6B42F020021A631B6B059403F020039F
:1026B000029302260325029B0A27402303A9CDE9A2
:1026C0000336CDE9065704F0EBF94FF49863CDE9F2
:1026D00003360D48092303A90793CDE9054504F006
:1026E000DFF94FF440730848079703A9CDE9033693
:1026F000CDE9054504F0D4F909B0F0BD001000A003
:1027000000380240000402400014024008B502688C
:10271000094B9A420FD1094A0948936B23F00203EF
:102720009363402104F0A2FABDE8084005484FF445
:10273000F86104F09BBA08BD001000A00038024008
:10274000000402400014024070B5064688B014220E
:10275000002103A820F042FE3268214B9A423CD16E
:10276000002503F5923301955A6C1E481E4C42F029
:1027700020025A645A6C02F020020192019A0295DA
:102780001A6B42F040021A631B6B059503F040037D
:102790000293029B4FF484420223CDE903230321D9
:1027A0000823CDE9061303A904F07AF90F484FF086
:1027B0002063C4E900034FF480632046C4E9025556
:1027C000C4E90435C4E90655C4E9085503F0B6FA6E
:1027D00008B1FFF711FEB463A66308B070BD00BF77
:1027E000001401400018024060D800202864024014
:1027F000F0B5314B1C6887B0002C5BD101221A6008
:102800002E4B00949A6B2E4842F001029A639B6B08
:10281000039403F001030093022703260C25009B79
:1028200001A94FF68373CDE90137CDE9046504F0C2
:1028300037F948F233132348059501A9CDE901374B
:10284000CDE9034604F02CF94CF203731E480595BC
:1028500001A9CDE90137CDE9034604F021F940F2A1
:10286000FF631A48059501A9CDE90137CDE9034673
:1028700004F016F94FF63F031548059501A9CDE977
:102880000137CDE9034604F00BF94FF47F431148BB
:10289000059501A9CDE90137CDE9034604F000F91A
:1028A0000D230D48059501A9CDE90137CDE9034672
:1028B00004F0F6F807B0F0BDB04500200038024043
:1028C0000010024000180240000C024000200240AC
:1028D00000140240001C02400008024008B5174BDB
:1028E0001A6852BB01221A60154A1648936B23F0EE
:1028F000010393634FF6837104F0B8F9124848F26C
:10290000331104F0B3F911484CF2037104F0AEF93D
:102910000F4840F2FF6104F0A9F90E484FF63F015D
:1029200004F0A4F90C484FF47F4104F09FF9BDE88E
:1029300008400A480D2104F099B908BDAC450020B3
:10294000003802400010024000180240000C024013
:102950000020024000140240001C02400008024017
:1029600030B5014689B00022362003F06DF93620DB
:1029700003F09CF90025154B02951A6C144C42F09B
:1029800010021A641B6C03F01003029301A903A840
:10299000029B05F061FC05F03FFC0E4B236040F20A
:1029A000E733E36040000C4BB0FBF3F001386060AC
:1029B00020462561A56006F023F920B9204605F0E0
:1029C000D9FF09B030BD0120FBE700BF003802404D
:1029D000ECDA00200010004040420F007047FEE794
:1029E000FEE7FEE7FEE77047012004F0F5B94FF47B
:1029F000005004F0F1B90000014805F0F9BF00BF34
:102A0000ECDA0020014803F0C1BA00BF60D8002012
:102A1000014804F01CBF00BF38D90020014803F072
:102A2000A1BB00BF2CDA0020014803F0A0BD00BF0D
:102A30001CD900200120704708B520F075FC162332
:102A400003604FF0FF3008BD08B520F06DFC162381
:102A50000360FEE770B50E4614460025A54201DB73
:102A6000204670BDAFF3008070550135F6E770B5B4
:102A70000E4614460025A54201DB204670BD705D60
:102A8000AFF300800135F6E74FF0FF3070474FF4A9
:102A900000534B60002070470120704700207047B2
:102AA00008B50A4B1968024609B90949196018683E
:102AB000694602448A4206D920F036FC0C230360A2
:102AC0004FF0FF3008BD1A60FCE700BFB44500209E
:102AD000D8DB0020704710B5042104461FF0D3FD59
:102AE000204610BD08B5042918D8DFE801F0030717
:102AF0000B0F130001F04CFC006808BD01F048FC0E
:102B00004068FAE701F044FC8068F6E701F040FC19
:102B1000C068F2E701F03CFC0069EEE70020ECE75A
:102B200000487047984A02080820704713B50024EF
:102B300051B1036801948DF8034001AA9C680DF11E
:102B40000303A04702B010BD0846FBE74089704769
:102B5000808970478088704783798088184480B264
:102B60007047C07900F07F007047C079C009704796
:102B70000020704781807047C18070470181704795
:102B8000418170477047704770477047704710B475
:102B9000C4880368121B84881B6D091B12B25DF880
:102BA000044B09B218474FF6FF7383814FF0FF3390
:102BB00003621368C36110607047704770477047C5
:102BC0007047704790F825201AB190F8242002B180
:102BD000186070477047704770477047704770477C
:102BE00030B4C26844685510034604EB6200D20753
:102BF00048BF62599B6830BC48BFD35818474368E8
:102C00002BB183682BB9C06800F0010070471846EB
:102C100070470120704710B5082104461FF033FDAE
:102C2000204610BD10B5102104461FF02CFD204693
:102C300010BD10B543F2B04104461FF024FD2046FC
:102C400010BD08B529B90EF0D3F9BDE8084000F071
:102C5000E3BF08BD00F53572914210B505D10EF005
:102C6000C7F9BDE8104000F0D7BF00F547729142A8
:102C700004D103681B6BBDE81040184700F559727A
:102C8000914202D10368DB6AF5E710BD70B50368B5
:102C90000446DB6A154698472368294620461B6B85
:102CA000BDE87040184770B504461D46BDF9106078
:102CB000FFF7ECFF2368294620465B6B98472368A3
:102CC000314620469B6BBDE870401847094A0260B8
:102CD0004FF4807100228184FF21C0E90122C0E904
:102CE0000322C0E90522C0E9072280F8261082628B
:102CF000704700BFC06D020870B5FF22134E02720C
:102D0000134A0260326892F876100023C0E9033358
:102D10000446436009B1D06C00B9906803685B6AEF
:102D200098473368B0FA80F5D86C6D0928B103680C
:102D30005B6A9847002808BF01252DB9054B064A54
:102D400006482C2120F0BEFA204670BDA0D50020F8
:102D5000C4690208384B0208964B0208CF4B0208A0
:102D60004FF4807181840B4901600B4981624FF6F9
:102D7000FF71002281854FF47F01C0E90122C0E983
:102D80000322C0E90522C0E90722026341630287EA
:102D9000704700BF186D0208484D020873B5018FD7
:102DA0004FF6FF739942064633D01C4B1B682BB974
:102DB0001B4B1C4AAE211C4820F084FA1B4A128887
:102DC0008A4203D81A4B174AAF21F4E713F81120AF
:102DD000184B1B6853F82250174B186801F0C8FABB
:102DE0002B68019001469B6A284698472B680199F9
:102DF0001B6C0446284698472B6801995B6A14FBB4
:102E000000F428469847E4B2044486F8454002B0EE
:102E100070BD002380F84530F9E700BF10D60020D0
:102E2000314C0208734C0208A14C020814D6002051
:102E3000E84C020818D600201CD600202DE9F04FDF
:102E40002DED0A8B044689B00FF0A4FC2246002524
:102E50008E4BE56342F8403B104608EE102AFFF720
:102E600035FF04F16C0304F1980618460BEE103A96
:102E700004F50E78FFF72AFF30460BF0DFFD4046E1
:102E8000FFF73AFFDFF83492C4F8389204F5147370
:102E90001846C4F84C5208EE903AFFF761FF7C4B9D
:102EA000C4F8503204F524731846C4F88C5209EE65
:102EB000103AFFF755FF774BC4F8903204F535739D
:102EC0001846C4E9B35509EE903A0CF029FB04F515
:102ED000477318460AEE103A0CF022FB04F55973BA
:102EE000184604F56B770AEE903A0CF019FB384659
:102EF00008F084FD04F59C63184604F59F6A0CEE07
:102F0000103AFFF7F9FEC4F8E094C4F8F4545046C0
:102F10000BF02CF904F26C5318460BEE903AFFF7C5
:102F2000EBFE5D4BC4F8C0355C4BC4F86C95C4F83F
:102F3000C8354FF4F07942F6E06104F5BA60C4F8A0
:102F40008055C4F8C445C4F8CC550CF017FB18EEF6
:102F5000100ACDF800904FF448732A462946FFF72F
:102F6000A2FE4FF07F432A461BEE100AA366CDF85F
:102F700000904FF448732946FFF795FE484BC4F87C
:102F8000943006A930464FF49679ADF8185008F001
:102F9000BEFE0522294630460BF088FD4FF416731D
:102FA000B42264213046CDF80090FFF77CFE4A46FB
:102FB000494630460BF0F9FD5A226FF05901304670
:102FC0000BF078FE2B46782229463046009508F013
:102FD000DDFD612130460BF017FE3249304608F026
:102FE00060FD032240F21313062130460BF0C8FDAA
:102FF000012130460BF05FFD012130460BF05EFDF4
:10300000012130460BF05DFD274BC4F84C323046B1
:103010000BF05AFD03684146DB6DDFF8A48098474A
:1030200030460BF051FD4FF4FA53836330460BF0FA
:103030004BFD4FF4C863436430460BF045FDB421AB
:103040000AF010FB18EE900A4FF4B37240F23111FF
:10305000FFF71CFE4FF07F43C4F88032D8F80030F1
:10306000A4F8845204F2845B2BB9104B104AAE21B1
:10307000104820F027F9DFF84C90B9F80030072B02
:1030800022D80D4B0A4AAF21F2E700BF704D02086B
:103090001870020890700208584D0208552C00085C
:1030A000646464FFF92A0108C59714FF314C0208D3
:1030B000734C0208A14C0208E84C0208546802084C
:1030C00010D6002014D60020AE4B0721186801F05E
:1030D0004FF9AD4A03460A21584611F025F818EE7B
:1030E000900AC4F88CB20BF01FFCA84A069218EEA6
:1030F000900A06A9ADF81C500BF033FC4FF4C871D0
:1031000019EE100A1322FFF7C1FDD8F80030A4F819
:10311000C4524FF07F41C4F8C01204F5B36B002BCA
:10312000A3D0B9F80030052BABD9964B0521186810
:1031300001F01EF9944A03460A21584610F0F4FFA4
:10314000D8F80030C4F8CCB204F2AC5B002B8CD0C1
:10315000B9F80030062B94D98A4B0621186801F083
:1031600007F9894A03460A21584610F0DDFF19EE97
:10317000100AC4F8D0B20BF0D7FB4FF00408834A12
:10318000069219EE100A06A9ADF81C800BF0E9FBB7
:1031900019EE900A2A462946FFF778FD4FF0010BF9
:1031A000032306AA05A919EE900AADF81430ADF86C
:1031B00018800BF0A4FD19EE900AA4F80CB3FFF7E9
:1031C000EDFD4FF0FF3804F5B863C4F8FC32C4E9F4
:1031D000C4881AEE100A02224FF4397103934FF09B
:1031E0000209FFF753FD06AA05A91AEE100AADF869
:1031F00014B0ADF818900BF082FD1AEE100AA4F886
:103200005493FFF7CBFD039BC4F84433C4E9D6883D
:103210001AEE900A44224FF43971FFF737FD06AADF
:1032200005A91AEE900AADF814B0ADF818900BF09D
:1032300066FD03231AEE900AA4F89C33FFF7AEFD57
:10324000039BC4F88C33C4E9E888C222282138469D
:1032500040F21D18FFF71AFD32232A462946384648
:10326000CDF8008008F0B0FB64222B462946384692
:10327000009508F08BFC072306A93846ADF81830F6
:1032800008F045FD424BC4F8F4341CEE101A3846E1
:1032900008F032FB42461921384608F030FB2A4636
:1032A0001921384608F00DFB3221384608F030FB72
:1032B0002946384608F037FB6421384608F049FBB8
:1032C0003E234FF4A07200934FF414712E23504606
:1032D000FFF7E9FC2F4BC4F880351BEE901A5046DF
:1032E0000AF08FFD2A464FF43E6150460BF070F80D
:1032F0004FF4D462294650460BF075F8D4F83835AF
:10330000A02B05D0A023C4F8383550460AF052FF50
:10331000251D504602210BF096F818EE101A28468B
:1033200008F0F6FD1BEE101A284608F0F1FD3146B4
:10333000284608F0EDFD18EE901A284608F0E8FD42
:1033400019EE101A284608F0E3FD19EE901A2846E7
:1033500008F0DEFD1AEE101A284608F0D9FD1AEE24
:10336000901A284608F0D4FD3946284608F0D0FDCA
:103370002846514608F0CCFD204609B0BDEC0A8B2A
:10338000BDE8F08F1CD600203A4D0208484D0208D7
:10339000C59714FF0000FFFF80F82E10704790F8CB
:1033A0002E007047704770477047704730B4C2684E
:1033B00044685510034604EB6200D20748BF6259C7
:1033C0009B6830BC48BFD358184743682BB183680B
:1033D0002BB9C06800F00100704718467047012003
:1033E00070470420704703299EBF00EB8101CA6427
:1033F000CB65704703299ABF00EB8101C86C0020A0
:10340000704703299ABF00EB8101C86D0020704707
:1034100003299EBF00EB8101CA66CB677047032971
:103420009ABF00EB8101C86E0020704703299ABF44
:1034300000EB8101C86F0020704710B58C21044655
:103440001FF021F9204610BD10B5102104461FF0D1
:103450001AF9204610BD10B543F2445104461FF03E
:1034600012F9204610BD00F5DC70884208B505D180
:103470000DF0BEFDBDE8084000F0BEBB08BD08B5BC
:1034800029B90DF0B5FDBDE8084000F0B5BB08BD99
:103490004FF4807181840B4981624FF6FF71818501
:1034A0004FF47F010022416307490263C0E9012212
:1034B000C0E90322C0E90522C0E9072202870160B2
:1034C000C2637047484D0208187002082DE9F04F9A
:1034D0002DED088B04468DB00FF05CF922460025D7
:1034E000624BE56342F8403B104608EE102AFFF7B6
:1034F000EDFB04F16C0318460BEE103AFFF7E6FB08
:1035000004F19803184604F1D80908EE903AFFF741
:10351000BFFF484608F05CF904F5DC73184604F573
:10352000007809EE103A04F538770BF0F9FF4046C1
:1035300008F04EF904F57076384608F049F930463F
:1035400008F046F904F59463184609EE903AFFF73F
:103550009FFF04F59C6318460AEE103AFFF798FFA8
:1035600004F5A463184604F5AC6A0AEE903AFFF736
:103570008FFF504609F0C0FE3D4BC4F8603504F2A1
:10358000EC531846C4F8AC55C4F8B055C4F8B4555B
:10359000C4F8B855C4F8BC55C4F8C055C4F8C455EF
:1035A000C4F8C855C4F8CC55C4F8D055C4F8D4559F
:1035B000C4F8D855C4F8DC55C4F8E055C4F8E4554F
:1035C000C4F8E8550BEE903AFFF796FB294BC4F888
:1035D000EC35294BC4F85436284BC4F85C364FF40C
:1035E000F07B42F6E06104F26460C4F80056C4F86F
:1035F0005846C4F860560BF0C1FF18EE100ACDF81B
:1036000000B04FF448732A462946FFF74CFB4FF0B1
:103610007F431BEE100AA366CDF800B04FF4487349
:103620002A462946FFF73FFB154BC4F8943018EEA5
:10363000900A64221421FFF729FB4FF07F43C4F85E
:10364000C830104BA4F8CC501B6804F2046B2BB9A3
:103650000D4B0E4AAE210E481FF034FE0D4B1B8859
:103660000A2B1BD80C4B094AAF21F4E75C4E020829
:10367000AC4D020854680208444E02086734000842
:10368000FCAF88FF10D60020314C0208734C0208B2
:10369000A14C020814D60020E84C0208DC4B0A2199
:1036A000186800F065FEDB4A03460A21584610F010
:1036B0003BFD18EE900AC4F8D4B00BF035F908239E
:1036C000D54AADF8143018EE900A04A904920BF014
:1036D00048F98C2214214846FFF7D8FA022210211B
:1036E0000091B4231146484607F0CCFF2B467822C0
:1036F00029464846009508F049FA2946484608F008
:10370000BEF84FF0050B04A94846ADF810B008F01C
:10371000FEFAC249484607F09FFF3C21484607F0A1
:10372000C9FF19EE100A2A462946FFF7AFFA03230C
:1037300004A90A4619EE100A03A9ADF80C300423B7
:10374000ADF810300BF0DBFA092319EE100AA4F8DB
:10375000F031FFF723FB4FF0FF33C4E97D3304F270
:103760005463C4F8E0314FF4DC7214214046FFF793
:103770008DFA022210210091B4231146404607F031
:1037800081FF2B46782229464046009508F0FEF935
:103790002946404608F073F804A94046ADF810B039
:1037A00008F0B5FA9D49404607F056FF3C214046D7
:1037B00007F080FF8C2240F24E213846FFF766FA70
:1037C000022210210091B4231146384607F05AFF17
:1037D0002B46782229463846009508F0D7F9294625
:1037E000384608F04CF804A93846ADF810B008F097
:1037F0008EFA8A49384607F02FFF3C21384607F0F9
:1038000059FF4FF4DC7240F24E213046FFF73EFA8A
:10381000022210210091B4231146304607F032FFF6
:103820002B46782229463046009508F0AFF9294604
:10383000304608F024F804A93046ADF810B008F07E
:1038400066FA7649304607F007FF3C21304607F01C
:1038500031FF40F24E2119EE900A4FF4C872FFF783
:1038600015FA4FF07F41C4F8D0146D49A4F8D45430
:103870000B6804F5C36B002B3FF4EAAE694803887C
:103880000C2B7FF6EFAE624B0C21186800F070FD38
:10389000604A03460A21584610F046FC19EE900A89
:1038A000C4F8DCB40BF040F80DF1100C0B236146AA
:1038B000594AADF8143019EE900A04920BF051F801
:1038C00014211AEE100A4FF4C872FFF7DFF95449B9
:1038D000A4F814550B684FF07F4CC4F810C504F2DF
:1038E0002C6B002B3FF4B4AE4E4803880E2B7FF6B2
:1038F000B9AE474B0E21186800F03AFD454A034621
:103900000A21584610F010FC1AEE100AC4F81CB533
:103910000BF00AF80DF1100C0D2361463E4AADF88C
:1039200014301AEE100A04920BF01BF840F24E21EC
:103930001AEE900A6422FFF7A9F93949A4F8545500
:103940000B684FF07F4CC4F850C504F5C865002BD8
:103950003FF47EAE33480388102B7FF683AE2C4BAA
:103960001021186800F004FD2A4A03460A2128465F
:1039700010F0DAFB1AEE900AC4F85C550AF0D4FF96
:10398000254A04920F231AEE900A04A9ADF81430C8
:103990000AF0E7FF40230093A02241231421504660
:1039A000FFF781F9D4F8903513B9D4F894353BB1C9
:1039B0000023C4F89035C4F89435504609F0B2FCA1
:1039C0004FF48063C4F89C35C4F8A035504609F024
:1039D000A9FCD4F898352BB10023C4F8983550468B
:1039E00009F0A0FC4FF0FF331BEE901AC4F800362C
:1039F00050460AF006FADFF830C0BCE80F0004AD0C
:103A00000FC59CE80F0085E80F0004AA0EE000BF78
:103A10001CD600203A4D0208484D0208BFFF00FFA7
:103A200010D6002014D60020D043020804F5B56358
:103A300004F5B761104690ED007AD2ED017ABEEE42
:103A4000ED7AFEEEED7A17EE100A43F8040F994274
:103A500002F10802C3ED047AECD1251D504609F0AD
:103A600061FC18EE101A284608F052FA1BEE101AE4
:103A7000284608F04DFA18EE901A284608F048FA41
:103A80004946284608F044FA19EE101A284608F06C
:103A90003FFA4146284608F03BFA3946284608F0E6
:103AA00037FA3146284608F033FA19EE901A2846BC
:103AB00008F02EFA1AEE101A284608F029FA1AEE23
:103AC000901A284608F024FA2846514608F020FAB1
:103AD00020460DB0BDEC088BBDE8F08F704700F5B7
:103AE00096730868496803C3704770477047416020
:103AF000704770470123037270477047704710B4D6
:103B0000C26841685410034601EB6200D20748BF07
:103B10000A599B685DF8044B48BFD358184743685F
:103B20002BB183682BB9C06800F0010070471846BC
:103B300070470120704710B50C2104461EF0A3FD0C
:103B4000204610BD10B5102104461EF09CFD2046F5
:103B500010BD10B54FF4AC7104461EF094FD204624
:103B600010BD10B50DF044FA0368BDE810401B6BA2
:103B7000184710B50446D0F83C0158B10368DB681B
:103B8000984738B1D4F83C0103689B6898470023F4
:103B9000C4F83C3110BD0000F8B5044617460E4687
:103BA0000DF08EFA104B0025C4E954760F4E1C60C0
:103BB000C4E952550E4B306823600E4BC4E95035B2
:103BC000036829469B68C4E94E559847284600F08B
:103BD00093FB336893F876200AB1D86C00B99868E3
:103BE00015F025F92046F8BD0CD60020A0D5002000
:103BF000DC520208C4520208064BC0F848310023C8
:103C0000C0F84C3100F5A073C0F84401C0F83C3155
:103C1000704700BF793D0008064BC0F848310023CB
:103C2000C0F84C3100F5A073C0F84401C0F83C3135
:103C3000704700BFE13E00082DE9F84F0746906845
:103C4000DDF828A0994603681B6A88461446984701
:103C500043F2AF43984205D8414B424AA321424820
:103C60001FF030FB606803681B6A98470F2803D871
:103C70003E4B3C4AA421F2E7E06803681B6A984780
:103C80000B2803D83A4B374AA521E8E70DF0B0F9E5
:103C90000DF0FCF9D9F8000010B10368DB68984713
:103CA000D9F8000010B103681B689847386810B154
:103CB00003685B699847D8F8000010B103685B6837
:103CC0009847386810B103681B689847D8F8000017
:103CD00010B103689B689847E068036800215B6A3D
:103CE00098474FF0000B234B03600546C0F804B023
:103CF00080F808B0A068036859465B6A9847064692
:103D000000F0BAFB6068036859465B6A9847314621
:103D1000044600F08BFBC9F80050C8F800403E6034
:103D2000E4B1231DCAF800303368C4F808A0304657
:103D3000DB68F4639847236820461B689847294648
:103D400030460EF0A4FE2B6828461B6998472B6866
:103D500028465B6998472046BDE8F88F2346E1E78F
:103D6000884E0208164F02082050020867500208C9
:103D70000A5102082053020807B5D0F854310093C5
:103D8000D0F85021044B00F59C710448FFF754FF14
:103D900003B05DF804FB00BF00D60020FCD5002076
:103DA0002DE9F84F07469068DDF828A0994603688A
:103DB0001B6A88461446984743F24353984205D8F5
:103DC000414B424AA32142481FF07CFA60680368D5
:103DD0001B6A98470F2803D83E4B3C4AA421F2E7C0
:103DE000E06803681B6A98470B2803D83A4B374AA8
:103DF000A521E8E70DF0FCF80DF048F9D9F800002E
:103E000010B10368DB689847D9F8000010B1036867
:103E10001B689847386810B103685B699847D8F801
:103E2000000010B103685B689847386810B10368F8
:103E30001B689847D8F8000010B103689B68984742
:103E4000E068036800215B6A98474FF0000B234B42
:103E500003600546C0F804B080F808B0A0680368A5
:103E600059465B6A9847064600F0B2FB60680368F3
:103E700059465B6A98473146044600F08FFBC9F803
:103E80000050C8F800403E60E4B1231DCAF800307D
:103E90003368C4F808A03046DB68F46398472368A9
:103EA00020461B689847294630460EF0F0FD2B68E7
:103EB00028461B6998472B6828465B699847204627
:103EC000BDE8F88F2346E1E7884E0208AD510208AD
:103ED00020500208675002080A51020820530208C5
:103EE00007B5D0F854310093D0F85021044B00F5B9
:103EF0009C710448FFF754FF03B05DF804FB00BF5A
:103F000000D60020FCD50020006A7047406A704748
:103F100070478B8880690A68DB0A50F823001044D8
:103F2000704710B5C2B1137BB3B1547BD27A24026F
:103F300004F4E0641443C26998B202EB840213886B
:103F40008B4202D192F9020010BD05D8013880B22F
:103F500004320028F3D1F7E70020F5E710B5282157
:103F600004461EF090FB204610BD000030B589B01D
:103F70000446BDF850500695BDF84C5005959DF887
:103F8000405004959DF83C5003959DF8385002959B
:103F90009DF8345001959DF8305000950EF0A8F82A
:103FA000064B2360119BA361129BE361159B236267
:103FB000169B6362204609B030BD00BF445302081F
:103FC0007047000030B5164D2C78BFF35B8F14F0AE
:103FD00001048DB020D128461EF057FBE0B13F23ED
:103FE0000793104B0693104B104911480894CDE9E4
:103FF000044301220423CDE90132022300930C2261
:104000006423CDE909440394FFF7B0FF28461EF06E
:1040100048FB08481FF074F905480DB030BD00BFDB
:10402000B8450020D89002089453020898BF0D901C
:10403000BC450020C13F00087047000030B5164D58
:104040002C78BFF35B8F14F001048DB020D128468B
:104050001EF01BFBE0B13F230793104B0693104B60
:1040600005930123CDE90343029304220223CDE902
:1040700000320C490C4808940A231922CDE909445E
:10408000FFF774FF28461EF00CFB08481FF038F9B4
:1040900005480DB030BD00BFE4450020DC900208AB
:1040A0009853020840C00D90E845002039400008B0
:1040B0007047000030B5154D2C78BFF35B8F14F0BE
:1040C00001048DB01FD128461EF0DFFAD8B13F237E
:1040D00007930F4B06930F4B0F4910480894CDE9F7
:1040E000044301220423CDE9013200931722142353
:1040F000CDE909440394FFF739FF28461EF0D1FAB1
:1041000007481FF0FDF805480DB030BD10460020EF
:10411000E09002089C530208A0C10D9014460020B4
:10412000B14000087047000030B5154D2C78BFF342
:104130005B8F14F001048DB01FD128461EF0A5FA44
:10414000D8B13F2307930F4B06930F4B05930123E1
:10415000CDE9033302930423CDE900330B490C4826
:1041600008941E231322CDE90944FFF7FFFE2846D9
:104170001EF097FA07481FF0C3F805480DB030BD90
:104180003C460020F0900208A0530208E4C20D90C3
:1041900040460020254100087047000030B5154D0D
:1041A0002C78BFF35B8F14F001048DB01FD128462B
:1041B0001EF06BFAD8B13F2307930F4B06930F4BBA
:1041C0000F4910480894CDE9044304220123CDE9A6
:1041D000012300930D222823CDE909440394FFF71E
:1041E000C5FE28461EF05DFA07481FF089F805480D
:1041F0000DB030BD6846002018910208A453020893
:10420000F0C30D906C4600209941000800207047D3
:10421000002070470EB403B503AB002153F8042B04
:1042200001930DF083FD02B05DF804EB03B070471D
:104230000CB407B504AB53F8042B01930DF076FDD5
:1042400003B05DF804EB02B070470000C36B10B51B
:10425000044673B3038E2BB9184B194ABF21194872
:104260001FF030F8C38D00EB43035B8B0BB30FF0F3
:10427000A1F9238E012B03D8134B144AC421EEE776
:10428000E28D531C9BB2092B194688BFA3F10A018A
:1042900004EB410140F63F10498B814209D10A2BC2
:1042A00004EB420228BF002304EB4303508B5883E6
:1042B00051832046BDE810400FF060B8A8530208B3
:1042C000B15302085C540208A6540208B454020810
:1042D0000FF00EB810B586B002AC84E806001A469E
:1042E0000AAB05930193099B00932146089B0CF0B0
:1042F00008FA06B010BD000038B518BB124B1348C1
:104300001B681349B3B11A689C681A4402605A6862
:104310001A440A601C440F4B00221A8000F038F83F
:10432000054600F033F80C4B1C600C4B1D600C4B29
:10433000188007E00B4B03600B4B0B600B4B1C68AA
:10434000002CE8D138BD00BF9446002098460020DC
:104350009C460020A046002010D6002018D6002041
:1043600014D60020ECC40D90A8C40D90D0C50D90BB
:10437000044B1B6853F82100034B1B6803EB400000
:10438000704700BF9C4600209846002011207047CF
:1043900000487047A446002010B5FFF78BFE074C7D
:1043A0002060FFF7FBFE6060FFF748FEA060FFF7AC
:1043B00009FEE060FFF7B8FE206110BDA4460020B2
:1043C00070470438704770477047C0680368002121
:1043D0009B6A1847A0F10400FFF7F7BF10B5102142
:1043E00004461EF050F9204610BDA0F10400F5E788
:1043F0008068002100F012BBC06800F047B8A0F14F
:104400000400FFF7F9BFC06800F088B8A0F104000D
:10441000FFF7F9BFC06800F063B8A0F10400FFF730
:10442000F9BF7047704770477047000010B5002211
:104430008260044AC16002F10804403204604260B4
:1044400010BD00BF88550208806800F0A7BB8068D7
:1044500000F0B8BB70477047FEF7C0BBC06BFFF7FA
:10446000F3BFC06BFFF7F3BF10B543F2B041044692
:104470001EF009F9204610BD10B50446FEF7DEFC1B
:10448000014B2360204610BD0C560208092970B567
:1044900005460C4600F2845013D80E4A0B460A21FA
:1044A00005F514760FF040FE30460AF03DFA05F1AE
:1044B000980021460AF0A8FB3046BDE870400DF098
:1044C00056BDA1F10A03592B94BF034A034A0B4678
:1044D000E5E700BFF0550208F6550208FB55020853
:1044E00037B50B46044615460A210B4A00F5B36062
:1044F0000FF01AFE084A2B460A2104F2AC500FF0C6
:1045000013FE04F5247001900AF00EFA019803B02E
:10451000BDE830400DF02BBDFE55020800F56B7074
:1045200007F017BA7047043870477047C0680368CF
:1045300000219B6A1847A0F10400FFF7F7BF7047FE
:10454000704710B5102104461EF09DF8204610BD9E
:10455000A0F10400F5E78068012100F05FBAC068AF
:1045600000F042B8A0F10400FFF7F9BFC06800F006
:10457000A7B8A0F10400FFF7F9BFC06800F00CB9BC
:10458000A0F10400FFF7F9BFC06800F071B9A0F115
:104590000400FFF7F9BF70477047704710B500225D
:1045A0008260044AC16002F1080440320460426043
:1045B00010BD00BF4056020870477047FEF7F3BEBB
:1045C00010B543F2445104461EF05DF8204610BD7C
:1045D00010B50446FEF77AFF014B2360204610BD5C
:1045E000B056020800000000092970B504460D46C7
:1045F00000F2046034DC2C4A0B460A2104F19806D0
:104600000FF092FDD83430460AF08EF90021204692
:1046100007F050F820464FF07F4107F01DF83B2D82
:10462000284625DCFBF78EFF204B0022FCF71EF905
:104630001BA3D3E90023FBF7EFFFFCF7FFF900040E
:1046400000F47F0141F0FF21204607F005F82046E5
:10465000294607F02FF83046BDE870400DF087BCC2
:10466000A1F10A03592B94BF114A124A0B46C4E721
:10467000FBF768FF0D4B0022FBF716FE0B4B0022E9
:10468000FCF7F4F806A3D3E90023FBF7C5FFFCF71A
:10469000D5F90949C043C0B241EA0021D4E700BFBF
:1046A0000000000000E06F40F055020800004E409E
:1046B000F6550208FB5502080000FFFF000000004D
:1046C000092970B504460D4600F5C86035DC2C4A52
:1046D0000B460A2104F5A4660FF026FD04F50074CC
:1046E00030460AF021F90021204606F0E3FF20467B
:1046F0004FF07F4106F0B0FF3B2D284625DCFBF74D
:1047000021FF204B0022FCF7B1F81BA3D3E90023C3
:10471000FBF782FFFCF792F9000400F47F0141F0FF
:10472000FF21204606F098FF2046294606F0C2FFEA
:104730003046BDE870400DF01ABCA1F10A03592BB8
:1047400094BF114A114A0B46C3E7FBF7FBFE0D4B22
:104750000022FBF7A9FD0B4B0022FCF787F806A30C
:10476000D3E90023FBF758FFFCF768F90849C04379
:10477000C0B241EA0021D4E70000000000E06F4031
:10478000F055020800004E40F6550208FB5502089D
:104790000000FFFF00000000092970B504460D4627
:1047A00000F22C6035DC2C4A0B460A2104F59C668D
:1047B0000FF0BAFC04F5387430460AF0B5F8002161
:1047C000204606F077FF20464FF07F4106F044FF79
:1047D0003B2D284625DCFBF7B5FE204B0022FCF7DD
:1047E00045F81BA3D3E90023FBF716FFFCF726F9D6
:1047F000000400F47F0141F0FF21204606F02CFF69
:104800002046294606F056FF3046BDE870400DF0C0
:10481000AEBBA1F10A03592B94BF114A114A0B46B2
:10482000C3E7FBF78FFE0D4B0022FBF73DFD0B4B63
:104830000022FCF71BF806A3D3E90023FBF7ECFEEC
:10484000FCF7FCF80849C043C0B241EA0021D4E7B4
:104850000000000000E06F40F055020800004E40EC
:10486000F6550208FB5502080000FFFF000000009B
:10487000092970B504460D4600F5C36035DC2C4AA5
:104880000B460A2104F594660FF04EFC04F5707493
:1048900030460AF049F80021204606F00BFF20467A
:1048A0004FF07F4106F0D8FE3B2D284625DCFBF774
:1048B00049FE204B0022FBF7D9FF1BA3D3E90023BD
:1048C000FBF7AAFEFCF7BAF8000400F47F0141F000
:1048D000FF21204606F0C0FE2046294606F0EAFEEB
:1048E0003046BDE870400DF042BBA1F10A03592BE0
:1048F00094BF114A114A0B46C3E7FBF723FE0D4B49
:104900000022FBF7D1FC0B4B0022FBF7AFFF06A305
:10491000D3E90023FBF780FEFCF790F80849C04379
:10492000C0B241EA0021D4E70000000000E06F407F
:10493000F055020800004E40F6550208FB550208EB
:104940000000FFFF704710B54FF4AC7104461DF036
:104950009AFE204610BD10B50446D0F8540100F070
:1049600085F82046BDE810400CF03CBA10B504466E
:10497000FFF712F9014B2360204610BDE4560208F0
:1049800038B500240546046022460421012005F0C4
:104990000FFA1A4B012118602246084605F008FA62
:1049A000174B012118602246084605F001FA154B05
:1049B000012118602246084605F0FAF9124B012140
:1049C00018602246084605F0F3F9104B01211860E3
:1049D0002246084605F0ECF90D4B012118602246ED
:1049E000084605F0E5F90B4B012118602246084600
:1049F00005F0DEF9084B1860284638BDC84600208F
:104A0000CC460020D0460020D4460020D8460020C6
:104A1000BC460020C4460020C0460020054B19605B
:104A200039B90068044A036804491B6A12680968B6
:104A30001847704724000020E4460020B8460020B4
:104A4000024A136801331360704700BFB846002064
:104A5000054908B50B683B2B02D801330B6008BD34
:104A6000FFF7EEFF0023F9E7E446002070B53C4B6A
:104A70003C4E044600221868314605F069FB0128C7
:104A800007D1394B1B6823B92068317803689B68CC
:104A90009847364B364D18680022294605F058FBDA
:104AA000012804D1206829680368DB689847314BE6
:104AB0002F491868002205F04BFB012804D120681B
:104AC000296803681B6998472B4B294918680022FD
:104AD00005F03EFB012804D12068296803685B6962
:104AE0009847264B22491868002205F031FB01281F
:104AF00004D12068296803689B699847204B1949AD
:104B00001868002205F024FB012804D120683178C0
:104B10000368DB6998471B4B1B491868002205F0A6
:104B200017FB012803D1206803685B6A9847174B7D
:104B300015491868002205F00BFB01280FD1144B12
:104B40001B7863B92046FFF783FF2068114A03688A
:104B500011491B6A12680968BDE87040184770BDAA
:104B6000C8460020DD46002024000020CC4600205E
:104B7000E0460020D0460020D4460020D846002041
:104B8000BC460020C0460020DC460020C446002071
:104B900020000020E4460020B8460020064B1B7889
:104BA0004BB1064B006800221A60054B1A6003687F
:104BB00011461B6A1847704720000020B8460020A5
:104BC000E4460020034A1378B3FA83F35B091370B9
:104BD000704700BF2000002070470020704710B5CC
:104BE000044600F07DFBA821E0B200F093FB80B208
:104BF00010BD000013B500240221C0B28DF807409B
:104C000000F088FB8DF807009DF8073003F00F03D4
:104C10008DF807309DF80730022B88BF8DF80740CC
:104C2000044B9DF807209DF807005A7000229A70E7
:104C300002B010BDEA46002073B5154C1546A378A6
:104C400062789A420E461FD903B3012B14BF00218C
:104C5000092104230DEB0302C0B200F077FB9DF89D
:104C600004309DF805201B0203F470631343338066
:104C70009DF806309DF807201B0203F47063134370
:104C80002B80A3780133A37002B070BD0321E0E74D
:104C9000EA4600200122A421C0B200F023BB00227A
:104CA000A421C0B200F01EBBFFF7F9BF704700009F
:104CB00010B4094B1A7890420AD05978884207D02C
:104CC0000AB129B9012298545DF8044B00F008BBE1
:104CD0005DF8044B704700BFE846002038B5044635
:104CE0000D460020CB49FCF78DFACB490320FCF799
:104CF00089FACA490020FCF785FAC9490220FCF765
:104D000081FAC6490020FCF77DFAC6490020FCF76D
:104D100079FA0A2000F030FBC3490020FCF772FA50
:104D2000C2490020FCF76EFA0A2000F025FBC049BA
:104D30000020FCF767FABF490020FCF763FABE4980
:104D40000020FCF75FFABD490020FCF75BFABC4984
:104D50000020FCF757FABB490020FCF753FAAD4995
:104D60000020FCF74FFAB8490020FCF74BFAB7498E
:104D70000020FCF747FAB6490020FCF743FAB54992
:104D80000020FCF73FFAB4490020FCF73BFAB34996
:104D90000020FCF737FAB2490020FCF733FAB1499A
:104DA0000020FCF72FFAA5490020FCF72BFA9949BF
:104DB0000020FCF727FAAC490220FCF723FAAB49A4
:104DC0000020FCF71FFAAA490020FCF71BFAA949AA
:104DD0000020FCF717FAA8490020FCF713FAA749AE
:104DE0000020FCF70FFAA6490020FCF70BFA9749C0
:104DF0000020FCF707FAA3490020FCF703FA9549C5
:104E00000020FCF7FFF9A0490020FCF7FBF99F49BF
:104E10000020FCF7F7F99E490220FCF7F3F97F49DF
:104E20000020FCF7EFF99B490620FCF7EBF99A49C3
:104E30000020FCF7E7F999490E20FCF7E3F99849BF
:104E40000020FCF7DFF997490E20FCF7DBF99649C3
:104E50000020FCF7D7F995490A20FCF7D3F99449CB
:104E60000020FCF7CFF993490020FCF7CBF96B4900
:104E70000020FCF7C7F990490A20FCF7C3F98F49D5
:104E80000020FCF7BFF98E490F20FCF7BBF98249DF
:104E90000020FCF7B7F98B490F20FCF7B3F98049E4
:104EA0000020FCF7AFF988490A20FCF7ABF97E49EE
:104EB0000020FCF7A7F985490F20FCF7A3F97C49EE
:104EC0000020FCF79FF982490F20FCF79BF98149EC
:104ED0000020FCF797F980490A20FCF793F97F49F5
:104EE0000020FCF78FF97E490A20FCF78BF94B492B
:104EF0000020FCF787F97B490A20FCF783F96F490A
:104F00000020FCF77FF978490F20FCF77BF9624914
:104F10000020FCF777F975490F20FCF773F9604919
:104F20000020FCF76FF972490A20FCF76BF95E4923
:104F30000020FCF767F96F490F20FCF763F95C4923
:104F40000020FCF75FF96C490F20FCF75BF93F4943
:104F50000020FCF757F969490020FCF753F968492C
:104F60000020FCF74FF967490020FCF74BF9664930
:104F70000020FCF747F965490020FCF743F9254973
:104F80000020FCF73FF962490320FCF73BF9214977
:104F90000020FCF737F91F490020FCF733F95D4981
:104FA0001020FCF72FF91B490020FCF72BF95A4978
:104FB0001020FCF727F900205849FCF723F9782046
:104FC00000F0DAF9002C00F0C980022C03D154491A
:104FD0000020FCF717F9012D0BD152490020FCF7F6
:104FE00011F951490420FCF70DF950490420FCF750
:104FF00009F94F490020FCF705F94E490020FCF75C
:1050000001F94D490020FCF7FDF84C490020FCF760
:10501000F9F895E02057020886570208365702082B
:105020000C5802084C5702086257020878570208C9
:105030007E570208805702088257020884570208E8
:105040002257020824570208265702082857020848
:105050002A5702082C5702082E5702083057020818
:1050600032570208345702088A5802083857020893
:105070003A5702083C5702083E57020840570208B8
:105080004257020844570208465702084857020888
:105090008D580208905802084A570208975802088B
:1050A0004E570208A6580208505702088A570208AD
:1050B00052570208705702089557020854570208C1
:1050C000A0570208B0570208C0570208CB57020881
:1050D000DB57020856570208EB57020858570208D8
:1050E000F6570208015802080F5802081F58020814
:1050F0002F5802083A5802084A5802087257020804
:1051000074570208765702087A5702087C5702083B
:105110005A58020868580208795802085A57020873
:105120005C570208605702085E580208635802087C
:105130006457020866570208685702086A5702084F
:1051400008490020FCF75EF807490020FCF75AF8F0
:1051500006490020FCF756F8002038BD04492046D7
:1051600037E700BF6C570208205702086E57020845
:105170005E57020870B52E4D88B0284602F06EFAD0
:105180000446002851D12B4A2B4B2C4E0190C5E9E7
:1051900000234FF48043C5E90200C5E90430C5E9A6
:1051A00006002862336B43F002033363336B0590D0
:1051B00003F002030193019B4FF480711223CDE9A8
:1051C000031302200423CDE9060303A91C4801F0C0
:1051D00067FC4FF400731A48039303A901F060FCC5
:1051E0000294336C43F400133364336C03F4001300
:1051F0000293029B336A43F400133362336A23F44D
:1052000000133362224605211F2000F01DFD1F20E0
:1052100000F04CFD22460521202000F015FD202045
:1052200000F044FD284601F0BFFF08B070BD00BF8C
:10523000F046002000540040801A0600003802406A
:105240000004024008B5034802F056F8BDE80840E3
:10525000FFF790BFF046002010B586B0194B002430
:1052600000941A6B42F001021A631B6B03F00103F6
:105270000093009B69B90123CDE901310223049316
:10528000114B039153F8200001A901F009FC06B06D
:1052900010BD0129FBD1022304934FF4881302931C
:1052A000094B019153F82000039401A901F0F8FB88
:1052B00022460F21062000F0C7FC062000F0F6FC75
:1052C000E5E700BF003802405000002008B5034B5E
:1052D000012153F8200001F06BFD08BD50000020B3
:1052E000FFF748BF7FB501238DF817206422CDE971
:1052F00001320DF1170200920A460146044802F0FD
:1053000015F808B1FFF79EFF07B05DF804FB00BF7A
:10531000F04600207FB500230A468DF817304FF481
:105320007A710123CDE901310DF117010091014698
:10533000054802F08BF808B1FFF784FF9DF81700CD
:1053400007B05DF804FB00BFF04600201FB54FF426
:105350007A74CDE90134009201230A4601460548DA
:1053600002F074F8044608B1FFF76CFFA0B204B075
:1053700010BD00BFF046002000F040BC00B595B065
:105380004FF480720C924FF08071052206920F91BB
:1053900000220121CDE90312CDE90D22CDE9112230
:1053A0000B9213920092102202924FF48002034655
:1053B0000191059206A96A46044802F0D2FC003821
:1053C00018BF012015B05DF804FB00BF34DB0020DE
:1053D00000B595B04FF480730C93062306931748DD
:1053E000002341F2883206A9CDE90D33CDE911330E
:1053F0000F930B93139302F070FCE0B90223CDE9F5
:10540000003301221023CDE902324FF4800105233D
:10541000CDE905134FF0807304900F93074841F2D4
:1054200088336A4606A902F09CFC003818BF0120A8
:1054300015B05DF804FB0120FAE700BF34DB002063
:1054400000B591B04FF480730893EB2302934FF4AF
:10545000406309934FF4005305934FF040720023CB
:10546000CDE90A320A22079202A96A4606480F933A
:10547000CDE90D33019302F0C4FC003818BF0120C0
:1054800011B05DF804FB00BF34DB002070B588B0BC
:105490002C4B2D48002400949A6B42F002029A6330
:1054A0009A6B02F002020092009A9A6942F002029C
:1054B0009A619A6922F002029A6101941A6B42F091
:1054C00002021A631A6B02F002020192019A02941C
:1054D0001A6B42F020021A631B6B03F02003029345
:1054E0004022029B0223CDE9032301210323CDE9BE
:1054F00005130A2603A90925079601F0D1FA4FF4EE
:10550000806303A9114803930594079501F0C8FA35
:105510004FF4407303A90D480393079601F0C0FAB6
:10552000C02303A909480393079501F0B9FA22465D
:105530000F215B2000F088FB5B2000F0B7FB08B078
:1055400070BD00BF00380240000402400014024059
:10555000F0B5484C484B236091B0204602F0AAFBBE
:10556000054610B1012011B0F0BD01462046FFF7FD
:105570008DFF01261023C4E90166E3604FF08077B8
:1055800097FAA7F3B3FA83F3013B236120464FF464
:105590008063C4E90535C4E9075502F037FB0028EC
:1055A000E0D1CDE90900CDE90D004FF48075662307
:1055B0000B9007900F9041F2883202A9204608957F
:1055C000029302F08AFB08B10420CCE7992341F250
:1055D000883202A92046029302F07FFB0028F3D113
:1055E00041F28830FFF7CAFE0028EDD1CDE909006D
:1055F000CDE90C60CDE90E008523079041F2883299
:1056000002A92046089502930B9702F066FB00283A
:10561000DAD141F288320DF10701204602F0D0FCC8
:105620000028D1D1FFF7D4FE0028CDD181230293E9
:10563000F02292FAA2F29DF807300A21B2FA82F221
:1056400001FA02F203F00F03134302A941F2883278
:1056500020468DF8073002F040FB0028B4D141F21B
:1056600088320DF10701204602F04EFC00283FF47D
:105670007AAFA9E734DB0020001000A008B55B205A
:1056800000F022FB1448402101F0F0FA13484FF4D7
:10569000806101F0EBFA11484FF4807101F0E6FAF5
:1056A0000E484FF4007101F0E1FA0C48802101F03E
:1056B000DDFA0A48402101F0D9FA094B9A6942F013
:1056C00002029A619A6922F002029A619A6B22F0B0
:1056D00002029A6308BD00BF0004024000140240A9
:1056E0000038024038B5084D084B2B60284602F0C0
:1056F000E1FA044628B901462846FFF7BFFF2046D5
:1057000038BD0124FBE700BF34DB0020001000A0FF
:105710002DE9F743214C224D01264FF000081027B8
:10572000214681464FF6FF722846C4E90067C4E966
:105730000268CDF8048003F0F3F8304600F05EFA1A
:10574000022321464FF6FF722846C4E90037C4E918
:10575000026803F0E5F80323C4E900372146082373
:105760004FF6FF722846C4E9023803F0D9F84FF427
:105770000C7301930423C4E900372146019BA66002
:105780004FF6FF722846E36003F0CAF84946284600
:1057900003B0BDE8F04303F0DAB800BF444700208F
:1057A0003048002070B506468EB0002800F0BD805D
:1057B0005F4B6048604C002500959A6B42F00102F7
:1057C0009A639A6B02F001020092009A01951A6B9B
:1057D00042F480021A631A6B02F480020192019A69
:1057E00002951A6B42F004021A631A6B02F004026B
:1057F0000292029A03951A6B42F008021A631A6B1E
:1058000002F008020392039A04951A6B42F0100208
:105810001A631A6B02F010020492049A05951A6B2F
:1058200042F020021A631A6B02F020020592059AD8
:1058300006951A6B42F040021A631A6B02F040029E
:105840000692069A07951A6B42F080021A631A6B49
:1058500002F080020792079A08951A6B42F4807250
:105860001A631B6B03F4807308930222089B0C924B
:105870000123CDE90A2309A90C220D92099301F015
:105880000FF94CF203732D48099309A901F008F9A7
:105890004FF683732A48099309A901F001F94FF6DD
:1058A0003F032848099309A901F0FAF848F2331395
:1058B0002548099309A901F0F3F84FF60C73234822
:1058C000099309A901F0ECF840F2FF63204809931D
:1058D00009A901F0E5F880224FF40073C4E902231E
:1058E0004FF480614FF48053C4E904134FF48043B4
:1058F000C4E906354FF40033C4E908350323C4E98D
:105900000A352563134B3463204623606560A66324
:1059100000F094FA204600F011FA38202A460521BA
:1059200000F092F9382000F0C1F90EB070BD00BF50
:10593000003802400008024070470020000C02407E
:10594000001002400014024000180240001C0240F7
:10595000002002401064024038B5194C194D1A4B12
:105960002360072102230422C5E90031C5E9022191
:10597000C5E90433AB61E26040232022C4E904237B
:1059800000214FF4C073C4E906314FF400604FF4B6
:105990008053C4E908032046C4E90111A162FFF75E
:1059A00001FF2946204602F08DFF084C003818BF41
:1059B0000120207040F26950FFF7AAFE207838BD20
:1059C0003048002054470020400100A0540000202F
:1059D00008B548B1382000F077F90448044B03605B
:1059E000BDE8084000F02ABA08BD00BFD04700203B
:1059F0001064024038B5074C074B2360204602F084
:105A000081FF064D014618B928702046FFF7E0FFD8
:105A1000287838BD30480020400100A05500002003
:105A20002DE9F843194DDFF870802B68044698F88B
:105A300000000F4698476B6854209847C0B2112861
:105A40004646A9460BD06B6870209847C0B27023B9
:105A5000112888F8003005D00320BDE8F8835423CE
:105A600088F800300A4B0B4D3078C5F80090BC42E6
:105A700034BF01210C211970D9F8083098472B68E0
:105A80003078DB6898470020E7E700BF2800002057
:105A90007C48002078480020644800202DE9F04F21
:105AA000344C354D236885B006461B6928789847E5
:105AB000A1463070019558B1DFF8C8802F4F06F12C
:105AC000020B03AD02A94FF0000A3378534503D807
:105AD000002005B0BDE8F08FD9F8003001985B696F
