:020000040800F2
:1000000000000520850D0008512A0008532A000829
:10001000552A0008572A0008592A00080000000045
:10002000000000000000000000000000C19F000868
:100030005B2A00080000000051A000081998000881
:10004000D50D0008D50D0008D50D0008D50D000808
:10005000D50D0008D50D00085D2A0008D50D000853
:10006000D50D0008D50D0008D50D0008D50D0008E8
:10007000D50D0008D50D0008D50D0008D50D0008D8
:10008000D50D0008D50D0008D50D0008D50D0008C8
:10009000D50D0008D50D0008D50D0008D50D0008B8
:1000A000D50D0008D50D0008D50D0008D50D0008A8
:1000B000D50D0008D50D0008D50D0008D50D000898
:1000C000D50D0008D50D0008D50D0008D50D000888
:1000D000D50D0008D50D0008D50D0008D50D000878
:1000E000632A0008D50D0008D50D0008D50D0008BD
:1000F000D50D0008D50D0008D50D0008D50D000858
:10010000D50D0008D50D0008D50D0008D50D000847
:10011000D50D0008D50D00086D2A0008D50D000882
:10012000D50D0008792A0008D50D0008D50D000866
:10013000D50D0008D50D0008D50D0008D50D000817
:10014000D50D0008D50D0008D50D0008D50D000807
:10015000D50D0008D50D0008D50D0008D50D0008F7
:10016000D50D0008D50D0008D50D0008D50D0008E7
:10017000D50D0008D50D0008D50D000800000000C1
:10018000D50D0008D50D0008D50D0008D50D0008C7
:10019000D50D0008D50D0008D50D0008D50D0008B7
:1001A000852A0008D50D0008912A0008D50D000801
:0401B0009D2A00087C
:1001C00010B5054C237833B9044B13B10448AFF391
:1001D00000800123237010BD4801002000000000B2
:1001E000EC48020808B5034B1BB103490348AFF3C1
:1001F000008008BD000000004C010020EC4802080F
:1002000001F0FF01102A2BDB10F0070F08D010F8C7
:10021000013B013A8B422DD010F0070F42B3F6D1CB
:10022000F0B441EA012141EA014122F007047FF0E4
:1002300000070023F0E80256083C85EA010586EA3B
:10024000010685FA47F5A3FA87F586FA47F6A5FA77
:1002500087F68EB9EED1F0BC01F0FF0102F0070283
:1002600032B110F8013B013A83EA010313B1F8D12E
:100270000020704701387047002D06BF354603380F
:10028000073815F0010F07D1013015F4807F02BF48
:10029000013015F4C03F0130F0BC0138704700BF99
:1002A00081F0004102E000BF83F0004330B54FEA27
:1002B00041044FEA430594EA050F08BF90EA020F94
:1002C0001FBF54EA000C55EA020C7FEA645C7FEA27
:1002D000655C00F0E2804FEA5454D4EB5555B8BF4A
:1002E0006D420CDD2C4480EA020281EA030382EABB
:1002F000000083EA010180EA020281EA0303362D4D
:1003000088BF30BD11F0004F4FEA01314FF4801C1F
:100310004CEA113102D0404261EB410113F0004F31
:100320004FEA03334CEA133302D0524263EB4303E8
:1003300094EA050F00F0A780A4F10104D5F1200E86
:100340000DDB02FA0EFC22FA05F2801841F10001E1
:1003500003FA0EF2801843FA05F359410EE0A5F1B5
:1003600020050EF1200E012A03FA0EFC28BF4CF0E6
:10037000020C43FA05F3C01851EBE37101F000459C
:1003800007D54FF0000EDCF1000C7EEB00006EEBA9
:100390000101B1F5801F1BD3B1F5001F0CD3490833
:1003A0005FEA30004FEA3C0C04F101044FEA44528A
:1003B00012F5800F80F09A80BCF1004F08BF5FEA11
:1003C000500C50F1000041EB045141EA050130BDF1
:1003D0005FEA4C0C404141EB0101013C28BFB1F503
:1003E000801FE9D291F0000F04BF01460020B1FA4E
:1003F00081F308BF2033A3F10B03B3F120020CDA21
:100400000C3208DD02F1140CC2F10C0201FA0CF0FE
:1004100021FA02F10CE002F11402D8BFC2F1200C63
:1004200001FA02F120FA0CFCDCBF41EA0C01904019
:10043000E41AA2BF01EB0451294330BD6FEA040462
:100440001F3C1CDA0C340EDC04F11404C4F120024D
:1004500020FA04F001FA02F340EA030021FA04F35F
:1004600045EA030130BDC4F10C04C4F1200220FAB6
:1004700002F001FA04F340EA0300294630BD21FAF4
:1004800004F0294630BD94F0000F83F4801306BFBA
:1004900081F480110134013D4EE77FEA645C18BFAE
:1004A0007FEA655C29D094EA050F08BF90EA020F45
:1004B00005D054EA000C04BF1946104630BD91EA3D
:1004C000030F1EBF0021002030BD5FEA545C05D140
:1004D0004000494128BF41F0004130BD14F580047F
:1004E0003CBF01F5801130BD01F0004545F0FE41F3
:1004F00041F470014FF0000030BD7FEA645C1ABF28
:10050000194610467FEA655C1CBF0B46024650EA5E
:10051000013406BF52EA033591EA030F41F400218A
:1005200030BD00BF90F0000F04BF0021704730B510
:100530004FF4806404F132044FF000054FF00001E5
:1005400050E700BF90F0000F04BF0021704730B5A6
:100550004FF4806404F1320410F0004548BF40427B
:100560004FF000013EE700BF42004FEAE2014FEAD0
:1005700031014FEA02701FBF12F07F4393F07F4FAB
:1005800081F06051704732F07F4208BF704793F0AE
:100590007F4F04BF41F40021704730B54FF46074C1
:1005A00001F0004521F000411CE700BF50EA0102C4
:1005B00008BF704730B54FF000050AE050EA01026D
:1005C00008BF704730B511F0004502D5404261EBDD
:1005D00041014FF4806404F132045FEA915C3FF41E
:1005E000D8AE4FF003025FEADC0C18BF03325FEABB
:1005F000DC0C18BF033202EBDC02C2F1200300FA6C
:1006000003FC20FA02F001FA03FE40EA0E0021FA90
:1006100002F11444BDE600BF70B54FF0FF0C4CF47E
:10062000E06C1CEA11541DBF1CEA135594EA0C0F30
:1006300095EA0C0F00F0DEF82C4481EA030621EA6B
:100640004C5123EA4C5350EA013518BF52EA0335A6
:1006500041F4801143F4801338D0A0FB02CE4FF058
:100660000005E1FB02E506F00042E0FB03E54FF088
:100670000006E1FB03569CF0000F18BF4EF0010E80
:10068000A4F1FF04B6F5007F64F5407404D25FEA7C
:100690004E0E6D4146EB060642EAC62141EA55512F
:1006A0004FEAC52040EA5E504FEACE2EB4F1FD0C71
:1006B00088BFBCF5E06F1ED8BEF1004F08BF5FEAEF
:1006C000500E50F1000041EB045170BD06F00046A1
:1006D00046EA010140EA020081EA0301B4EB5C044E
:1006E000C2BFD4EB0C0541EA045170BD41F4801146
:1006F0004FF0000E013C00F3AB8014F1360FDEBF6B
:10070000002001F0004170BDC4F10004203C35DA46
:100710000C341BDC04F11404C4F1200500FA05F3C9
:1007200020FA04F001FA05F240EA020001F000426A
:1007300021F0004110EBD37021FA04F642EB0601E0
:100740005EEA430E08BF20EAD37070BDC4F10C040A
:10075000C4F1200500FA04F320FA05F001FA04F2CE
:1007600040EA020001F0004110EBD37041F10001BA
:100770005EEA430E08BF20EAD37070BDC4F12005C5
:1007800000FA05F24EEA020E20FA04F301FA05F22D
:1007900043EA020321FA04F001F0004121FA04F2D5
:1007A00020EA020000EBD3705EEA430E08BF20EAA5
:1007B000D37070BD94F0000F0FD101F000464000DF
:1007C00041EB010111F4801F08BF013CF7D041EA61
:1007D000060195F0000F18BF704703F00046520065
:1007E00043EB030313F4801F08BF013DF7D043EA36
:1007F0000603704794EA0C0F0CEA135518BF95EAEC
:100800000C0F0CD050EA410618BF52EA4306D1D172
:1008100081EA030101F000414FF0000070BD50EA91
:10082000410606BF1046194652EA430619D094EA1B
:100830000C0F02D150EA013613D195EA0C0F05D105
:1008400052EA03361CBF104619460AD181EA030159
:1008500001F0004141F0FE4141F470014FF0000011
:1008600070BD41F0FE4141F4780170BD70B54FF0AC
:10087000FF0C4CF4E06C1CEA11541DBF1CEA13552C
:1008800094EA0C0F95EA0C0F00F0A7F8A4EB05040E
:1008900081EA030E52EA03354FEA013100F0888005
:1008A0004FEA03334FF0805545EA131343EA1263CE
:1008B0004FEA022245EA111545EA10654FEA002683
:1008C0000EF000419D4208BF964244F1FD0404F53C
:1008D000407402D25B084FEA3202B61A65EB030598
:1008E0005B084FEA32024FF480104FF4002CB6EB55
:1008F000020E75EB030E22BFB61A754640EA0C00D5
:100900005B084FEA3202B6EB020E75EB030E22BF14
:10091000B61A754640EA5C005B084FEA3202B6EB55
:10092000020E75EB030E22BFB61A754640EA9C0014
:100930005B084FEA3202B6EB020E75EB030E22BFE4
:10094000B61A754640EADC0055EA060E18D04FEAA2
:10095000051545EA16754FEA06164FEAC30343EA42
:1009600052734FEAC2025FEA1C1CC0D111F4801F0F
:100970000BD141EA00014FF000004FF0004CB6E708
:1009800011F4801F04BF01430020B4F1FD0C88BFA7
:10099000BCF5E06F3FF6AFAEB5EB030C04BFB6EBB2
:1009A000020C5FEA500C50F1000041EB045170BDA5
:1009B0000EF0004E4EEA113114EB5C04C2BFD4EBD2
:1009C0000C0541EA045170BD41F480114FF0000E56
:1009D000013C90E645EA060E8DE60CEA135594EAD2
:1009E0000C0F08BF95EA0C0F3FF43BAF94EA0C0FD5
:1009F0000AD150EA01347FF434AF95EA0C0F7FF44A
:100A000025AF104619462CE795EA0C0F06D152EA9D
:100A100003353FF4FDAE1046194622E750EA410681
:100A200018BF52EA43067FF4C5AE50EA41047FF492
:100A30000DAF52EA43057FF4EBAE12E74FEA4102F5
:100A400012F5001215D211D56FF47873B3EB625220
:100A500012D94FEAC12343F0004343EA505311F047
:100A6000004F23FA02F018BF404270474FF00000D9
:100A7000704750EA013005D111F0004008BF6FF017
:100A8000004070474FF00000704700BF53B94AB9AB
:100A9000002908BF00281CBF4FF0FF314FF0FF3086
:100AA00000F06EB9ADF1080C6DE904CE00F006F867
:100AB000DDF804E0DDE9022304B070472DE9F047DA
:100AC000089D04468C46002B40F083808A421746DE
:100AD00047D9B2FA82F242B1C2F1200024FA00F002
:100AE0009140974040EA010C94404FEA1748230C8C
:100AF000BCFBF8F61FFA87FE08FB16C143EA014368
:100B000006FB0EF1994209D9FB1806F1FF3080F07F
:100B10001981994240F21681023E3B445B1AA4B20D
:100B2000B3FBF8F008FB103344EA034400FB0EFE6D
:100B3000A64509D93C1900F1FF3380F00581A6458F
:100B400040F2028102383C4440EA0640A4EB0E0425
:100B500000261DB1D4400023C5E900433146BDE85D
:100B6000F08702B9FFDEB2FA82F2002A50D1CB1B25
:100B70004FEA174E1FFA87F80126B3FBFEFC210C43
:100B80000EFB1C3341EA034108FB0CF38B4207D9EF
:100B900079180CF1FF3002D28B4200F2E9808446D2
:100BA000C91AA3B2B1FBFEF00EFB101143EA0144D7
:100BB00008FB00F8A04507D93C1900F1FF3302D229
:100BC000A04500F2D9801846A4EB080440EA0C4086
:100BD000BFE78B4209D9002D00F0B1800026C5E99E
:100BE000000130463146BDE8F087B3FA83F6002EA7
:100BF0004AD18B4202D3824200F2B880841A61EB60
:100C0000030101208C46002DA8D0C5E9004CA5E7C2
:100C1000C2F1200320FA03F6974001FA02F04FEAEE
:100C2000174ED9403043030CB1FBFEF61FFA87F88C
:100C30000EFB161143EA014306FB08F1994204FA40
:100C400002F409D9FB1806F1FF3C80F08D8099422F
:100C500040F28A80023E3B445B1A81B2B3FBFEF055
:100C60000EFB103341EA034100FB08F38B4207D926
:100C7000791800F1FF3C73D28B4271D902383944A4
:100C8000CB1A40EA064678E7C6F1200C03FA06F4D0
:100C900022FA0CF31C4320FA0CF701FA06F34FEA90
:100CA000144E21FA0CF11F433B0CB1FBFEF91FFA65
:100CB00084F80EFB191143EA014109FB08FA8A4541
:100CC00002FA06F200FA06F308D9611809F1FF30BA
:100CD00048D28A4546D9A9F102092144A1EB0A016B
:100CE000BFB2B1FBFEF00EFB101147EA014700FB5B
:100CF00008F8B84507D9E71900F1FF312ED2B845F9
:100D00002CD90238274440EA0940A7EB0807A0FB8A
:100D100002894F45C64649461AD317D05DB1B3EB99
:100D20000E0267EB010707FA0CFCF2404CEA0202E4
:100D3000F740C5E9002700263146BDE8F0872E467A
:100D400028460BE70646E9E61846FDE64345E5D2A8
:100D5000B8EB020E69EB04010138DFE70846D2E781
:100D600060468DE78146B9E7664675E730464AE753
:100D7000ACF1020C394413E702383C4424E700BFCD
:100D8000704700BFDFF834D0002103E00C4B5B5804
:100D9000435004310B480C4B42189A42F6D30B4A8D
:100DA00002E0002342F8043B094B9A42F9D305F0D4
:100DB0006BFA22F06BFD01F067F870470000052028
:100DC000A4950208000000204801002048010020EE
:100DD00014E00020FEE700F0EFBD00F05BBE002154
:100DE000084604F0B9BD002004F0F0BD406870472B
:100DF00041607047054A136843F080731360044AEA
:100E0000136843F001031360704700BFFCED00E07E
:100E1000001000E0511A01EB5301B1FBF3F07047F1
:100E2000014B1868704700BF041000E0704710B510
:100E30000C21044621F0C1FE204610BD036810B508
:100E40001B69044631B19847A26863689B1A18442D
:100E5000606010BD9847A060FBE7704770470000D6
:100E600008B5FFF7BCFF024B00221A6008BD00BFA7
:100E70006401002070B50D46FFF7B5FF0B4A93786B
:100E800056781178D370C4B213F001009670517087
:100E900014700AD016F0010007D011F0010004D040
:100EA000E3075ABF01202870002070BD64010020B4
:100EB00010B50421044621F080FE204610BD704785
:100EC00010B50421044621F078FE204610BD000034
:100ED00008B54FF4F0714FF4487005F021F9074B55
:100EE00010B901221A7008BD1B78002BFBD1044BEE
:100EF000044A0548242122F07FFC00BF680100203D
:100F000090490208A3490208CD4902087FB50B4B5E
:100F10001C780E4615465CB101A805F03FF99DF816
:100F2000043043B1BDF806303360BDF80A302B60A1
:100F3000204604B070BD1C46FAE700BF68010020DF
:100F400010B1012809D07047084B09481A68B2FA55
:100F500082F25209402106F0B1BA044B05485A68A2
:100F6000B2FA82F252091021F5E700BF6C010020AD
:100F700000180240000C024010B1012809D070474F
:100F8000084B09481A68003A18BF0122402106F0B0
:100F900095BA044B05485A68003A18BF012210213F
:100FA000F5E700BF6C01002000180240000C024071
:100FB00010B1012804D070470348402106F083BADD
:100FC00002481021FAE700BF00180240000C02405E
:100FD00008B530B1012809D00020431E58425841BD
:100FE00008BD0448402106F063FAF6E702481021E4
:100FF000F9E700BF00180240000C024070B5084D30
:1010000000240126E0B2FFF7E3FF18B12B68012BA3
:1010100018BF2E600134052C05F10405F2D170BD16
:101020006C010020012380F8741080F8753070473F
:101030000020704700207047836B0BB108461847AB
:1010400070474FF6FF707047406803689B69184708
:1010500070477047014B1868704700BF7C01002043
:101060007047000038B50446094DFFF7C7FF20461A
:1010700000F092FD002384F84A302846FFF7BAFEBC
:10108000012384F86C30034B2561636138BD00BFD8
:1010900088010020840100200368044607B59B6F87
:1010A0009847236820461B6F984700F017FA23687B
:1010B00020469B6E9847002106480091292315225F
:1010C00005F0E5FF00F00AFA236820469B6E98477A
:1010D000F8E700BF5CDD002010B504460CF020FAF4
:1010E00023682046D3F8A030BDE81040184700F030
:1010F00052BD00F069BD00F069BD00F03BBD00F0DD
:1011000041BD00F065BD0000024B00221A700BF0DB
:10111000F9BB00BF1400002010B504460BF0FEFB25
:1011200094F84B3013B1024B01221A7010BD00BF6E
:10113000140000200BF0ACBB10B57C21044621F05C
:101140003CFD204610BD90F877301BB14068036825
:101150001B6818471846704730B590F8341090F85F
:101160007440104B8C421A780DD05AB90E4A0F4970
:101170000F4814880F4D0C8001881180298004804D
:1011800001221A7030BD002AFCD00948074A0188A4
:101190001180054A074D14882C801180048000229C
:1011A000EFE700BFD8D90020D4D90020DAD9002039
:1011B000D6D90020DCD9002010B50C4C216031B903
:1011C0000B4B0C4A0C484FF4257122F015FBC0E97B
:1011D0000F12003A0949436418BF01220A70003B0C
:1011E000074A18BF0123137010BD00BF7C01002007
:1011F0002C4A0208644A0208B24A0208DED90020DA
:10120000DFD90020012807B50AD84B7800930B7866
:1012100008481522002105F03AFF03B05DF804FBF1
:1012200001910B5C0093392203460021014805F02F
:101230003FFFF2E75CDD002037B50B4A0B4C022381
:101240001525137055700192442200920021392215
:10125000204605F02DFF0021009135232A46204627
:1012600005F015FF03B030BD940100205CDD0020C7
:1012700007B50190FFF7E0FF019803B05DF804EBBC
:1012800000F088BC07B5074B03EB80002A230190D0
:101290000093392204230021034805F009FF03B01D
:1012A0005DF804FB040000205CDD002070B5154DE6
:1012B00004460020FFF744FE2A6892F866300133A6
:1012C00082F8663000F0FEF80F4B28681A781B7819
:1012D00080F84A2023B10D4D2B7803F0FF0623B18F
:1012E000BDE870400020FFF747BE0CF019F9084B2D
:1012F00030461E60FFF7C6FF204605F0B8FE01230A
:101300002B7070BDE0D90020140000209601002051
:1013100080010020304B314A70B505461868304CCA
:10132000013018602F4B03281E682ADCD4F80414FF
:101330004FF4C87303FB006321F00801C4F80414E0
:1013400093620CBFE823C823023327491B0443F4EC
:10135000F1730B61254B4B61A3F5F0735360244B84
:10136000D36201234B62FFF78DFF1D4AD2F804348C
:1013700043F008032846C2F80434BDE8704005F085
:1013800076BED4F804341B4923F00803C4F80434AF
:10139000154B9662196101F10111596116495160AD
:1013A0001349D16201225A620020FFF76BFFD4F883
:1013B000043443F00803C4F804340020FFF7DCFDD4
:1013C0000E4B00221A700E4B186820B10368BDE85E
:1013D0007040DB69184770BD8001002084680140BF
:1013E000006C01407C01002000680140E301CA005C
:1013F00093018006E201CA000300CA0096010020A2
:10140000E0D9002008B5044B0146186801B101215C
:101410000CF0A0F8012008BDE0D90020054B0648DB
:1014200000225A609A60054A1A60054B0360FFF774
:1014300017BD00BF88010020840100205449020824
:101440007C490208012108B50022084608F0D9FAB3
:101450000A4B186028B90A4B0A4A27210A4822F089
:10146000CBF900220421012008F06AFB074B186029
:1014700018B9074B034A2B21F0E708BD9C01002057
:10148000C44B02080D4C02083C4C02089801002095
:10149000834C0208024B4FF0FF31186808F0FCBA89
:1014A0009C010020014B186808F022BB9C01002021
:1014B000024B0021186808F0EFBA00BF9C01002021
:1014C000FFF7F0BF03480449006800231A4608F0FC
:1014D00073BB00BF980100201800002013B5084C12
:1014E00000231A4601A9206808F096FB20684FF0F7
:1014F000FF33002201A908F08FFB02B010BD00BF2E
:101500009801002008F00CBA03685B6C18470120B2
:10151000704703689B6A184782B0002301930D4B04
:101520001A6B42F400021A631A6B02F40002019271
:10153000019A1A6942F400021A611A6922F400023F
:101540001A61054B054A1A61054B4FF080629A609B
:1015500002B07047003802406CDE00206D150008B4
:1015600000E100E040F2EF3070470000024B1B68E2
:10157000586803685B691847E0D9002008B50B2854
:101580000BD8DFE800F01206100A0A0A0A08080859
:101590000808012008BD0520FCE7054B054A064860
:1015A000652122F029F90020F4E70220F2E700BFCC
:1015B000C54C0208E04C02082C4D020808B50A2868
:1015C00009D8DFE800F010060E080808080606062D
:1015D0000600012008BD054B054A0648862122F079
:1015E0000BF90020F6E70220F4E700BFC54C020823
:1015F000714D02082C4D02082DE9F84391F81D8029
:101600000C464046FFF7BAFFA77F05463846FFF76E
:10161000B5FF06463846FFF7D1FFA18A628B534BD0
:10162000521A1A649A61228B521A1A61E28A58631A
:1016300042EA01425A6421696268D963DA60D4F8E7
:1016400000C094F81C90BCF1800F4FEA09629E46DE
:101650003BD015D8BCF1200F45EA020079D0BCF18F
:10166000400F76D0BCF1040F2BD0404B2A4342F4FC
:101670000032B845DA6114BF3D4A40F201221EE053
:10168000BCF5807F07D0BCF5007FEED142F400327C
:1016900042F0090203E042F4003242F00A02DA6149
:1016A000E0680202440102F4780204F47C44C000C1
:1016B0002243C0B202431A622E4A5E6259611A6026
:1016C00043E040F40030D861F6E7A0682A4342F4D2
:1016D0000032041DDC62DA6102785E62596142B157
:1016E000012A1CD0244B254A25484FF4887122F04A
:1016F00083F84288D969501E21F47F4222F01002FB
:1017000042EA0022DA610125184CE36943F0200324
:10171000E361E3699B0613D5FFF7F4FEF9E742881E
:10172000D969501E21F47F4222F0100242EA0022C1
:10173000B9F1FF0542F0100218BF0125DA61E3E7B5
:101740001023A3601DB10B4B2360BDE8F883084B49
:10175000FAE7084B40F40030CEF81C00CEF82460C5
:10176000CEF81410CEF80030EFE700BF00B0024012
:101770000102010001020200BE4D0208D84D02081C
:101780002C4D0208F8B58E7F0C463046FFF716FF49
:10179000A78AE18A628B1E4B2569586341EA07419B
:1017A000D21B5964DD631A642168082918D19A6133
:1017B0001A615862217F174A42EA0162DA61E168E0
:1017C0000A02480102F4780200F47C40C900024396
:1017D000C9B20A431A62104A5D61DD601A60F8BD41
:1017E0000022D8611A61E1681EB99963084B0B4A5F
:1017F000F4E70A02480102F4780200F47C40C900D0
:10180000C9B202430A43217F42EA01629A63EDE7CB
:1018100000B00240090001000102020001020300C1
:10182000054B0360054B4FF08062C3F88820BFF37F
:101830004F8FBFF36F8F7047204E020800E100E02A
:1018400010B50446FFF7ECFF20464FF4426121F04B
:10185000B4F9204610BD000070B5044625460A4B79
:101860000C30002660602672667245F8203B6022CC
:1018700029460BF0A7FF04F54263EE602035AB422A
:10188000FBD1204670BD00BF204E020801207047EA
:101890000C2070470C2303FB0100083070470C2319
:1018A00003FB0100083070470120704743F67410B5
:1018B000704743F6741303FB01000830704743F68A
:1018C000741303FB0100083070470120704710209B
:1018D000704700EB01100830704700EB0110083032
:1018E0007047084602F0B4BB10B5034B03600446D2
:1018F0000AF026FA204610BDD84E020810B504465C
:10190000FFF7F2FF2046142121F057F9204610BDC1
:1019100010B5034B036004460AF012FA204610BDCE
:10192000A44E020810B50446FFF7F2FF204643F626
:101930007C1121F042F9204610BD000010B5034B88
:10194000036004460AF0FCF9204610BD704E020800
:1019500010B50446FFF7F2FF2046182121F02DF9BB
:10196000204610BD10B5094B0360044600F56650D3
:101970002830FFF7B9FF04F12C00FFF7C9FF04F18D
:101980001400FFF7DBFF204610BD00BF0C4F02081C
:1019900008B50248FFF7E6FF08BD00BFA40100201C
:1019A00010B50446FFF7DEFF204643F6183121F05C
:1019B00004F9204610BD00002DE9F34101F0EAF8DA
:1019C000054601F0EBF8002401462346284622464E
:1019D000009412F00FFF234B234A244D1A60204637
:1019E00002F0BAFE224812F047FE2B78BFF35B8F5D
:1019F000DB0731D4284621F0E2F868B31D4C1E4FB6
:101A00001E4B236004F5675604F1140004F12C0802
:101A10006060C4F80880E76026610AF093F9184B0B
:101A2000636140460AF08EF9164BE36238460AF0CD
:101A300089F9154B3B60301F03F0CEFA2246311F67
:101A4000304603F0BFFA304602F002FB284621F090
:101A5000C2F80E4821F0EEFE0D4802B0BDE8F0419C
:101A6000FFF700BB5CDA00205C490020A0010020E9
:101A70001C000020A40100204C3B00200C4F020859
:101A8000704E0208A44E0208D84E020891190008B0
:101A9000E04800200148FFF7FFBA00BFE0480020FF
:101AA00070B5244C244E254B254D23603046FFF75E
:101AB000D3FE284615F022FF224B00224FF48071FE
:101AC000C3E912122049DC60C3E919124FF080719A
:101AD0005967012183F878101C491D4C0B601D4982
:101AE0001A854FF4507008804FF4F071C3E9042256
:101AF000C3E90622C3E90822C3E90E22C3E9102282
:101B0000C3E91422C3E9162283F82A20DA621A866E
:101B10001A6683F86C201A67C3E9016521800E4CB0
:101B200083F8342022700D4C0D4A20800D481A6035
:101B3000018070BDBC3C0020C03C00201C4A020853
:101B400060490020E048002001000001E0D90020A9
:101B5000D6D90020D4D90020D8D90020DAD9002045
:101B6000004B0208DCD900200148FFF759BE00BF36
:101B7000C03C0020024B902283F85A23704700BFDC
:101B800000E100E0024B4FF080629A60704700BFB6
:101B900000E100E07047704738B504460AF0CBFE1C
:101BA0002368DD6D0FF0BEFC01462046A847236880
:101BB000D3F8805000231A464FF040412046A847F2
:101BC000012384F84A3038BD0AF068BE0AF0C1BF6C
:101BD000044B4FF08062C3F88820BFF34F8FBFF3F0
:101BE0006F8F704700E100E00149002009F054BB0D
:101BF000051400082DE9F04F654B85B018684FF4C7
:101C00007A7107F0E7FE634B1A889B788DF80A30EB
:101C100000244023ADF808200393ADF806400125C9
:101C2000A0465D48DFF88CB1DFF88CA1DFF88C911D
:101C30005A4F5B4E032202A907F01EFD9DF80830A3
:101C4000623B152B00F29B80DFE803F093879999A4
:101C5000999999999999998D99999999130B6C7367
:101C60007A810023DBF800001A460DF1090108F023
:101C700087FC72238DF8083000231A4603A9DBF88D
:101C8000000008F07DFC00231A4603A9DAF80000E2
:101C900008F076FC00231A4603A9D9F8000008F0E2
:101CA0006FFC404800231A4603A9006808F068FC4E
:101CB00000231A4603A9386808F062FC00231A467C
:101CC00003A9306808F05CFC374800231A4603A9D2
:101CD000006808F055FC354800231A4603A900683F
:101CE00008F04EFC9DF80C30314843F4C243ADF887
:101CF0000630002300681A460DF1060108F040FC8A
:101D0000642C8DF8088007D9039B2B440393013B77
:101D1000762B88BF6D42002401340120A4B207F065
:101D200011FE7EE70023DAF800001A460DF10901E2
:101D30009DE70023D9F800001A460DF1090196E746
:101D4000002318481A460DF1090100688FE70023A7
:101D500038681A460DF1090189E7002330681A46F0
:101D60000DF1090183E700230F481A460DF109011F
:101D7000EBE700230D481A460DF10901E5E70023C2
:101D80000B48ADF806801A460DF10601DDE700BFED
:101D900024DE0020184F020828DE0020104B00200F
:101DA000144B00200C4B0020184B0020F04A002060
:101DB000F84A0020004B0020044B0020084B002074
:101DC00010B50648082105F07EFB05480549006866
:101DD0000023BDE810401A4608F0D2BB002802409C
:101DE000FC4A0020D849002030B595B010220021CF
:101DF00009A821F08DFD1422002102A821F088FD00
:101E000000241F4B00941A6C42F080521A641B6C21
:101E100003F080530093009B1A4B01941A6842F41C
:101E200040421A601B6803F4404301930122019B66
:101E30004FF48033CDE9072302254FF480030821B6
:101E4000CDE90D534FF4B473CDE90F1304200623ED
:101E5000CDE9120307A8119506F0FEFE06F03EF943
:101E60000F23CDE9023504944FF480534FF4A0546E
:101E7000052102A8CDE9054306F0B2FC15B030BD3E
:101E800000380240007000402DE98048BBB00024BB
:101E9000C74D04F007FAFFF7A7FF142200212DA871
:101EA00021F036FD03942B6BC24843F040032B63B3
:101EB0002B6B03F040030393039B04942B6B43F0C1
:101EC00010032B632B6B03F010030493049B059406
:101ED0002B6B43F002032B632B6B03F00203059380
:101EE000059B06942B6B43F008032B632B6B03F0CD
:101EF00008030693069B07942B6B43F480732B63B4
:101F00002B6B03F480730793079B08942B6B43F0B0
:101F100020032B632B6B03F020030893089B099489
:101F20002B6B43F480632B632B6B03F48063099367
:101F3000099B0A942B6B43F080032B632B6B03F0FC
:101F400080030A930A9B0B942B6B43F004032B63CF
:101F50002B6B03F004030B930B9B0C942B6B43F044
:101F600001032B632B6B03F001030C930C9B0D946B
:101F70002B6B43F400732B632B6B03F40073012270
:101F800008210D930D9B05F099FA8B4822461021EC
:101F900005F094FA89482246402105F08FFA22463E
:101FA000874880214FF0020905F088FA4FF4005B62
:101FB0004FF444138148CDF8BC902DA9CDE92DB341
:101FC000112605F0EDF808237A482DA94FF00108F5
:101FD000CDE92D364FF0100ACDE92F4405F0E0F899
:101FE00075482DA9CDE92DA8CDE92F4905F0D8F8E0
:101FF000402372482DA9CDE92D38CDE92F4905F0B0
:10200000CFF84FF488126F48CDF8B4802DA98027FF
:10201000CDE92E2405F0C4F80323694830932DA997
:10202000CDE92D762F9405F0BBF822460521062038
:1020300004F08AF9062004F0B9F905212246282087
:1020400004F082F9282004F0B1F95F485F4B604E3C
:10205000036004F0CDF95F4AC6E90A44C6E90C44BE
:102060003046C6E90024C6E9024404F0CDFB4146EF
:10207000304604F081FC39462246514805F01EFAEC
:10208000142004F03BF9394642464D4805F016FA53
:102090000A2004F033F92422214617A821F038FC45
:1020A0001822214611A821F033FC342221462DA804
:1020B00021F02EFC2C2221460DEB070021F028FCFC
:1020C000454F464B10940426C7E900340EA97D23E2
:1020D0003846C7E90268CDE90E3904F015FD17A9A5
:1020E0003846CDE91784CDE91944CDE91B44CDE943
:1020F0001D441F9404F032FF1C222123CDE911233B
:102100000F211923CDE91313384611A9CDE9154440
:1021100004F0E7FE3146384604F0D2FE42F2107178
:10212000384605F026F82146384604F08AFC4FF47C
:1021300080704FF400734FF4806CCDE92D034FF4A1
:1021400000634FF4804ECDE92FC34FF480524FF41B
:102150008033CDE933E3CDE9312B4FF480234FF4C5
:10216000003B4FF40022CDE935B32DA94FF0807329
:102170003846CDE93723CDF8E49004F06DFEC8234E
:1021800020A93846CDE9223ACDE92446CDE92044BC
:10219000CDE92694CDE92844CDF8A88004F0EAFDE5
:1021A0002146384604F0D5FD0D480E4904621BE077
:1021B0000038024000280240000C02400018024093
:1021C000001C02400000024054DD002000300240AC
:1021D0006CDE002000B002405CDD0020006C01409D
:1021E000ACDE0020400100A0C0E900144023202103
:1021F000C0E904134FF4C0714FF48052C0E90614D3
:102200004FF480430721C0E90923CDE92E160323AB
:1022100030912DA9CDE93139C0E90246CDF8B4900D
:10222000CDF8CC9006F0CEFE03F064FF03F014FF6F
:102230003422214620A821F06BFB684E684AB48600
:10224000C6E90024CA214FF4F172C6E90912CB2075
:1022500040F2E312C6E90B023046C6E90244C6E981
:102260000448C6E90689C6F8209086F8364005F08D
:10227000FFFDFF21CDE925144FF0050B4FF48061E0
:10228000C8234FF4F072CDE9271B4FF04041CDE950
:102290002913CDE9232920A92B9230462246CDE9E6
:1022A00021342094ADF8B0408DF8B24005F0ACFE7A
:1022B0003268936923F001039361384604F0B4FE59
:1022C0004146484603F08AF828231522214638461D
:1022D000009404F0DCFE2DA93846CDE92D44CDE96B
:1022E0002F44CDE93144CDE93344CDE93544379429
:1022F00004F0B2FD4FF448712246304605F0B2FEBC
:10230000326838489369384F43EA08039361374B82
:102310000462C0E900381B264FF48063C0E90463FF
:10232000C0E9028A324EC0E9064405F0EFFF03F02F
:1023300059FD03F08DFC03F003FC2E4B3462C6E91B
:10234000007330464FF48043C6E90434C6E90244C2
:10235000C6E9064405F0A8FA304605F04DFB2D9479
:102360002B6B43F480032B632B6B03F48003224617
:1023700059462D9339202D9B03F0E6FF392004F0B8
:1023800015F8DFF89CC01C484FF4E133C0E900C3E6
:102390000C23C0E90534C0E902440461C46107F0BC
:1023A00069F8FEF718FD07F045FA144B1448224669
:1023B000414607F0D3FA134B134A186021461348DD
:1023C00007F064FA124B134A18602146124807F0CE
:1023D0005DFA124B186007F03FFAFEE778DD002047
:1023E00000680140E0DE002000540040001000A022
:1023F00000DD0020801A060028DE0020884F020839
:10240000C11D000824DE0020644F0208F51B0008EF
:102410009CDC0020404F0208DB0D000820DE00207D
:1024200000140140012810B502D0B0F5005F0CD1B6
:102430000648082105F047F80548064900680023CA
:10244000BDE810401A4608F04DB910BD0028024002
:10245000F44A0020D84900200268034B9A4201D177
:1024600003F03ABF704700BF001000407047000003
:1024700082B00E4B00220092596C41F480415964A5
:10248000596C01F48041009100990192196C41F05E
:10249000805119641B6C03F080530193019B0F2141
:1024A0006FF0010002B003F04FBF00BF00380240E0
:1024B0000268094B9A4282B00BD100230193074B6B
:1024C0001A6B42F480521A631B6B03F4805301931E
:1024D000019B02B0704700BF00300240003802404C
:1024E00007B50F4B02689A4216D10022A3F5F043BC
:1024F0000192196B41F4000119631B6B03F4000393
:10250000019305215A20019B03F01EFF5A2003B0BE
:102510005DF804EB03F04ABF03B05DF804FB00BFB5
:1025200000B0024010B5044688B01422002103A870
:1025300021F0EEF92268184B9A422AD103F54C4358
:10254000002401945A6C154842F000625A645A6C97
:1025500002F000620192019A02941A6B42F4007236
:102560001A631B6B03F4007302930422029B022381
:10257000CDE9032303A90D230793CDE9054404F016
:102580000FFE5C202246052103F0DEFE5C2003F0F6
:102590000DFF08B010BD00BF006C014000240240D8
:1025A00030B5044689B01422002103A821F0B0F907
:1025B00022681A4B9A422FD1194C1A4800250195CE
:1025C000236B43F002032363236B03F002030193A5
:1025D000019B4FF440721223CDE903230121032311
:1025E000CDE90513042303A9079304F0D9FD02954F
:1025F000236C43F400132364236C03F4001302934D
:10260000029B236A43F400132362236A23F400131A
:102610002362642003F072FE09B030BD0054004014
:10262000003802400004024008B502680A4B9A4292
:1026300010D10A4A0A48136C23F4001313644FF4B0
:10264000807104F093FEBDE8084005484FF4007126
:1026500004F08CBE08BD00BF0054004000380240AA
:102660000004024010B5044690B03C22002101A8AD
:1026700021F04EF92268134B9A4221D1082301938D
:102680004FF4B47305930024062301A808930B9418
:1026900006F080F908B1FFF7E9FE0B4B00945A6C85
:1026A00042F080625A645B6C03F0806300935820B0
:1026B00000220521009B03F047FE582003F076FE20
:1026C00010B010BD0068014000380240F0B504466B
:1026D00089B01422002103A821F01AF92268244BA2
:1026E0009A4243D1234B2448002400949A6B42F031
:1026F00002029A639A6B02F002020092009A01941D
:102700001A6B42F002021A631A6B02F00202019283
:10271000019A02941A6B42F020021A631B6B059413
:1027200003F02003029302260325029B0A2740237D
:1027300003A9CDE90336CDE9065704F031FD4FF486
:102740009863CDE903360D48092303A90793CDE922
:10275000054504F025FD4FF440730848079703A989
:10276000CDE90336CDE9054504F01AFD09B0F0BD09
:10277000001000A000380240000402400014024093
:1027800008B50268094B9A420FD1094A0948936B70
:1027900023F002039363402104F0E8FDBDE8084004
:1027A00005484FF4F86104F0E1BD08BD001000A039
:1027B00000380240000402400014024070B5064692
:1027C00088B01422002103A821F0A2F83268214B1E
:1027D0009A423CD1002503F5923301955A6C1E486C
:1027E0001E4C42F020025A645A6C02F02002019200
:1027F000019A02951A6B42F040021A631B6B059511
:1028000003F040030293029B4FF484420223CDE97C
:10281000032303210823CDE9061303A904F0C0FC18
:102820000F484FF02063C4E900034FF48063204653
:10283000C4E90255C4E90435C4E90655C4E908559C
:1028400003F0FCFD08B1FFF711FEB463A66308B006
:1028500070BD00BF0014014000180240A0DC002041
:1028600028640240F0B5314B1C6887B0002C5BD166
:1028700001221A602E4B00949A6B2E4842F00102FE
:102880009A639B6B039403F00103009302270326D2
:102890000C25009B01A94FF68373CDE90137CDE9E3
:1028A000046504F07DFC48F233132348059501A923
:1028B000CDE90137CDE9034604F072FC4CF2037315
:1028C0001E48059501A9CDE90137CDE9034604F07D
:1028D00067FC40F2FF631A48059501A9CDE901376D
:1028E000CDE9034604F05CFC4FF63F03154805951F
:1028F00001A9CDE90137CDE9034604F051FC4FF4BD
:102900007F431148059501A9CDE90137CDE903467B
:1029100004F046FC0D230D48059501A9CDE90137CA
:10292000CDE9034604F03CFC07B0F0BDE0490020CF
:10293000003802400010024000180240000C024023
:102940000020024000140240001C02400008024027
:1029500008B5174B1A6852BB01221A60154A16486F
:10296000936B23F0010393634FF6837104F0FEFC35
:10297000124848F2331104F0F9FC11484CF203718B
:1029800004F0F4FC0F4840F2FF6104F0EFFC0E4845
:102990004FF63F0104F0EAFC0C484FF47F4104F08D
:1029A000E5FCBDE808400A480D2104F0DFBC08BD85
:1029B000DC490020003802400010024000180240AC
:1029C000000C02400020024000140240001C0240A3
:1029D0000008024030B5014689B00022362003F0DD
:1029E000B3FC362003F0E2FC0025154B02951A6C6F
:1029F000144C42F010021A641B6C03F01003029393
:102A000001A903A8029B05F0A7FF05F085FF0E4B67
:102A1000236040F2E733E36040000C4BB0FBF3F07F
:102A20000138606020462561A56006F069FC20B988
:102A3000204606F01FFB09B030BD0120FBE700BFB8
:102A4000003802402CDF00200010004040420F0000
:102A50007047FEE7FEE7FEE7FEE77047012004F05F
:102A60003BBD4FF4005004F037BD0000014806F0B4
:102A70003FBB00BF2CDF0020014803F007BE00BFB2
:102A8000A0DC0020014805F062BA00BF78DD00201C
:102A9000014803F0E7BE00BF6CDE0020014804F0EF
:102AA000E6B800BF5CDD00200120704708B520F0CB
:102AB000D5FE162303604FF0FF3008BD08B520F0A7
:102AC000CDFE16230360FEE770B50E4614460025C2
:102AD000A54201DB204670BDAFF300807055013583
:102AE000F6E770B50E4614460025A54201DB2046E8
:102AF00070BD705DAFF300800135F6E74FF0FF3039
:102B000070474FF400534B6000207047012070471E
:102B10000020704708B50A4B1968024609B90949EF
:102B200019601868694602448A4206D920F096FE68
:102B30000C2303604FF0FF3008BD1A60FCE700BFB4
:102B4000E449002018E00020704710B50421044635
:102B500020F033F8204610BD08B5042918D8DFE866
:102B600001F003070B0F130001F042FE006808BDDF
:102B700001F03EFE4068FAE701F03AFE8068F6E7B1
:102B800001F036FEC068F2E701F032FE0069EEE7C0
:102B90000020ECE700487047AC4F02080B2070475C
:102BA00013B5002451B1036801948DF8034001AAC4
:102BB0009C680DF10303A04702B010BD0846FBE777
:102BC0004089704780897047808870478379808802
:102BD000184480B27047C07900F07F007047C07918
:102BE000C00970470020704781807047C1807047DE
:102BF0000181704741817047704770477047704747
:102C0000704710B4C4880368121B84881B6D091BAD
:102C100012B25DF8044B09B218474FF6FF73838177
:102C20004FF0FF3303621368C36110607047704751
:102C3000704770477047704790F825201AB190F898
:102C4000242002B118607047704770477047704782
:102C50007047704730B4C26844685510034604EBAF
:102C60006200D20748BF62599B6830BC48BFD35846
:102C7000184743682BB183682BB9C06800F0010086
:102C80007047184670470120704710B50821044668
:102C90001FF093FF204610BD10B5102104461FF011
:102CA0008CFF204610BD10B543F6741104461FF08A
:102CB00084FF204610BD08B529B90EF033FCBDE8ED
:102CC000084001F0D5B908BD00F53F72914210B53A
:102CD00005D10EF027FCBDE8104001F0C9B900F5A0
:102CE0005172914204D103681B6BBDE81040184734
:102CF00000F56372914202D10368DB6AF5E710BD0B
:102D000070B503680446DB6A154698472368294670
:102D100020461B6BBDE87040184770B504461D4641
:102D2000BDF91060FFF7ECFF2368294620465B6B76
:102D300098472368314620469B6BBDE87040184792
:102D4000094A02604FF4807100228184FF21C0E9AA
:102D50000122C0E90322C0E90522C0E9072280F868
:102D600026108262704700BF1072020870B5FF2201
:102D7000134E0272134A0260326892F876100023F2
:102D8000C0E903330446436009B1D06C00B99068D0
:102D900003685B6A98473368B0FA80F5D86C6D09B0
:102DA00028B103685B6A9847002808BF01252DB940
:102DB000054B064A06482C2120F01EFD204670BD1A
:102DC000E0D900205C6D020888500208E650020835
:102DD0001F5102084FF4807181840B4901600B4937
:102DE00081624FF6FF71002281854FF47F01C0E9B7
:102DF0000122C0E90322C0E90522C0E907220263DB
:102E000041630287704700BF687102089852020848
:102E100073B5018F4FF6FF739942064633D01C4BB2
:102E20001B682BB91B4B1C4AAE211C4820F0E4FC4C
:102E30001B4A12888A4203D81A4B174AAF21F4E77B
:102E400013F81120184B1B6853F82250174B1868C1
:102E500001F0BEFC2B68019001469B6A284698470A
:102E60002B6801991B6C0446284698472B680199EA
:102E70005B6A14FB00F428469847E4B2044486F8E1
:102E8000454002B070BD002380F84530F9E700BF2F
:102E900050DA002081510208C3510208F1510208A2
:102EA00054DA00203852020858DA00205CDA002098
:102EB0002DE9F04F2DED108B044689B00FF004FF83
:102EC00022460025E74BE56342F8403B104609EEF9
:102ED000102AFFF735FF04F16C0318460DEE103A87
:102EE000FFF72EFF04F19803184609EE903A0AF016
:102EF00019FE04F1E4031846DFF89C830393FFF7FF
:102F000035FF04F1FC03184604F5A477C4F8E48007
:102F1000C4F8F8500AEE103A0AF004FE3846FFF7FB
:102F200025FF04F5B073C4F848811846C4F85C5115
:102F300008EE103A0BF092FB04F5EA731846029380
:102F4000FFF714FF04F5F673C4F8D4811846C4F8EB
:102F5000E85108EE903A0BF081FB04F5187318461F
:102F60000FEE903AFFF702FF04F51E73C4F860827B
:102F70001846C4F874520AEE903AFFF72BFFBA4B8A
:102F8000C4F8783204F52E731846C4F8B4520BEE28
:102F9000103AFFF71FFFB54BC4F8B83204F53F7382
:102FA0001846C4E9BD550BEE903A0CF053FD04F5FC
:102FB000517318460CEE103A0CF04CFD04F5637397
:102FC000184604F5757B0CEE903A0CF043FD58461C
:102FD00009F094F804F5A163184604F5A46A0FEE0D
:102FE000103AFFF7C3FEC4F80885C4F81C555046D4
:102FF0000BF09CFF04F5D863184604F5DB690EEE70
:10300000903AFFF7B3FEC4F8C086C4F8D4564846D9
:103010000BF08CFF04F67803184604F509660EEEF3
:10302000103AFFF7A3FEC4F87888C4F88C583046ED
:103030000BF07CFF04F5236318460DEE903AFFF782
:1030400095FE8B4BC4F8843A8A4BC4F8308AC4F896
:103050008C3A4FF4F07842F6E06104F69420C4F81C
:10306000445AC4F8884AC4F8905A0CF021FD19EE6D
:10307000100ACDF800804FF448732A462946FFF71E
:103080004CFE4FF07F431DEE100AA366CDF8008082
:103090004FF448732A462946FFF73FFE764BC4F8A3
:1030A00094304FF4AA738C2219EE900A00933C21BD
:1030B0004FF42A73FFF731FE4FF42A53C4E9323339
:1030C0004FF40753C4F8D0304FF48C53C4F8DC30BD
:1030D0004FF43468A3F5E65319EE900AC4F8D430DF
:1030E000B421C4F8D8800AF035FD4FF0FF330399BE
:1030F000C4F8F83019EE900A0BF0FBF840F2071311
:103100001AEE100A0093D9224FF402738C21FFF7B4
:1031100004FE42F2E0024FF40253C4E94B32C4F819
:1031200034316023C4F84031A3F53A63C4E94E3822
:103130001AEE100AB4210AF00DFD4FF07F43394614
:103140001AEE100AC4F85C310BF0D3F840274A237A
:10315000DC2218EE100A009340F28D11052384F84A
:103160002A71FFF7DAFD4FF07F43C4F8E831029986
:1031700018EE100A0BF0BDF818EE100A2A46394670
:103180000BF09EFB18EE100A4FF4006239460BF06C
:10319000A2FBD4F8A031802B06D0802318EE100AB1
:1031A000C4F8A0310BF07EFA18EE100A00210BF0E3
:1031B000C2FB402384F88E313B2340F2271218EEE5
:1031C000900A009340F26F216423FFF7A6FD2B4B7A
:1031D000C4F874321FEE901A18EE900A0BF089F8BA
:1031E000A02518EE900A80224FF434610BF068FBA2
:1031F00018EE900A4FF4D46229460BF06CFBD4F819
:103200002C32AB4205D018EE900AC4F82C520BF0C9
:1032100049FA18EE900A02210BF08DFB1AEE900A83
:1032200040F26F1240F23711FFF76AFD144F154B51
:10323000C4F8A83204F6482302933B680025A4F89A
:10324000AC522BB9104B114AAE21114820F0D4FAE0
:10325000DFF84880B8F80030072B21D80D4B0B4A17
:10326000AF21F2E7C052020868740208E074020855
:10327000A8520208C92C0008FFE0D0FF00A2FFFFFF
:1032800050DA0020271F16FF81510208C35102089F
:10329000F1510208385202083C6D020854DA00204D
:1032A000E04B0721186801F093FA0A210346DE4A31
:1032B000029811F0D3F9029AC4F8B4221AEE900AD7
:1032C0000BF0AAFDD94A06921AEE900A06A9ADF8AB
:1032D0001C500BF0BEFD40F28B111BEE100A6FF07C
:1032E0000C02FFF70DFD4FF07F43C4F8E8323B6856
:1032F000A4F8EC5204F65C210291002BA2D0B8F89D
:103300000030052BAAD9C74B0521186801F060FAD7
:103310000A210346C44A029811F0A0F902993B68B9
:10332000C4F8F41204F527610291002B8AD0B8F892
:103330000030062B92D9BB4B0621186801F048FAE1
:10334000B94A03460A21029811F088F9029BC4F891
:10335000F8321BEE100A0BF05FFD0427B34A069209
:103360001BEE100A06A9ADF81C700BF072FD1BEEE7
:10337000900A29466FF03B02FFF7C2FC4FF00303AF
:1033800006AA05A91BEE900AADF818700127ADF842
:1033900014300BF04EFF1BEE900AA4F83473FFF7C5
:1033A00037FD4FF0FF3804F68423C4E9CE881CEEC5
:1033B000100AC4F824332A464FF448710293FFF7E9
:1033C0009FFC06AA05A91CEE100A4FF00203ADF8F7
:1033D0001830ADF814700BF02CFF4FF002031CEE08
:1033E000100AA4F87C33FFF713FD029BC4F86C337A
:1033F000C4E9E0881CEE900A43224FF44871FFF7BD
:103400007FFC06AA05A91CEE900A4FF00203ADF856
:103410001830ADF814700BF00CFF4FF003031CEEE6
:10342000900AA4F8C433FFF7F3FC029BC4F8B4334A
:10343000C4E9F288584640F21D18C3226FF03B01E0
:10344000FFF75EFCCDF800802A4629465846322315
:1034500008F03AFE642200952B462946584608F0AB
:1034600015FF0A2306A95846ADF8183008F0CFFF1B
:103470006F4BC4F81C351FEE101A584608F0BCFDFF
:1034800042465846192108F0BAFD2A4658461921E5
:1034900008F097FD5846322108F0BAFD29465846F3
:1034A0004FF4827808F0BFFD5846572108F0D1FD4F
:1034B0004346CDF800805046DC228C21FFF72DFCDE
:1034C0004246414650460BF00AFE2A4650466FF0EF
:1034D00059010BF089FE2B4600956422294650467F
:1034E00008F0D4FE504609210BF028FE0322434683
:1034F000504608210BF0DEFD394650460BF076FDB4
:10350000394650460BF075FD394650460BF074FDB8
:10351000484BC4F8D43650460BF071FD03681EEEDC
:10352000901ADB6D984750460BF069FD4FF4E65357
:10353000836350460BF063FD4FF4F06343645046E1
:103540000BF05DFDB4210AF005FBCDF80080434689
:103550002A46294650460BF021FD4346CDF800800F
:103560004846DC224FF4C871FFF7D7FB294648468E
:1035700040F203120BF0B3FD2A4648465A210BF0E5
:1035800033FE2B46009564222946484608F07EFE0D
:1035900048461D210BF0D2FD03224346484609212F
:1035A0000BF088FD394648460BF020FD3946484669
:1035B0000BF01FFD394648460BF01EFD1E4BC4F8AC
:1035C0008C3848460BF01BFD03681EEE101ADB6DAD
:1035D000984748460BF013FD4FF4E6538363484683
:1035E0000BF00DFD4FF4F063436448460BF007FD0C
:1035F000B4210AF0AFFA4FF4A0734FF4BE780093F1
:103600002A46294648460BF0C9FC4FF43E73304623
:10361000CDF8008064221421FFF77FFB424641462B
:1036200030460BE05CDA00208A5202089852020809
:10363000C59714FF84C523FF7160F1FF0BF04FFDA8
:1036400030465A226FF059010BF0CEFD2B467822FE
:1036500000952946304608F019FE304668210BF0E7
:103660006DFD3046444908F09CFD03224346304638
:1036700006210BF01FFD394630460BF0B7FC3946EA
:1036800030460BF0B6FC394630460BF0B5FC3B4BF0
:10369000C4F8443A30460BF0B2FC03681DEE901AB1
:1036A000DB6D984730460BF0AAFC4FF4165383634A
:1036B00030460BF0A4FC4FF42063436430460BF01B
:1036C0009EFCB4210AF046FA2A464FF43473294688
:1036D0003046251DCDF800800BF060FC19EE101A65
:1036E000284608F095FF1DEE101A284608F090FFB6
:1036F00019EE901A284608F08BFF1AEE101A284689
:1037000008F086FF18EE101A284608F081FF18EE20
:10371000901A284608F07CFF1AEE901A284608F006
:1037200077FF1BEE101A284608F072FF1BEE901A66
:10373000284608F06DFF1CEE101A284608F068FFB6
:103740001CEE901A284608F063FF5946284608F0F8
:103750005FFF5146284608F05BFF4946284608F0BF
:1037600057FF2846314608F053FF204609B0BDEC0C
:10377000108BBDE8F08F00BF2D300108CB6106FF34
:1037800070477047704730B4C268446855100346AC
:1037900004EB6200D20748BF62599B6830BC48BF47
:1037A000D358184743682BB183682BB9C06800F021
:1037B00001007047184670470120704710B510216E
:1037C00004461FF0FAF9204610BD10B540F6280156
:1037D00004461FF0F2F9204610BD9830884208B523
:1037E00005D10DF09FFEBDE8084000F031BC08BDDA
:1037F00008B529B90DF096FEBDE8084000F028BCD8
:1038000008BD00004FF4807181840B4981624FF63E
:10381000FF7181854FF47F010022416307490263F4
:10382000C0E90122C0E90322C0E90522C0E907225C
:1038300002870160C26370479852020868740208E8
:103840002DE9F04F2DED0A8B044687B00FF03CFABE
:1038500022460025774BE56342F8403B104608EED0
:10386000902AFFF76DFA04F16C0318460CEE903ABB
:10387000FFF766FA04F1980304F1E00A184609EE2E
:10388000103A0CF0E7F8504608F022FB04F5E0731C
:10389000184604F5007909EE903AFFF7B3FF484661
:1038A00008F016FB04F53873184604F548780AEE5C
:1038B000103AFFF7A7FF404608F00AFB04F58063C3
:1038C00018460AEE903AFFF79DFF04F58863184604
:1038D00008EE103A08F0FCFA04F5A463184604F563
:1038E000AC670BEE103AFFF78DFF384608F0F0FAA0
:1038F00004F5C863184604F5D0660BEE903AFFF75E
:1039000081FF304608F0E4FA04F5EC6318460CEE4B
:10391000103AFFF777FF484BC4F818384FF4F07BA4
:10392000464BC4F8203818EE900ACDF800B04FF49A
:1039300048732A462946C4F81C48C4F82458FFF79F
:10394000ECF94FF07F431CEE900AA366CDF800B06F
:103950004FF448732A462946FFF7DFF9384BC4F87D
:10396000943019EE100A2A462946FFF7C9F90323B5
:1039700004AA03A919EE100AADF80C300423ADF81F
:1039800010300BF056FC092319EE100AA4F8D030C1
:10399000FFF73EFA4FF0FF33C4E9353304F618035E
:1039A000C4F8C0308C2214215046FFF7A9F9022236
:1039B0001023114600935046B42308F0E3F978220F
:1039C0002B4629465046009508F060FC2946504693
:1039D00008F0D5FA4FF0050304A95046ADF81030B1
:1039E00008F015FD1749504608F0B6F95721504622
:1039F00008F0E0F919EE900A64221421FFF780F92B
:103A00004FF07F43C4F8F0310F4BA4F8F4511B681A
:103A100004F5F46B2BB90D4B0D4AAE210D481FF088
:103A2000EBFE0D4B1B880A2B1AD80C4B084AAF2112
:103A3000F4E700BF14530208FC520208DB37000809
:103A4000FCAF88FFFF00A6FF50DA0020815102087A
:103A5000C3510208F151020854DA0020385202081A
:103A6000DF4B0A21186800F0B3FEDE4A03460A2144
:103A7000584610F0F3FD19EE900AC4F8FCB10BF0B3
:103A8000CBF9D94B049319EE900A082304A9ADF899
:103A900014300BF0DEF94FF4DC7214214846FFF7C6
:103AA0002FF9022210210091B4231146484608F054
:103AB00069F92B46782229464846009508F0E6FB2E
:103AC0002946484608F05BFA4FF00501ADF81010A2
:103AD000484604A908F09BFCC449484608F03CF954
:103AE0005721484608F066F940F24E211AEE100AB6
:103AF0006422FFF705F94FF07F41C4F81013BC4969
:103B0000A4F814530B6804F2B47B002B83D0B9489B
:103B10000388102B89D9B24A1021106800F058FE92
:103B2000B04A03460A21584610F098FD1AEE100AD2
:103B3000C4F81CB30BF070F90DF1100EAA4B0493EE
:103B400071460F231AEE100AADF814300BF081F90C
:103B50008C2240F24E214046FFF7D2F84FF0100E73
:103B60000222CDF800E01146B423404608F00AF9DD
:103B70002B46782229464046009508F087FB2946C7
:103B8000404608F0FCF90DF1100E71464FF0050C9F
:103B90004046ADF810C008F03AFC9449404608F0A1
:103BA000DBF85721404608F005F914211AEE900A77
:103BB0004FF4C872FFF7A4F88D49A4F834540B6889
:103BC0004FF07F4EC4F830E404F5F96B002B3FF45E
:103BD00022AF884803880E2B7FF627AF804A0E213C
:103BE000106800F0F5FD7F4A03460A21584610F0A0
:103BF00035FD1AEE900AC4F83CB40BF00DF90DF146
:103C0000100E794B049371460D231AEE900AADF80D
:103C100014300BF01EF918EE100A4FF4DC7240F26B
:103C20004E21FFF76DF84FF0100E0222CDF800E0A4
:103C3000114618EE100AB42308F0A4F82B46782297
:103C400018EE100A2946009508F020FB18EE100A1D
:103C5000294608F094F90DF1100E71464FF0050C4D
:103C600018EE100AADF810C008F0D1FB5F4918EE4D
:103C7000100A08F071F818EE100A572108F09AF8A7
:103C800040F24E211BEE100A4FF4C872FFF738F8CD
:103C90005749A4F854550B684FF07F4EC4F850E5CF
:103CA00004F2DC7B002B3FF4B6AE524803880C2BA9
:103CB0007FF6BBAE4A4A0C21106800F089FD494AE4
:103CC00003460A21584610F0C9FC1BEE100AC4F83E
:103CD0005CB50BF0A1F804AA434B049311460B23E7
:103CE0001BEE100AADF814300BF0B3F88C224FF431
:103CF0009A713846FFF704F810220092022211460A
:103D0000B423384608F03EF82B46FF22294600959A
:103D1000384608F0BBFA2946384608F030F904AABC
:103D20004FF0050C11463846ADF810C008F06FFB97
:103D30002E49384608F010F83C21384608F03AF889
:103D400067224FF49A711BEE900AFEF7D9FF2849BB
:103D5000A4F874560B684FF07F42C4F8702604F53F
:103D6000FE65002B3FF457AE22480388132B7FF6E5
:103D70005CAEDFF86CB01321DBF8000000F028FD2A
:103D8000184A03460A21284610F068FC1BEE900AE8
:103D9000C4F87C560BF040F8134B04931BEE900ACA
:103DA000112304A9ADF814300BF053F840F2B5120A
:103DB0004FF49A713046FEF7A3FF0222102300252C
:103DC000114600933046B42307F0DCFFFF222B4658
:103DD00029460095304608F059FA29460CE000BF04
:103DE0005CDA00208A52020898520208FF00A6FFFF
:103DF00050DA002054DA0020304608F0C0F80523DD
:103E000004A93046ADF8103008F001FB44493046B3
:103E100007F0A2FF3C21304607F0CCFF1CEE100A51
:103E20004FF4C8724FF49A71FEF76AFF4FF07F4368
:103E3000C4F890373B4BA4F894571B6804F604056C
:103E4000002B3FF4E8AD384B1B88142B7FF6EDAD0B
:103E5000DBF80000142100F0BBFC344A03460A21C1
:103E6000284610F0FBFB1CEE100AC4F89C570AF021
:103E7000D3FF2F4B0493251D12231CEE100A04A917
:103E8000ADF814300AF0E5FF18EE901A284608F055
:103E9000BFFB1CEE901A284608F0BAFB19EE101A68
:103EA000284608F0B5FB5146284608F0B1FB19EE4C
:103EB000901A284608F0ACFB4946284608F0A8FBB3
:103EC0001AEE101A284608F0A3FB4146284608F0CF
:103ED0009FFB1AEE901A284608F09AFB18EE101A6B
:103EE000284608F095FB1BEE101A284608F090FBB8
:103EF0003946284608F08CFB1BEE901A284608F03D
:103F000087FB3146284608F083FB28461CEE101A32
:103F100008F07EFB204607B0BDEC0A8BBDE8F08FB1
:103F2000FF00A6FF50DA002054DA00208A5202086F
:103F300098520208704700F596730868496803C3F1
:103F400070477047704741607047704701230372A4
:103F500070477047704710B4C268416854100346F8
:103F600001EB6200D20748BF0A599B685DF8044B19
:103F700048BFD358184743682BB183682BB9C06832
:103F800000F001007047184670470120704710B5D7
:103F90000C2104461EF011FE204610BD10B5102164
:103FA00004461EF00AFE204610BD10B54FF4AC7159
:103FB00004461EF002FE204610BD10B50DF0B2FA08
:103FC0000368BDE810401B6B184710B50446D0F8D5
:103FD0003C0158B10368DB68984738B1D4F83C011C
:103FE00003689B6898470023C4F83C3110BD00006B
:103FF000F8B5044617460E460DF0FCFA104B0025A6
:10400000C4E954760F4E1C60C4E952550E4B30681B
:1040100023600E4BC4E95035036829469B68C4E908
:104020004E559847284600F097FB336893F8762062
:104030000AB1D86C00B9986815F093F92046F8BD1C
:104040004CDA0020E0D90020945702087C5702087F
:10405000064BC0F848310023C0F84C3100F5A0737E
:10406000C0F84401C0F83C31704700BFD14100089E
:10407000064BC0F848310023C0F84C3100F5A0735E
:10408000C0F84401C0F83C31704700BF3943000814
:104090002DE9F84F07469068DDF828A09946036897
:1040A0001B6A88461446984743F67313984205D80E
:1040B000414B424AA32142481FF09EFB60680368BF
:1040C0001B6A98470F2803D83E4B3C4AA421F2E7CD
:1040D000E06803681B6A98470B2803D83A4B374AB5
:1040E000A521E8E70DF01EFA0DF06AFAD9F80000F4
:1040F00010B10368DB689847D9F8000010B1036875
:104100001B689847386810B103685B699847D8F80E
:10411000000010B103685B689847386810B1036805
:104120001B689847D8F8000010B103689B6898474F
:10413000E068036800215B6A98474FF0000B234B4F
:1041400003600546C0F804B080F808B0A0680368B2
:1041500059465B6A9847064600F0C6FB60680368EC
:1041600059465B6A98473146044600F097FBC9F808
:104170000050C8F800403E60E4B1231DCAF800308A
:104180003368C4F808A03046DB68F46398472368B6
:1041900020461B689847294630460EF012FF2B68D0
:1041A00028461B6998472B6828465B699847204634
:1041B000BDE8F88F2346E1E740530208CE530208DA
:1041C000D85402081F550208C2550208D8570208E1
:1041D00007B5D0F854310093D0F85021044B00F5C6
:1041E0009C710448FFF754FF03B05DF804FB00BF67
:1041F00040DA00203CDA00202DE9F84F07469068AD
:10420000DDF828A0994603681B6A8846144698473B
:1042100040F62703984205D8414B424AA321424821
:104220001FF0EAFA606803681B6A98470F2803D8F2
:104230003E4B3C4AA421F2E7E06803681B6A9847BA
:104240000B2803D83A4B374AA521E8E70DF06AF965
:104250000DF0B6F9D9F8000010B10368DB68984793
:10426000D9F8000010B103681B689847386810B18E
:1042700003685B699847D8F8000010B103685B6871
:104280009847386810B103681B689847D8F8000051
:1042900010B103689B689847E068036800215B6A77
:1042A00098474FF0000B234B03600546C0F804B05D
:1042B00080F808B0A068036859465B6A98470646CC
:1042C00000F0DCFB6068036859465B6A984731463A
:1042D000044600F0B9FBC9F80050C8F800403E6041
:1042E000E4B1231DCAF800303368C4F808A0304692
:1042F000DB68F4639847236820461B689847294683
:1043000030460EF05EFE2B6828461B6998472B68E6
:1043100028465B6998472046BDE8F88F2346E1E7C9
:104320004053020865560208D85402081F55020877
:10433000C2550208D857020807B5D0F85431009387
:10434000D0F85021044B00F59C710448FFF754FF4E
:1043500003B05DF804FB00BF40DA00203CDA002027
:10436000006A7047406A704770478B8880690A68A6
:10437000DB0A50F823001044704710B5C2B1137B1C
:10438000B3B1547BD27A240204F4E0641443C269CA
:1043900098B202EB840213888B4202D192F9020098
:1043A00010BD05D8013880B204320028F3D1F7E7F8
:1043B0000020F5E710B5282104461EF0FEFB20463C
:1043C00010BD000030B589B00446BDF850500695C8
:1043D000BDF84C5005959DF8405004959DF83C5013
:1043E00003959DF8385002959DF8345001959DF83D
:1043F000305000950EF016F9064B2360119BA36117
:10440000129BE361159B2362169B6362204609B0F1
:1044100030BD00BFFC5702087047000030B5164D94
:104420002C78BFF35B8F14F001048DB020D12846A7
:104430001EF0C5FBE0B13F230793104B0693104BD2
:10444000104911480894CDE9044301220423CDE921
:104450000132122300930E226423CDE90944039410
:10446000FFF7B0FF28461EF0B6FB08481FF0E2F940
:1044700005480DB030BD00BFE8490020289502086E
:104480004C580208F0110E90EC4900201944000825
:104490007047000030B5164D2C78BFF35B8F14F0D9
:1044A00001048DB020D128461EF089FBE0B13F23E6
:1044B0000793104B0693104B05930123CDE903435B
:1044C000029304220223CDE900320C490C480894DF
:1044D0000A231922CDE90944FFF774FF28461EF08C
:1044E0007AFB08481FF0A6F905480DB030BD00BFA3
:1044F000144A00202C95020850580208B4120E905D
:10450000184A0020914400087047000030B5154D4E
:104510002C78BFF35B8F14F001048DB01FD12846B7
:104520001EF04DFBD8B13F2307930F4B06930F4B63
:104530000F4910480894CDE9044301220423CDE932
:104540000132009318221423CDE909440394FFF7A4
:1045500039FF28461EF03FFB07481FF06BF905485E
:104560000DB030BD404A0020309502085458020872
:1045700014140E90444A00200945000870470000BA
:1045800030B5164D2C78BFF35B8F14F001048DB05D
:1045900020D128461EF013FBE0B13F230793104BB8
:1045A0000693104B05930123CDE9033302930422B4
:1045B0000523CDE900320C490C4808941E2319222A
:1045C000CDE90944FFF7FEFE28461EF004FB08482B
:1045D0001FF030F905480DB030BD00BF6C4A002017
:1045E0003C9502085858020864150E90704A002045
:1045F0007D4500087047000030B5164D2C78BFF39C
:104600005B8F14F001048DB020D128461EF0D7FA3C
:10461000E0B13F230793104B0693104B104911480C
:104620000894CDE9044301220423CDE90132072394
:1046300000930E222823CDE909440394FFF7C2FE1C
:1046400028461EF0C8FA08481FF0F4F805480DB0D7
:1046500030BD00BF984A0020789502085C580208D7
:10466000C4160E909C4A0020F545000800207047B3
:10467000002070470EB403B503AB002153F8042BA0
:1046800001930DF0EDFD02B05DF804EB03B070474F
:104690000CB407B504AB53F8042B01930DF0E0FD07
:1046A00003B05DF804EB02B070470000C36B10B5B7
:1046B000044673B3038E2BB9184B194ABF2119480E
:1046C0001FF09AF8C38D00EB43035B8B0BB30FF025
:1046D0000BFA238E012B03D8134B144AC421EEE7A7
:1046E000E28D531C9BB2092B194688BFA3F10A0126
:1046F00004EB410140F63F10498B814209D10A2B5E
:1047000004EB420228BF002304EB4303508B588381
:1047100051832046BDE810400FF0CAB86058020827
:1047200069580208145902085E5902086C590208B7
:104730000FF078B810B586B002AC84E806001A46CF
:104740000AAB05930193099B00932146089B0CF04B
:1047500072FA06B010BD000038B518BB124B1348F2
:104760001B681349B3B11A689C681A4402605A68FE
:104770001A440A601C440F4B00221A8000F038F8DB
:10478000054600F033F80C4B1C600C4B1D600C4BC5
:10479000188007E00B4B03600B4B0B600B4B1C6846
:1047A000002CE8D138BD00BFC44A0020C84A002010
:1047B000CC4A0020D04A002050DA002058DA0020ED
:1047C00054DA0020DC170E9088170E9000190E9016
:1047D000044B1B6853F82100034B1B6803EB40009C
:1047E000704700BFCC4A0020C84A002015207047FF
:1047F00000487047D44A002010B5FFF787FE074CE9
:104800002060FFF7F9FE6060FFF744FEA060FFF74D
:1048100005FEE060FFF7B4FE206110BDD44A002021
:1048200070470438704770477047C06803680021BC
:104830009B6A1847A0F10400FFF7F7BF10B51021DD
:1048400004461EF0BAF9204610BDA0F10400F5E7B9
:104850008068002100F02ABCC06800F04FB8A0F1C9
:104860000400FFF7F9BFC06800F072B8A0F10400BF
:10487000FFF7F9BFC06800F079B8A0F10400FFF7B6
:10488000F9BFC06800F076B8A0F10400FFF7F9BFE7
:1048900070477047704770477047704710B50022E7
:1048A0008260044AC16002F108044C320460426034
:1048B00010BD00BF405A0208806800F0EFBC80685D
:1048C00000F000BD70477047FEF7C2B9C06BFFF73C
:1048D000F3BFC06BFFF7F3BF10B543F67411044686
:1048E0001EF06BF9204610BD10B50446FEF7E0FA45
:1048F000014B2360204610BDDC5A0208092970B51F
:1049000005460C4600F6482013D80E4A0B460A21ED
:1049100005F51E760FF0A2FE30460AF07DFA05F589
:10492000096021460AF00AFC3046BDE870400DF0EF
:10493000B8BDA1F10A03592B94BF034A034A0B46A1
:10494000E5E700BFC05A0208C65A0208CB5A02085F
:1049500038B504460D4600F5757007F07AFB294618
:1049600004F5DB60BDE838400AF0E8BB00F5A46060
:104970000AF0E4BB37B50B46044615460A210B4A3C
:1049800000F65C200FF06AFE084A2B460A2104F567
:1049900027600FF063FE04F52E7001900AF03CFAD8
:1049A000019803B0BDE830400DF07BBDCE5A02083F
:1049B0007047043870477047C068036800219B6ADD
:1049C0001847A0F10400FFF7F7BF7047704710B514
:1049D000102104461EF0F1F8204610BDA0F104009D
:1049E000F5E78068012100F061BBC06800F050B8B5
:1049F000A0F10400FFF7F9BFC06800F0B5B8A0F15E
:104A00000400FFF7F9BFC06800F01AB9A0F1040074
:104A1000FFF7F9BFC06800F07FB9A0F10400FFF70D
:104A2000F9BFC06800F0E4B9A0F10400FFF7F9BFD6
:104A3000C06800F049BAA0F10400FFF7F9BF704761
:104A4000704770477047000010B500228260044A2A
:104A5000C16002F108044C320460426010BD00BF26
:104A6000105B020870477047FEF78BBE10B540F62A
:104A7000280104461EF0A1F8204610BD10B50446DA
:104A8000FEF7DEFE014B2360204610BD985B020856
:104A9000092970B504460D4600F5F46034DC2C4A53
:104AA0000B460A2104F5E0760FF0D8FDE0343046DD
:104AB0000AF0B2F90021204607F07CF920464FF0B9
:104AC0007F4107F049F93B2D284625DCFBF73AFDED
:104AD000204B0022FBF7CAFE1BA3D3E90023FBF700
:104AE0009BFDFBF7ABFF000400F47F0141F0FF21C9
:104AF000204607F031F92046294607F05BF9304699
:104B0000BDE870400DF0CDBCA1F10A03592B94BF54
:104B1000114A124A0B46C4E7FBF714FD0D4B002265
:104B2000FBF7C2FB0B4B0022FBF7A0FE06A3D3E969
:104B30000023FBF771FDFBF781FF0949C043C0B2B9
:104B400041EA0021D4E700BF0000000000E06F4010
:104B5000C05A020800004E40C65A0208CB5A02084A
:104B60000000FFFF00000000092970B504460D4653
:104B700000F2B47035DC2C4A0B460A2104F5387675
:104B80000FF06CFD04F5007430460AF045F9002181
:104B9000204607F00FF920464FF07F4107F0DCF880
:104BA0003B2D284625DCFBF7CDFC204B0022FBF7F4
:104BB0005DFE1BA3D3E90023FBF72EFDFBF73EFFB1
:104BC000000400F47F0141F0FF21204607F0C4F803
:104BD0002046294607F0EEF83046BDE870400DF05B
:104BE00060BCA1F10A03592B94BF114A114A0B462C
:104BF000C3E7FBF7A7FC0D4B0022FBF755FB0B4B64
:104C00000022FBF733FE06A3D3E90023FBF704FDE4
:104C1000FBF714FF0849C043C0B241EA0021D4E7C2
:104C20000000000000E06F40C05A020800004E4043
:104C3000C65A0208CB5A02080000FFFF000000001D
:104C4000092970B504460D4600F5F96035DC2C4A9B
:104C50000B460A2104F580660FF000FD04F5487448
:104C600030460AF0D9F80021204607F0A3F8204684
:104C70004FF07F4107F070F83B2D284625DCFBF70D
:104C800061FC204B0022FBF7F1FD1BA3D3E90023BD
:104C9000FBF7C2FCFBF7D2FE000400F47F0141F0F9
:104CA000FF21204607F058F82046294607F082F8F1
:104CB0003046BDE870400DF0F4BBA1F10A03592B5A
:104CC00094BF114A114A0B46C3E7FBF73BFC0D4B5F
:104CD0000022FBF7E9FA0B4B0022FBF7C7FD06A306
:104CE000D3E90023FBF798FCFBF7A8FE0849C04373
:104CF000C0B241EA0021D4E70000000000E06F40AC
:104D0000C05A020800004E40C65A0208CB5A020898
:104D10000000FFFF00000000092970B504460D46A1
:104D200000F2DC7035DC2C4A0B460A2104F5A4663F
:104D30000FF094FC04F5886430460AF06DF8002109
:104D4000204607F037F820464FF07F4107F004F87F
:104D50003B2D284625DCFBF7F5FB204B0022FBF71B
:104D600085FD1BA3D3E90023FBF756FCFBF766FE8A
:104D7000000400F47F0141F0FF21204606F0ECFF23
:104D80002046294607F016F83046BDE870400DF081
:104D900088BBA1F10A03592B94BF114A114A0B4653
:104DA000C3E7FBF7CFFB0D4B0022FBF77DFA0B4B64
:104DB0000022FBF75BFD06A3D3E90023FBF72CFCE5
:104DC000FBF73CFE0849C043C0B241EA0021D4E7EA
:104DD0000000000000E06F40C05A020800004E4092
:104DE000C65A0208CB5A02080000FFFF000000006C
:104DF000092970B504460D4600F5FE6035DC2C4AE5
:104E00000B460A2104F5C8660FF028FC04F5AC64D3
:104E100030460AF001F80021204606F0CBFF20467C
:104E20004FF07F4106F098FF3B2D284625DCFBF72D
:104E300089FB204B0022FBF719FD1BA3D3E90023BC
:104E4000FBF7EAFBFBF7FAFD000400F47F0141F0F9
:104E5000FF21204606F080FF2046294606F0AAFFE3
:104E60003046BDE870400DF01CBBA1F10A03592B80
:104E700094BF114A114A0B46C3E7FBF763FB0D4B86
:104E80000022FBF711FA0B4B0022FBF7EFFC06A305
:104E9000D3E90023FBF7C0FBFBF7D0FD0849C04373
:104EA000C0B241EA0021D4E70000000000E06F40FA
:104EB000C05A020800004E40C65A0208CB5A0208E7
:104EC0000000FFFF00000000092970B504460D46F0
:104ED00000F6040035DC2C4A0B460A2104F5EC668A
:104EE0000FF0BCFB04F5D064304609F095FF0021BB
:104EF000204606F05FFF20464FF07F4106F02CFF72
:104F00003B2D284625DCFBF71DFB204B0022FBF741
:104F1000ADFC1BA3D3E90023FBF77EFBFBF78EFD63
:104F2000000400F47F0141F0FF21204606F014FF49
:104F30002046294606F03EFF3046BDE870400DF0A1
:104F4000B0BAA1F10A03592B94BF114A114A0B467A
:104F5000C3E7FBF7F7FA0D4B0022FBF7A5F90B4B64
:104F60000022FBF783FC06A3D3E90023FBF754FBE5
:104F7000FBF764FD0849C043C0B241EA0021D4E711
:104F80000000000000E06F40C05A020800004E40E0
:104F9000C65A0208CB5A02080000FFFF704710B53E
:104FA0004FF4AC7104461DF008FE204610BD10B54C
:104FB0000446D0F8540100F0A1F82046BDE81040A6
:104FC0000CF0AAB910B50446FFF712F8014B2360A4
:104FD000204610BDCC5B020838B5002405460460AD
:104FE00022460421012005F063FA254B01211860B7
:104FF0002246084605F05CFA224B01211860224641
:10500000084605F055FA204B012118602246084653
:1050100005F04EFA1D4B012118602246084605F0A6
:1050200047FA1B4B012118602246084605F040FA5A
:10503000184B012118602246084605F039FA164B34
:10504000012118602246084605F032FA134B01216F
:1050500018602246084605F02BFA114B0121186012
:105060002246084605F024FA0E4B2246186002211B
:10507000012005F01DFA0C4B1860284638BD00BF12
:10508000004B0020044B0020084B00200C4B00205C
:10509000104B0020144B0020184B0020F04A002039
:1050A000FC4A0020F44A0020F84A0020054B196011
:1050B00039B90068044A03680449DB6A1268096860
:1050C0001847704724000020244B0020EC4A0020A1
:1050D000024A136801331360704700BFEC4A002096
:1050E000054908B50B683B2B02D801330B6008BD9E
:1050F000FFF7EEFF0023F9E7244B002070B5534B78
:10510000534E044600221868314605F0A1FB0128E1
:1051100007D1504B1B6823B92068317803689B681E
:1051200098474D4B4D4D18680022294605F090FBDD
:10513000012804D1206829680368DB689847484B38
:1051400046491868002205F083FB012804D1206835
:10515000296803681B699847424B40491868002238
:1051600005F076FB012804D12068296803685B6993
:1051700098473D4B39491868002205F069FB012822
:1051800004D12068296803689B699847374B3349E5
:105190001868002205F05CFB012804D1206829680A
:1051A0000368DB699847324B2C491868002205F0E8
:1051B0004FFB012804D12068296803681B6A9847BF
:1051C0002C4B23491868002205F042FB012804D12A
:1051D0002068317803685B6A9847274B274918682D
:1051E000002205F035FB012803D1206803681B6B02
:1051F0009847234B234D18680022294605F028FBC9
:1052000001280AD16B78204A29781370612B5170DC
:1052100003D1206803689B6A98471C4B174918689C
:10522000002205F015FB01280FD1194B1B7863B93B
:105230002046FFF755FF2068164A03681649DB6AC7
:1052400012680968BDE87040184770BD004B002027
:105250001D4B002024000020044B0020204B002088
:10526000084B00200C4B0020104B0020144B00205A
:10527000184B0020F04A0020F44A00201C4B00206C
:10528000F84A0020EA4A0020E84A0020FC4A0020B0
:1052900020000020244B0020EC4A0020064B1B7805
:1052A0004BB1064B006800221A60054B1A60036878
:1052B0001146DB6A1847704720000020EC4A0020A6
:1052C000244B0020034A1378B3FA83F35B0913706D
:1052D000704700BF2000002070470020704710B5C5
:1052E000044600F07DFBA821E0B200F093FB80B201
:1052F00010BD000013B500240221C0B28DF8074094
:1053000000F088FB8DF807009DF8073003F00F03CD
:105310008DF807309DF80730022B88BF8DF80740C5
:10532000044B9DF807209DF807005A7000229A70E0
:1053300002B010BD2A4B002073B5154C1546A3785A
:1053400062789A420E461FD903B3012B14BF002185
:10535000092104230DEB0302C0B200F077FB9DF896
:1053600004309DF805201B0203F47063134333805F
:105370009DF806309DF807201B0203F47063134369
:105380002B80A3780133A37002B070BD0321E0E746
:105390002A4B00200122A421C0B200F023BB00222E
:1053A000A421C0B200F01EBBFFF7F9BF7047000098
:1053B00010B4094B1A7890420AD05978884207D025
:1053C0000AB129B9012298545DF8044B00F008BBDA
:1053D0005DF8044B704700BF284B002038B50446E9
:1053E0000D460020CB49FBF70DFFCB490320FBF70F
:1053F00009FFCA490020FBF705FFC9490220FBF756
:1054000001FFC6490020FBF7FDFEC6490020FBF75F
:10541000F9FE0A2000F030FBC3490020FBF7F2FE42
:10542000C2490020FBF7EEFE0A2000F025FBC04930
:105430000020FBF7E7FEBF490020FBF7E3FEBE4973
:105440000020FBF7DFFEBD490020FBF7DBFEBC4977
:105450000020FBF7D7FEBB490020FBF7D3FEAD4988
:105460000020FBF7CFFEB8490020FBF7CBFEB74981
:105470000020FBF7C7FEB6490020FBF7C3FEB54985
:105480000020FBF7BFFEB4490020FBF7BBFEB34989
:105490000020FBF7B7FEB2490020FBF7B3FEB1498D
:1054A0000020FBF7AFFEA5490020FBF7ABFE9949B2
:1054B0000020FBF7A7FEAC490220FBF7A3FEAB4997
:1054C0000020FBF79FFEAA490020FBF79BFEA9499D
:1054D0000020FBF797FEA8490020FBF793FEA749A1
:1054E0000020FBF78FFEA6490020FBF78BFE9749B3
:1054F0000020FBF787FEA3490020FBF783FE9549B8
:105500000020FBF77FFEA0490020FBF77BFE9F49B0
:105510000020FBF777FE9E490220FBF773FE7F49D0
:105520000020FBF76FFE9B490620FBF76BFE9A49B4
:105530000020FBF767FE99490E20FBF763FE9849B0
:105540000020FBF75FFE97490E20FBF75BFE9649B4
:105550000020FBF757FE95490A20FBF753FE9449BC
:105560000020FBF74FFE93490020FBF74BFE6B49F1
:105570000020FBF747FE90490A20FBF743FE8F49C6
:105580000020FBF73FFE8E490F20FBF73BFE8249D0
:105590000020FBF737FE8B490F20FBF733FE8049D5
:1055A0000020FBF72FFE88490A20FBF72BFE7E49DF
:1055B0000020FBF727FE85490F20FBF723FE7C49DF
:1055C0000020FBF71FFE82490F20FBF71BFE8149DD
:1055D0000020FBF717FE80490A20FBF713FE7F49E6
:1055E0000020FBF70FFE7E490A20FBF70BFE4B491C
:1055F0000020FBF707FE7B490A20FBF703FE6F49FB
:105600000020FBF7FFFD78490F20FBF7FBFD624907
:105610000020FBF7F7FD75490F20FBF7F3FD60490C
:105620000020FBF7EFFD72490A20FBF7EBFD5E4916
:105630000020FBF7E7FD6F490F20FBF7E3FD5C4916
:105640000020FBF7DFFD6C490F20FBF7DBFD3F4936
:105650000020FBF7D7FD69490020FBF7D3FD68491F
:105660000020FBF7CFFD67490020FBF7CBFD664923
:105670000020FBF7C7FD65490020FBF7C3FD254966
:105680000020FBF7BFFD62490320FBF7BBFD21496A
:105690000020FBF7B7FD1F490020FBF7B3FD5D4974
:1056A0001020FBF7AFFD1B490020FBF7ABFD5A496B
:1056B0001020FBF7A7FD00205849FBF7A3FD782039
:1056C00000F0DAF9002C00F0C980022C03D1544913
:1056D0000020FBF797FD012D0BD152490020FBF76D
:1056E00091FD51490420FBF78DFD50490420FBF743
:1056F00089FD4F490020FBF785FD4E490020FBF74F
:1057000081FD4D490020FBF77DFD4C490020FBF752
:1057100079FD95E0085C02086E5C02081E5C0208D8
:10572000F45C0208345C02084A5C0208605C02080F
:10573000665C0208685C02086A5C02086C5C02082D
:105740000A5C02080C5C02080E5C0208105C02088D
:10575000125C0208145C0208165C0208185C02085D
:105760001A5C02081C5C0208725D0208205C0208D8
:10577000225C0208245C0208265C0208285C0208FD
:105780002A5C02082C5C02082E5C0208305C0208CD
:10579000755D0208785D0208325C02087F5D0208D0
:1057A000365C02088E5D0208385C0208725C0208F2
:1057B0003A5C0208585C02087D5C02083C5C020806
:1057C000885C0208985C0208A85C0208B35C0208C6
:1057D000C35C02083E5C0208D35C0208405C02081D
:1057E000DE5C0208E95C0208F75C0208075D02085B
:1057F000175D0208225D0208325D02085A5C020849
:105800005C5C02085E5C0208625C0208645C020880
:10581000425D0208505D0208615D0208425C0208B8
:10582000445C0208485C0208465D02084B5D0208C1
:105830004C5C02084E5C0208505C0208525C020894
:1058400008490020FBF7DEFC07490020FBF7DAFCE3
:1058500006490020FBF7D6FC002038BD044920464D
:1058600037E700BF545C0208085C0208565C020877
:10587000465C020870B52E4D88B0284602F06EFADC
:105880000446002851D12B4A2B4B2C4E0190C5E9E0
:1058900000234FF48043C5E90200C5E90430C5E99F
:1058A00006002862336B43F002033363336B0590C9
:1058B00003F002030193019B4FF480711223CDE9A1
:1058C000031302200423CDE9060303A91C4801F0B9
:1058D00067FC4FF400731A48039303A901F060FCBE
:1058E0000294336C43F400133364336C03F40013F9
:1058F0000293029B336A43F400133362336A23F446
:1059000000133362224605211F2000F01DFD1F20D9
:1059100000F04CFD22460521202000F015FD20203E
:1059200000F044FD284601F0BFFF08B070BD00BF85
:10593000304B002000540040801A0600003802401E
:105940000004024008B5034802F056F8BDE80840DC
:10595000FFF790BF304B002010B586B0194B0024E4
:1059600000941A6B42F001021A631B6B03F00103EF
:105970000093009B69B90123CDE90131022304930F
:10598000114B039153F8200001A901F009FC06B066
:1059900010BD0129FBD1022304934FF48813029315
:1059A000094B019153F82000039401A901F0F8FB81
:1059B00022460F21062000F0C7FC062000F0F6FC6E
:1059C000E5E700BF003802405000002008B5034B57
:1059D000012153F8200001F06BFD08BD50000020AC
:1059E000FFF748BF7FB501238DF817206422CDE96A
:1059F00001320DF1170200920A460146044802F0F6
:105A000015F808B1FFF79EFF07B05DF804FB00BF73
:105A1000304B00207FB500230A468DF817304FF435
:105A20007A710123CDE901310DF117010091014691
:105A3000054802F08BF808B1FFF784FF9DF81700C6
:105A400007B05DF804FB00BF304B00201FB54FF4DA
:105A50007A74CDE90134009201230A4601460548D3
:105A600002F074F8044608B1FFF76CFFA0B204B06E
:105A700010BD00BF304B002000F040BC00B595B019
:105A80004FF480720C924FF08071052206920F91B4
:105A900000220121CDE90312CDE90D22CDE9112229
:105AA0000B9213920092102202924FF4800203464E
:105AB0000191059206A96A46044802F0D2FC00381A
:105AC00018BF012015B05DF804FB00BF74DF002093
:105AD00000B595B04FF480730C93062306931748D6
