:020000040800F2
:1000000000000520850D0008E1280008E32800080D
:10001000E5280008E7280008E9280008000000009B
:10002000000000000000000000000000818C0008BB
:10003000EB28000800000000118D0008D98400089A
:10004000D50D0008D50D0008D50D0008D50D000808
:10005000D50D0008D50D0008ED280008D50D0008C5
:10006000D50D0008D50D0008D50D0008D50D0008E8
:10007000D50D0008D50D0008D50D0008D50D0008D8
:10008000D50D0008D50D0008D50D0008D50D0008C8
:10009000D50D0008D50D0008D50D0008D50D0008B8
:1000A000D50D0008D50D0008D50D0008D50D0008A8
:1000B000D50D0008D50D0008D50D0008D50D000898
:1000C000D50D0008D50D0008D50D0008D50D000888
:1000D000D50D0008D50D0008D50D0008D50D000878
:1000E000D50D0008D50D0008D50D0008D50D000868
:1000F000D50D0008D50D0008D50D0008D50D000858
:10010000D50D0008D50D0008D50D0008D50D000847
:10011000D50D0008D50D0008F5280008D50D0008FC
:10012000D50D000801290008D50D0008D50D0008DF
:10013000D50D0008D50D0008D50D0008D50D000817
:10014000D50D0008D50D0008D50D0008D50D000807
:10015000D50D0008D50D0008D50D0008D50D0008F7
:10016000D50D0008D50D0008D50D0008D50D0008E7
:10017000D50D0008D50D0008D50D000800000000C1
:10018000D50D0008D50D0008D50D0008D50D0008C7
:10019000D50D0008D50D0008D50D0008D50D0008B7
:1001A0000D290008D50D000819290008D50D0008F3
:0401B00025290008F5
:1001C00010B5054C237833B9044B13B10448AFF391
:1001D00000800123237010BD4801002000000000B2
:1001E0005C2E020808B5034B1BB103490348AFF36B
:1001F000008008BD000000004C0100205C2E0208B9
:1002000001F0FF01102A2BDB10F0070F08D010F8C7
:10021000013B013A8B422DD010F0070F42B3F6D1CB
:10022000F0B441EA012141EA014122F007047FF0E4
:1002300000070023F0E80256083C85EA010586EA3B
:10024000010685FA47F5A3FA87F586FA47F6A5FA77
:1002500087F68EB9EED1F0BC01F0FF0102F0070283
:1002600032B110F8013B013A83EA010313B1F8D12E
:100270000020704701387047002D06BF354603380F
:10028000073815F0010F07D1013015F4807F02BF48
:10029000013015F4C03F0130F0BC0138704700BF99
:1002A00081F0004102E000BF83F0004330B54FEA27
:1002B00041044FEA430594EA050F08BF90EA020F94
:1002C0001FBF54EA000C55EA020C7FEA645C7FEA27
:1002D000655C00F0E2804FEA5454D4EB5555B8BF4A
:1002E0006D420CDD2C4480EA020281EA030382EABB
:1002F000000083EA010180EA020281EA0303362D4D
:1003000088BF30BD11F0004F4FEA01314FF4801C1F
:100310004CEA113102D0404261EB410113F0004F31
:100320004FEA03334CEA133302D0524263EB4303E8
:1003300094EA050F00F0A780A4F10104D5F1200E86
:100340000DDB02FA0EFC22FA05F2801841F10001E1
:1003500003FA0EF2801843FA05F359410EE0A5F1B5
:1003600020050EF1200E012A03FA0EFC28BF4CF0E6
:10037000020C43FA05F3C01851EBE37101F000459C
:1003800007D54FF0000EDCF1000C7EEB00006EEBA9
:100390000101B1F5801F1BD3B1F5001F0CD3490833
:1003A0005FEA30004FEA3C0C04F101044FEA44528A
:1003B00012F5800F80F09A80BCF1004F08BF5FEA11
:1003C000500C50F1000041EB045141EA050130BDF1
:1003D0005FEA4C0C404141EB0101013C28BFB1F503
:1003E000801FE9D291F0000F04BF01460020B1FA4E
:1003F00081F308BF2033A3F10B03B3F120020CDA21
:100400000C3208DD02F1140CC2F10C0201FA0CF0FE
:1004100021FA02F10CE002F11402D8BFC2F1200C63
:1004200001FA02F120FA0CFCDCBF41EA0C01904019
:10043000E41AA2BF01EB0451294330BD6FEA040462
:100440001F3C1CDA0C340EDC04F11404C4F120024D
:1004500020FA04F001FA02F340EA030021FA04F35F
:1004600045EA030130BDC4F10C04C4F1200220FAB6
:1004700002F001FA04F340EA0300294630BD21FAF4
:1004800004F0294630BD94F0000F83F4801306BFBA
:1004900081F480110134013D4EE77FEA645C18BFAE
:1004A0007FEA655C29D094EA050F08BF90EA020F45
:1004B00005D054EA000C04BF1946104630BD91EA3D
:1004C000030F1EBF0021002030BD5FEA545C05D140
:1004D0004000494128BF41F0004130BD14F580047F
:1004E0003CBF01F5801130BD01F0004545F0FE41F3
:1004F00041F470014FF0000030BD7FEA645C1ABF28
:10050000194610467FEA655C1CBF0B46024650EA5E
:10051000013406BF52EA033591EA030F41F400218A
:1005200030BD00BF90F0000F04BF0021704730B510
:100530004FF4806404F132044FF000054FF00001E5
:1005400050E700BF90F0000F04BF0021704730B5A6
:100550004FF4806404F1320410F0004548BF40427B
:100560004FF000013EE700BF42004FEAE2014FEAD0
:1005700031014FEA02701FBF12F07F4393F07F4FAB
:1005800081F06051704732F07F4208BF704793F0AE
:100590007F4F04BF41F40021704730B54FF46074C1
:1005A00001F0004521F000411CE700BF50EA0102C4
:1005B00008BF704730B54FF000050AE050EA01026D
:1005C00008BF704730B511F0004502D5404261EBDD
:1005D00041014FF4806404F132045FEA915C3FF41E
:1005E000D8AE4FF003025FEADC0C18BF03325FEABB
:1005F000DC0C18BF033202EBDC02C2F1200300FA6C
:1006000003FC20FA02F001FA03FE40EA0E0021FA90
:1006100002F11444BDE600BF70B54FF0FF0C4CF47E
:10062000E06C1CEA11541DBF1CEA135594EA0C0F30
:1006300095EA0C0F00F0DEF82C4481EA030621EA6B
:100640004C5123EA4C5350EA013518BF52EA0335A6
:1006500041F4801143F4801338D0A0FB02CE4FF058
:100660000005E1FB02E506F00042E0FB03E54FF088
:100670000006E1FB03569CF0000F18BF4EF0010E80
:10068000A4F1FF04B6F5007F64F5407404D25FEA7C
:100690004E0E6D4146EB060642EAC62141EA55512F
:1006A0004FEAC52040EA5E504FEACE2EB4F1FD0C71
:1006B00088BFBCF5E06F1ED8BEF1004F08BF5FEAEF
:1006C000500E50F1000041EB045170BD06F00046A1
:1006D00046EA010140EA020081EA0301B4EB5C044E
:1006E000C2BFD4EB0C0541EA045170BD41F4801146
:1006F0004FF0000E013C00F3AB8014F1360FDEBF6B
:10070000002001F0004170BDC4F10004203C35DA46
:100710000C341BDC04F11404C4F1200500FA05F3C9
:1007200020FA04F001FA05F240EA020001F000426A
:1007300021F0004110EBD37021FA04F642EB0601E0
:100740005EEA430E08BF20EAD37070BDC4F10C040A
:10075000C4F1200500FA04F320FA05F001FA04F2CE
:1007600040EA020001F0004110EBD37041F10001BA
:100770005EEA430E08BF20EAD37070BDC4F12005C5
:1007800000FA05F24EEA020E20FA04F301FA05F22D
:1007900043EA020321FA04F001F0004121FA04F2D5
:1007A00020EA020000EBD3705EEA430E08BF20EAA5
:1007B000D37070BD94F0000F0FD101F000464000DF
:1007C00041EB010111F4801F08BF013CF7D041EA61
:1007D000060195F0000F18BF704703F00046520065
:1007E00043EB030313F4801F08BF013DF7D043EA36
:1007F0000603704794EA0C0F0CEA135518BF95EAEC
:100800000C0F0CD050EA410618BF52EA4306D1D172
:1008100081EA030101F000414FF0000070BD50EA91
:10082000410606BF1046194652EA430619D094EA1B
:100830000C0F02D150EA013613D195EA0C0F05D105
:1008400052EA03361CBF104619460AD181EA030159
:1008500001F0004141F0FE4141F470014FF0000011
:1008600070BD41F0FE4141F4780170BD70B54FF0AC
:10087000FF0C4CF4E06C1CEA11541DBF1CEA13552C
:1008800094EA0C0F95EA0C0F00F0A7F8A4EB05040E
:1008900081EA030E52EA03354FEA013100F0888005
:1008A0004FEA03334FF0805545EA131343EA1263CE
:1008B0004FEA022245EA111545EA10654FEA002683
:1008C0000EF000419D4208BF964244F1FD0404F53C
:1008D000407402D25B084FEA3202B61A65EB030598
:1008E0005B084FEA32024FF480104FF4002CB6EB55
:1008F000020E75EB030E22BFB61A754640EA0C00D5
:100900005B084FEA3202B6EB020E75EB030E22BF14
:10091000B61A754640EA5C005B084FEA3202B6EB55
:10092000020E75EB030E22BFB61A754640EA9C0014
:100930005B084FEA3202B6EB020E75EB030E22BFE4
:10094000B61A754640EADC0055EA060E18D04FEAA2
:10095000051545EA16754FEA06164FEAC30343EA42
:1009600052734FEAC2025FEA1C1CC0D111F4801F0F
:100970000BD141EA00014FF000004FF0004CB6E708
:1009800011F4801F04BF01430020B4F1FD0C88BFA7
:10099000BCF5E06F3FF6AFAEB5EB030C04BFB6EBB2
:1009A000020C5FEA500C50F1000041EB045170BDA5
:1009B0000EF0004E4EEA113114EB5C04C2BFD4EBD2
:1009C0000C0541EA045170BD41F480114FF0000E56
:1009D000013C90E645EA060E8DE60CEA135594EAD2
:1009E0000C0F08BF95EA0C0F3FF43BAF94EA0C0FD5
:1009F0000AD150EA01347FF434AF95EA0C0F7FF44A
:100A000025AF104619462CE795EA0C0F06D152EA9D
:100A100003353FF4FDAE1046194622E750EA410681
:100A200018BF52EA43067FF4C5AE50EA41047FF492
:100A30000DAF52EA43057FF4EBAE12E74FEA4102F5
:100A400012F5001215D211D56FF47873B3EB625220
:100A500012D94FEAC12343F0004343EA505311F047
:100A6000004F23FA02F018BF404270474FF00000D9
:100A7000704750EA013005D111F0004008BF6FF017
:100A8000004070474FF00000704700BF53B94AB9AB
:100A9000002908BF00281CBF4FF0FF314FF0FF3086
:100AA00000F06EB9ADF1080C6DE904CE00F006F867
:100AB000DDF804E0DDE9022304B070472DE9F047DA
:100AC000089D04468C46002B40F083808A421746DE
:100AD00047D9B2FA82F242B1C2F1200024FA00F002
:100AE0009140974040EA010C94404FEA1748230C8C
:100AF000BCFBF8F61FFA87FE08FB16C143EA014368
:100B000006FB0EF1994209D9FB1806F1FF3080F07F
:100B10001981994240F21681023E3B445B1AA4B20D
:100B2000B3FBF8F008FB103344EA034400FB0EFE6D
:100B3000A64509D93C1900F1FF3380F00581A6458F
:100B400040F2028102383C4440EA0640A4EB0E0425
:100B500000261DB1D4400023C5E900433146BDE85D
:100B6000F08702B9FFDEB2FA82F2002A50D1CB1B25
:100B70004FEA174E1FFA87F80126B3FBFEFC210C43
:100B80000EFB1C3341EA034108FB0CF38B4207D9EF
:100B900079180CF1FF3002D28B4200F2E9808446D2
:100BA000C91AA3B2B1FBFEF00EFB101143EA0144D7
:100BB00008FB00F8A04507D93C1900F1FF3302D229
:100BC000A04500F2D9801846A4EB080440EA0C4086
:100BD000BFE78B4209D9002D00F0B1800026C5E99E
:100BE000000130463146BDE8F087B3FA83F6002EA7
:100BF0004AD18B4202D3824200F2B880841A61EB60
:100C0000030101208C46002DA8D0C5E9004CA5E7C2
:100C1000C2F1200320FA03F6974001FA02F04FEAEE
:100C2000174ED9403043030CB1FBFEF61FFA87F88C
:100C30000EFB161143EA014306FB08F1994204FA40
:100C400002F409D9FB1806F1FF3C80F08D8099422F
:100C500040F28A80023E3B445B1A81B2B3FBFEF055
:100C60000EFB103341EA034100FB08F38B4207D926
:100C7000791800F1FF3C73D28B4271D902383944A4
:100C8000CB1A40EA064678E7C6F1200C03FA06F4D0
:100C900022FA0CF31C4320FA0CF701FA06F34FEA90
:100CA000144E21FA0CF11F433B0CB1FBFEF91FFA65
:100CB00084F80EFB191143EA014109FB08FA8A4541
:100CC00002FA06F200FA06F308D9611809F1FF30BA
:100CD00048D28A4546D9A9F102092144A1EB0A016B
:100CE000BFB2B1FBFEF00EFB101147EA014700FB5B
:100CF00008F8B84507D9E71900F1FF312ED2B845F9
:100D00002CD90238274440EA0940A7EB0807A0FB8A
:100D100002894F45C64649461AD317D05DB1B3EB99
:100D20000E0267EB010707FA0CFCF2404CEA0202E4
:100D3000F740C5E9002700263146BDE8F0872E467A
:100D400028460BE70646E9E61846FDE64345E5D2A8
:100D5000B8EB020E69EB04010138DFE70846D2E781
:100D600060468DE78146B9E7664675E730464AE753
:100D7000ACF1020C394413E702383C4424E700BFCD
:100D8000704700BFDFF834D0002103E00C4B5B5804
:100D9000435004310B480C4B42189A42F6D30B4A8D
:100DA00002E0002342F8043B094B9A42F9D304F0D5
:100DB000CBF821F023F800F0CBFF704700000520AE
:100DC0007077020800000020480100204801002040
:100DD00024D90020FEE700F0EFBD00F05DBE002149
:100DE000084603F019BC002003F050BC406870476F
:100DF00041607047054A136843F080731360044AEA
:100E0000136843F001031360704700BFFCED00E07E
:100E1000001000E0511A01EB5301B1FBF3F07047F1
:100E2000014B1868704700BF041000E0704710B510
:100E30000C21044620F079F9204610BD036810B556
:100E40001B69044631B19847A26863689B1A18442D
:100E5000606010BD9847A060FBE7704770470000D6
:100E600008B5FFF7BCFF024B00221A6008BD00BFA7
:100E70006401002070B50D46FFF7B5FF0B4A93786B
:100E800056781178D370C4B213F001009670517087
:100E900014700AD016F0010007D011F0010004D040
:100EA000E3075ABF01202870002070BD64010020B4
:100EB00010B50421044620F038F9204610BD7047D3
:100EC00010B50421044620F030F9204610BD000082
:100ED00008B54FF4F0714FF4487003F081FF074BF1
:100EE00010B901221A7008BD1B78002BFBD1044BEE
:100EF000044A0548242120F037FF00BF6801002084
:100F0000002F0208132F02083D2F02087FB50B4B5C
:100F10001C780E4615465CB101A803F09FFF9DF8B2
:100F2000043043B1BDF806303360BDF80A302B60A1
:100F3000204604B070BD1C46FAE700BF68010020DF
:100F400010B1012809D07047084B09481A68B2FA55
:100F500082F25209402105F011B9044B05485A6844
:100F6000B2FA82F252091021F5E700BF6C010020AD
:100F700000180240000C024010B1012809D070474F
:100F8000084B09481A68003A18BF0122402105F0B1
:100F9000F5B8044B05485A68003A18BF01221021E1
:100FA000F5E700BF6C01002000180240000C024071
:100FB00010B1012804D070470348402105F0E3B880
:100FC00002481021FAE700BF00180240000C02405E
:100FD00008B530B1012809D00020431E58425841BD
:100FE00008BD0448402105F0C3F8F6E70248102187
:100FF000F9E700BF00180240000C024070B5084D30
:1010000000240126E0B2FFF7E3FF18B12B68012BA3
:1010100018BF2E600134052C05F10405F2D170BD16
:101020006C010020012380F8741080F8753070473F
:101030000020704700207047836B0BB108461847AB
:1010400070474FF6FF707047406803689B69184708
:1010500070477047014B1868704700BF7C01002043
:101060007047000038B50446094DFFF7C7FF20461A
:1010700000F094FD002384F84A302846FFF7BAFEBA
:10108000012384F86C30034B2561636138BD00BFD8
:1010900088010020840100200368044607B59B6F87
:1010A0009847236820461B6F984700F017FA23687B
:1010B00020469B6E9847002106480091292315225F
:1010C00004F045FE00F00AFA236820469B6E98471C
:1010D000F8E700BF6CD6002010B504460AF0BEFF4A
:1010E00023682046D3F8A030BDE81040184700F030
:1010F00054BD00F06BBD00F06BBD00F03DBD00F0D5
:1011000043BD00F067BD0000024B00221A700AF0D8
:1011100097B900BF1400002010B504460AF09CF9EE
:1011200094F84B3013B1024B01221A7010BD00BF6E
:10113000140000200AF04AB910B57C2104461FF0C3
:10114000F4FF204610BD90F877301BB1406803686B
:101150001B6818471846704730B590F8341090F85F
:101160007440104B8C421A780DD05AB90E4A0F4970
:101170000F4814880F4D0C8001881180298004804D
:1011800001221A7030BD002AFCD00948074A0188A4
:101190001180054A074D14882C801180048000229C
:1011A000EFE700BFE8D20020E4D20020EAD200201E
:1011B000E6D20020ECD2002010B50C4C216031B9F1
:1011C0000B4B0C4A0C484FF4257120F0CDFDC0E9C3
:1011D0000F12003A0949436418BF01220A70003B0C
:1011E000074A18BF0123137010BD00BF7C01002007
:1011F0009C2F0208D42F020822300208EED20020D1
:10120000EFD20020012807B50AD84B7800930B785D
:1012100008481522002104F09AFD03B05DF804FB94
:1012200001910B5C0093392203460021014804F030
:101230009FFDF2E76CD6002037B50B4A0B4C02231A
:101240001525137055700192442200920021392215
:10125000204604F08DFD0021009135232A462046CA
:1012600004F075FD03B030BD940100206CD6002061
:1012700007B50190FFF7E0FF019803B05DF804EBBC
:1012800000F08ABC07B5074B03EB80002A230190CE
:101290000093392204230021034804F069FD03B0C0
:1012A0005DF804FB040000206CD6002070B5154DDD
:1012B00004460020FFF744FE2A6892F866300133A6
:1012C00082F8663000F0FEF80F4B28681A781B7819
:1012D00080F84A2023B10D4D2B7803F0FF0623B18F
:1012E000BDE870400020FFF747BE0AF0B7FE084B8C
:1012F00030461E60FFF7C6FF204604F018FD0123AC
:101300002B7070BDF0D20020140000209601002048
:1013100080010020304B314A70B505461868304CCA
:10132000013018602F4B03281E682ADCD4F80414FF
:101330004FF4C87303FB006321F00801C4F80414E0
:1013400093620CBFE823C823023327491B0443F4EC
:10135000F1730B61254B4B61A3F5F0735360244B84
:10136000D36201234B62FFF78DFF1D4AD2F804348C
:1013700043F008032846C2F80434BDE8704004F086
:10138000D6BCD4F804341B4923F00803C4F8043451
:10139000154B9662196101F10111596116495160AD
:1013A0001349D16201225A620020FFF76BFFD4F883
:1013B000043443F00803C4F804340020FFF7DCFDD4
:1013C0000E4B00221A700E4B186820B10368BDE85E
:1013D0007040DB69184770BD8001002084680140BF
:1013E000006C01407C01002000680140E301CA005C
:1013F00093018006E201CA000300CA0096010020A2
:10140000F0D2002008B5044B0146186801B1012153
:101410000AF03EFE012008BDF0D20020054B064830
:1014200000225A609A60054A1A60054B0360FFF774
:1014300017BD00BF8801002084010020C42E0208CF
:10144000EC2E0208012108B50022084607F039F900
:101450000A4B186028B90A4B0A4A27210A4820F08B
:1014600083FC00220421012007F0CAF9074B186011
:1014700018B9074B034A2B21F0E708BD9C01002057
:10148000343102087D310208AC3102089801002095
:10149000F3310208024B4FF0FF31186807F05CB9D6
:1014A0009C010020014B186807F082B99C010020C4
:1014B000024B0021186807F04FB900BF9C010020C3
:1014C000FFF7F0BF03480449006800231A4607F0FD
:1014D000D3B900BF980100201800002013B5084CB4
:1014E00000231A4601A9206807F0F6F920684FF09A
:1014F000FF33002201A907F0EFF902B010BD00BFD1
:101500009801002007F06CB803685B6C1847012055
:10151000704703689B6A184782B0002301930D4B04
:101520001A6B42F400021A631A6B02F40002019271
:10153000019A1A6942F400021A611A6922F400023F
:101540001A61054B054A1A61054B4FF080629A609B
:1015500002B07047003802407CD700206D150008AB
:1015600000E100E040F2EF3070470000024B1B68E2
:10157000586803685B691847F0D2002008B50B284B
:101580000BD8DFE800F01206100A0A0A0A08080859
:101590000808012008BD0520FCE7054B054A064860
:1015A000652120F0E1FB0020F4E70220F2E700BF14
:1015B00035320208503202089C32020808B50A2867
:1015C00009D8DFE800F010060E080808080606062D
:1015D0000600012008BD054B054A0648862120F07B
:1015E000C3FB0020F6E70220F4E700BF3532020813
:1015F000E13202089C3202082DE9F84391F81D807F
:101600000C464046FFF7BAFFA77F05463846FFF76E
:10161000B5FF06463846FFF7D1FFA18A628B534BD0
:10162000521A1A649A61228B521A1A61E28A58631A
:1016300042EA01425A6421696268D963DA60D4F8E7
:1016400000C094F81C90BCF1800F4FEA09629E46DE
:101650003BD015D8BCF1200F45EA020079D0BCF18F
:10166000400F76D0BCF1040F2BD0404B2A4342F4FC
:101670000032B845DA6114BF3D4A40F201221EE053
:10168000BCF5807F07D0BCF5007FEED142F400327C
:1016900042F0090203E042F4003242F00A02DA6149
:1016A000E0680202440102F4780204F47C44C000C1
:1016B0002243C0B202431A622E4A5E6259611A6026
:1016C00043E040F40030D861F6E7A0682A4342F4D2
:1016D0000032041DDC62DA6102785E62596142B157
:1016E000012A1CD0244B254A25484FF4887120F04C
:1016F0003BFB4288D969501E21F47F4222F0100240
:1017000042EA0022DA610125184CE36943F0200324
:10171000E361E3699B0613D5FFF7F4FEF9E742881E
:10172000D969501E21F47F4222F0100242EA0022C1
:10173000B9F1FF0542F0100218BF0125DA61E3E7B5
:101740001023A3601DB10B4B2360BDE8F883084B49
:10175000FAE7084B40F40030CEF81C00CEF82460C5
:10176000CEF81410CEF80030EFE700BF00B0024012
:1017700001020100010202002E3302084833020870
:101780009C320208F8B58E7F0C463046FFF716FFF4
:10179000A78AE18A628B1E4B2569586341EA07419B
:1017A000D21B5964DD631A642168082918D19A6133
:1017B0001A615862217F174A42EA0162DA61E168E0
:1017C0000A02480102F4780200F47C40C900024396
:1017D000C9B20A431A62104A5D61DD601A60F8BD41
:1017E0000022D8611A61E1681EB99963084B0B4A5F
:1017F000F4E70A02480102F4780200F47C40C900D0
:10180000C9B202430A43217F42EA01629A63EDE7CB
:1018100000B00240090001000102020001020300C1
:10182000054B0360054B4FF08062C3F88820BFF37F
:101830004F8FBFF36F8F70479033020800E100E0D5
:1018400010B50446FFF7ECFF20464FF442611FF04D
:101850006CFC204610BD000070B5044625460A4BBE
:101860000C30002660602672667245F8203B6022CC
:1018700029460AF045FD04F54263EE602035AB428F
:10188000FBD1204670BD00BF903302080120704795
:101890000C2070470C2303FB0100083070470C2319
:1018A00003FB0100083070470120704743F2D82045
:1018B000704743F2D82303FB01000830704743F21E
:1018C000D82303FB01000830704701207047102027
:1018D000704700EB01100830704700EB0110083032
:1018E0007047084601F086BD10B5034B03600446FF
:1018F00009F086F8204610BD4834020810B50446A9
:10190000FFF7F2FF204614211FF00FFC204610BD08
:1019100010B5034B0360044609F072F8204610BD71
:101920001434020810B50446FFF7F2FF204643F2D4
:10193000E0211FF0FAFB204610BD000010B5034B5C
:101940000360044609F05CF8204610BDE03302084D
:1019500010B50446FFF7F2FF204618211FF0E5FB03
:10196000204610BD10B5094B0360044600F54C50ED
:101970000C30FFF7B9FF04F12C00FFF7C9FF04F1A9
:101980001400FFF7DBFF204610BD00BF7C340208C7
:1019900008B50248FFF7E6FF08BD00BFA40100201C
:1019A00010B50446FFF7DEFF204643F27C411FF0EE
:1019B000BCFB204610BD00002DE9F34101F02AF8E0
:1019C000054601F02BF8002401462346284622460E
:1019D000009411F0C7F9244B244A254D1A60204683
:1019E00002F04EF8234811F0FFF82B78BFF35B8F1D
:1019F000DB0733D428461FF09AFB78B31E4C1F4FE9
:101A00001F4B236007F1180604F1140004F12C08A1
:101A10006060C4F80880E760266108F0F3FF194BA6
:101A20006361404608F0EEFF174BE362384608F06A
:101A3000E9FF164B3B6007F1140002F0F9F922466A
:101A400007F11401304602F0E9F9304601F0D2FC0A
:101A500028461FF078FB0E4820F0A4F90D4802B08C
:101A6000BDE8F041FFF7FEBA6CD30020C042002071
:101A7000A00100201C000020A4010020B0340020A0
:101A80007C340208E03302081434020848340208A7
:101A900091190008444200200148FFF7FDBA00BF39
:101AA0004442002070B5244C244E254B254D236024
:101AB0003046FFF7D1FE284614F0D8F9224B002219
:101AC0004FF48071C3E912122049DC60C3E9191296
:101AD0004FF080715967012183F878101C491D4C23
:101AE0000B601D491A854FF4507008804FF4F07157
:101AF000C3E90422C3E90622C3E90822C3E90E228E
:101B0000C3E91022C3E91422C3E9162283F82A206C
:101B1000DA621A861A6683F86C201A67C3E90165CF
:101B200021800E4C83F8342022700D4C0D4A208009
:101B30000D481A60018070BD203600202436002038
:101B40008C2F0208C4420020444200200100000102
:101B5000F0D20020E6D20020E4D20020E8D200201B
:101B6000EAD2002070300208ECD200200148FFF7D2
:101B700057BE00BF24360020024B902283F85A2320
:101B8000704700BF00E100E0024B4FF080629A60B6
:101B9000704700BF00E100E07047704738B5044669
:101BA00009F067FC2368DD6D0DF094FF01462046C7
:101BB000A8472368D3F8805000231A464FF04041CD
:101BC0002046A847012384F84A3038BD09F004BCF8
:101BD00009F05DBD044B4FF08062C3F88820BFF36D
:101BE0004F8FBFF36F8F704700E100E00149002085
:101BF00008F0B2B9051400082DE9FF41244B254F28
:101C00001868254EDFF898804FF4FA7106F042FD0F
:101C100057230293214B1A889B788DF806300523B1
:101C2000ADF80420039301250024032201A93846BE
:101C300006F082FB9DF80430732B07D0742B23D061
:101C400001347223A4B28DF8043002E09DF805300F
:101C50000293002330681A4602A907F0F1FA642CB7
:101C60000ED900231A46D8F8000003A907F0E8FAB5
:101C7000039B2B440393013B762B88BF6D420024CA
:101C8000012006F0BFFCD0E79DF805300393D7E7AD
:101C900034D7002038D7002024440020883402089C
:101CA000284400200148082104F06DBA00280240B1
:101CB00030B595B01022002109A820F0E1F81422D7
:101CC000002102A820F0DCF800241F4B00941A6CBD
:101CD00042F080521A641B6C03F080530093009B07
:101CE0001A4B01941A6842F440421A601B6803F4CC
:101CF000404301930122019B4FF48033CDE9072338
:101D000002254FF480030821CDE90D534FF4B4733D
:101D1000CDE90F1304200623CDE9120307A811957E
:101D200005F0FAFD05F03AF80F23CDE902350494E9
:101D30004FF480534FF4A054052102A8CDE9054388
:101D400005F0AEFB15B030BD003802400070004019
:101D50002DE98048BBB00024C94D03F003F9FFF71B
:101D6000A7FF142200212DA820F08AF803942B6BE2
:101D7000C44843F040032B632B6B03F040030393F1
:101D8000039B04942B6B43F010032B632B6B03F02A
:101D900010030493049B05942B6B43F002032B6305
:101DA0002B6B03F002030593059B06942B6B43F00A
:101DB00008032B632B6B03F008030693069B079421
:101DC0002B6B43F480732B632B6B03F480730793AB
:101DD000079B08942B6B43F020032B632B6B03F0C2
:101DE00020030893089B09942B6B43F480632B63B7
:101DF0002B6B03F480630993099B0A942B6B43F0CC
:101E000080032B632B6B03F080030A930A9B0B94D4
:101E10002B6B43F004032B632B6B03F004030B9336
:101E20000B9B0C942B6B43F001032B632B6B03F088
:101E300001030C930C9B0D942B6B43F400732B63E9
:101E40002B6B03F40073012208210D930D9B04F00A
:101E500095F98D482246102104F090F98B482246CE
:101E6000402104F08BF922468948802104F086F94C
:101E70001127082383482DA94FF001084FF00209CC
:101E8000CDE92D374FF0100ACDE92F4403F0E8FFDC
:101E90007D48CDF8C0902DA94026CDE92DA82F94DE
:101EA00003F0DEFF79482DA9CDE92D68CDE92F4952
:101EB00003F0D6FF4FF488137648CDF8B4802DA9EF
:101EC0004FF0800BCDE92E3403F0CAFF0323704896
:101ED00030932DA9CDE92DB72F9403F0C1FF2246F1
:101EE0000521062003F090F8062003F0BFF86A48A9
:101EF0006A4F6B4B036003F0DBF86A4BC7E90A4497
:101F0000C7E90C443846C7E90034C7E9024403F086
:101F1000DBFA4146384603F08FFB594622465C48BF
:101F2000614F04F02BF9142003F048F8594642465B
:101F3000574804F023F90A2003F040F824222146F0
:101F400017A81FF09DFF1822214611A81FF098FF27
:101F5000342221462DA81FF093FF2C2221460DEBA1
:101F60000B001FF08DFF514B10944FF0040BC7E98D
:101F700000340EA97D233846CDE90E39C7E902B8F1
:101F800003F022FC17A93846CDE91784CDE919449E
:101F9000CDE91B44CDE91D441F9403F03FFE1C22F4
:101FA0002123CDE911230F211923CDE9131338463D
:101FB00011A9CDE9154403F0F4FD5946384603F064
:101FC000DFFD42F21071384603F033FF21463846F8
:101FD00003F097FB4FF480704FF400734FF4806C64
:101FE000CDE92D034FF40063CDE92FC34FF48052A8
:101FF0004FF400534FF4804ECDE931234FF480333A
:10200000CDE933E34FF400324FF48023CDE935239B
:102010004FF400214FF08073CDE9371338462DA9D6
:10202000CDF8E49003F078FDC82320A93846CDE927
:10203000223ACDE9244BCDE92694CDE92044CDE9DF
:102040002844CDF8A88003F0F5FC2146384603F07B
:10205000E0FC17481749CDF8B490C0E900142021DE
:10206000C0E904164FF480524FF4C0714FF480431E
:10207000C0E90923C0E90614032307221CE000BFBE
:102080000038024000280240000C024000180240C4
:10209000001C02400000024064D600207CD70020D3
:1020A0000030024000B002406CD60020006C0140BD
:1020B000BCD70020400100A02DA9CDE93139CDE9E0
:1020C0002E2B3092C0E9024BCDF8CC90046205F083
:1020D000D9FD02F06FFE02F01FFE2146342220A837
:1020E0001FF0CEFE694E6A4AB486C6E90024CA20B3
:1020F0004FF4F1724FF0CB0CC6E9090240F2E31243
:102100003046C6E90BC2C6E90689C6F82090C6E982
:102110000244C6E9044886F8364004F009FDFF2170
:10212000CDE925144FF0050B4FF48061C8234FF41F
:10213000F072CDE9271B4FF04041CDE92329CDE9CD
:1021400029132B9220A922463046CDE92134209430
:10215000ADF8B0408DF8B24004F0B6FD3268936936
:1021600023F001039361384603F0BEFD4146484623
:1021700001F094FF2823152221460094384603F0ED
:10218000E6FD2DA93846CDE92D44CDE92F44CDE912
:102190003144CDE93344CDE93544379403F0BCFCF8
:1021A0004FF448712246304604F0BCFD326839488D
:1021B0009369394EDFF8149143EA08039361374B72
:1021C00004624FF01B0EC0E900384FF48063C0E991
:1021D00004E3C0E9028AC0E9064404F0F7FE02F015
:1021E00061FC02F095FB02F00BFB2D4B3462C6E95B
:1021F000009330464FF48043C6E90434C6E90244F4
:10220000C6E9064404F0B0F9304604F055FA2D94BE
:102210002B6BDFF8BCA043F480032B632B6B03F420
:102220008003224659462D9339202D9B02F0ECFE67
:10223000392002F01BFF1B484FF4E133C0E900A333
:102240000C23C0E90534C0E902440461C46105F00F
:1022500071FFFEF7C0FD06F04DF9134B13482246FF
:10226000414606F0DBF9124B124A1860214612482B
:1022700006F06CF9114B124A18602146114806F01D
:1022800065F9114B186006F047F9FEE788D6002083
:1022900000680140F0D7002010D60020001000A0F8
:1022A000801A060038D70020F8340208A51C000860
:1022B00034D70020D4340208F91B0008ACD5002024
:1022C000B0340208DB0D000830D700200054004075
:1022D00000140140012803D10248082103F053BF34
:1022E000704700BF002802400268034B9A4201D1A8
:1022F00002F052BE704700BF00100040704700005F
:1023000082B00E4B00220092596C41F48041596416
:10231000596C01F48041009100990192196C41F0CF
:10232000805119641B6C03F080530193019B0F21B2
:102330006FF0010002B002F067BE00BF003802403B
:102340000268094B9A4282B00BD100230193074BDC
:102350001A6B42F480521A631B6B03F4805301938F
:10236000019B02B0704700BF0030024000380240BD
:1023700007B50F4B02689A4216D10022A3F5F0432D
:102380000192196B41F4000119631B6B03F4000304
:10239000019305215A20019B02F036FE5A2003B01A
:1023A0005DF804EB02F062BE03B05DF804FB00BF11
:1023B00000B0024010B5044688B01422002103A8E2
:1023C0001FF05EFD2268184B9A422AD103F54C4358
:1023D000002401945A6C154842F000625A645A6C09
:1023E00002F000620192019A02941A6B42F40072A8
:1023F0001A631B6B03F4007302930422029B0223F3
:10240000CDE9032303A90D230793CDE9054403F088
:1024100027FD5C202246052102F0F6FD5C2002F03B
:1024200025FE08B010BD00BF006C01400024024032
:1024300030B5044689B01422002103A81FF020FD06
:1024400022681A4B9A422FD1194C1A48002501953F
:10245000236B43F002032363236B03F00203019316
:10246000019B4FF440721223CDE903230121032382
:10247000CDE90513042303A9079303F0F1FC0295AA
:10248000236C43F400132364236C03F400130293BE
:10249000029B236A43F400132362236A23F400138C
:1024A0002362642002F08AFD09B030BD0054004070
:1024B000003802400004024008B502680A4B9A4204
:1024C00010D10A4A0A48136C23F4001313644FF422
:1024D000807103F0ABFDBDE8084005484FF4007182
:1024E00003F0A4BD08BD00BF005400400038024006
:1024F0000004024010B5044690B03C22002101A81F
:102500001FF0BEFC2268134B9A4221D1082301938D
:102510004FF4B47305930024062301A808930B9489
:1025200005F098F808B1FFF7E9FE0B4B00945A6CE0
:1025300042F080625A645B6C03F080630093582021
:1025400000220521009B02F05FFD582002F08EFD65
:1025500010B010BD0068014000380240F0B50446DC
:1025600089B01422002103A81FF08AFC2268244BA2
:102570009A4243D1234B2448002400949A6B42F0A2
:1025800002029A639A6B02F002020092009A01948E
:102590001A6B42F002021A631A6B02F002020192F5
:1025A000019A02941A6B42F020021A631B6B059485
:1025B00003F02003029302260325029B0A274023EF
:1025C00003A9CDE90336CDE9065703F049FC4FF4E2
:1025D0009863CDE903360D48092303A90793CDE994
:1025E000054503F03DFC4FF440730848079703A9E5
:1025F000CDE90336CDE9054503F032FC09B0F0BD65
:10260000001000A000380240000402400014024004
:1026100008B50268094B9A420FD1094A0948936BE1
:1026200023F002039363402103F000FDBDE808405E
:1026300005484FF4F86103F0F9BC08BD001000A094
:1026400000380240000402400014024070B5064603
:1026500088B01422002103A81FF012FC3268214B1D
:102660009A423CD1002503F5923301955A6C1E48DD
:102670001E4C42F020025A645A6C02F02002019271
:10268000019A02951A6B42F040021A631B6B059582
:1026900003F040030293029B4FF484420223CDE9EE
:1026A000032303210823CDE9061303A903F0D8FB74
:1026B0000F484FF02063C4E900034FF480632046C5
:1026C000C4E90255C4E90435C4E90655C4E908550E
:1026D00002F014FD08B1FFF711FEB463A66308B061
:1026E00070BD00BF0014014000180240B0D50020AA
:1026F00028640240F0B5314B1C6887B0002C5BD1D8
:1027000001221A602E4B00949A6B2E4842F001026F
:102710009A639B6B039403F0010300930227032643
:102720000C25009B01A94FF68373CDE90137CDE954
:10273000046503F095FB48F233132348059501A97E
:10274000CDE90137CDE9034603F08AFB4CF2037370
:102750001E48059501A9CDE90137CDE9034603F0EF
:102760007FFB40F2FF631A48059501A9CDE90137C7
:10277000CDE9034603F074FB4FF63F03154805957A
:1027800001A9CDE90137CDE9034603F069FB4FF418
:102790007F431148059501A9CDE90137CDE90346ED
:1027A00003F05EFB0D230D48059501A9CDE9013726
:1027B000CDE9034603F054FB07B0F0BD40430020D1
:1027C000003802400010024000180240000C024095
:1027D0000020024000140240001C02400008024099
:1027E00008B5174B1A6852BB01221A60154A1648E1
:1027F000936B23F0010393634FF6837103F016FC90
:10280000124848F2331103F011FC11484CF20371E5
:1028100003F00CFC0F4840F2FF6103F007FC0E4888
:102820004FF63F0103F002FC0C484FF47F4103F0E8
:10283000FDFBBDE808400A480D2103F0F7BB08BDC9
:102840003C430020003802400010024000180240C3
:10285000000C02400020024000140240001C024014
:102860000008024030B5014689B00022362002F04F
:10287000CBFB362002F0FAFB0025154B02951A6CB3
:10288000144C42F010021A641B6C03F01003029304
:1028900001A903A8029B04F0BFFE04F09DFE0E4BAD
:1028A000236040F2E733E36040000C4BB0FBF3F0F1
:1028B0000138606020462561A56005F081FB20B9E4
:1028C000204605F037FA09B030BD0120FBE700BF14
:1028D000003802403CD800200010004040420F0069
:1028E0007047FEE7FEE7FEE7FEE77047012003F0D2
:1028F00053BC0000014805F05BBA00BF3CD8002083
:10290000014802F023BD00BFB0D50020014804F00B
:102910007EB900BF88D60020014802F003BE00BF88
:102920007CD70020014803F002B800BF6CD600201D
:102930000120704708B51FF049FA162303604FF0D5
:10294000FF3008BD08B51FF041FA16230360FEE70B
:1029500070B50E4614460025A54201DB204670BD29
:10296000AFF3008070550135F6E770B50E4614469A
:102970000025A54201DB204670BD705DAFF30080ED
:102980000135F6E74FF0FF3070474FF400534B60CE
:1029900000207047012070470020704708B50A4B9F
:1029A0001968024609B9094919601868694602445C
:1029B0008A4206D91FF00AFA0C2303604FF0FF3059
:1029C00008BD1A60FCE700BF4443002028D900205E
:1029D000704710B5042104461EF0A7FB204610BD29
:1029E00008B5032913D8DFE801F002060A0E01F04A
:1029F00093F8006808BD01F08FF84068FAE701F02D
:102A00008BF88068F6E701F087F8C068F2E70020ED
:102A1000F0E70000004870471C35020805207047A9
:102A200013B5002451B1036801948DF8034001AA45
:102A30009C680DF10303A04702B010BD0846FBE7F8
:102A40004089704780897047808870478379808883
:102A5000184480B27047C07900F07F007047C07999
:102A6000C00970470020704781807047C18070475F
:102A700001817047418170477047704770477047C8
:102A8000704710B4C4880368121B84881B6D091B2F
:102A900012B25DF8044B09B218474FF6FF738381F9
:102AA0004FF0FF3303621368C361106070477047D3
:102AB000704770477047704790F825201AB190F81A
:102AC000242002B118607047704770477047704704
:102AD00030B4C26844685510034604EB6200D20764
:102AE00048BF62599B6830BC48BFD35818474368F9
:102AF0002BB183682BB9C06800F0010070471846FD
:102B000070470120704710B5082104461EF00DFBE8
:102B1000204610BD10B5102104461EF006FB2046CD
:102B200010BD10B543F2D82104461EF0FEFA20462F
:102B300010BD00F52470884208B505D10CF0CAFF1D
:102B4000BDE8084000F066BC08BD08B529B90CF026
:102B5000C1FFBDE8084000F05DBC08BD70B503686A
:102B60000446DB6A154698472368294620461B6BB6
:102B7000BDE87040184770B504461D46BDF91060A9
:102B8000FFF7ECFF2368294620465B6B98472368D4
:102B9000314620469B6BBDE870401847094A0260E9
:102BA0004FF4807100228184FF21C0E90122C0E935
:102BB0000322C0E90522C0E9072280F826108262BC
:102BC000704700BFF453020870B5FF22134E027223
:102BD000134A0260326892F876100023C0E903338A
:102BE0000446436009B1D06C00B9906803685B6A21
:102BF00098473368B0FA80F5D86C6D0928B103683E
:102C00005B6A9847002808BF01252DB9054B064A85
:102C100006482C211FF0A8F8204670BDF0D20020F5
:102C2000C850020880350208DE350208173602084F
:102C30004FF4807181840B4901600B4981624FF62A
:102C4000FF71002281854FF47F01C0E90122C0E9B4
:102C50000322C0E90522C0E907220263416302871B
:102C6000704700BF4C5302089037020873B5018FBC
:102C70004FF6FF739942064633D01C4B1B682BB9A5
:102C80001B4B1C4AAE211C481FF06EF81B4A1288D1
:102C90008A4203D81A4B174AAF21F4E713F81120E0
:102CA000184B1B6853F82250174B186800F024FF8C
:102CB0002B68019001469B6A284698472B6801992A
:102CC0001B6C0446284698472B6801995B6A14FBE5
:102CD00000F428469847E4B2044486F8454002B020
:102CE00070BD002380F84530F9E700BF60D30020B5
:102CF00079360208BB360208E936020864D30020A0
:102D00003037020868D300206CD300202DE9F04F43
:102D10002DED048B044687B00EF08EFA2246002576
:102D2000774BE56342F8403B104608EE102AFFF768
:102D300035FF04F16C0304F19806184609EE903A49
:102D400004F50E77FFF72AFF30460AF0E9FB384614
:102D5000FFF73AFF04F5147A6A4BC4F83832C4F826
:102D60004C525046FFF764FF04F52479664BC4F8D3
:102D70005032C4F88C52484604F536780BF042F9CC
:102D80004046FFF755FF614BC4F8D83204F547734E
:102D90001846C4E9C55508EE903A0BF033F904F52E
:102DA0005973184609EE103A0BF02CF9584BC4E948
:102DB000FA34584B4FF4F07BC4E9FC3542F6E0613D
:102DC00004F57E700BF04CF918EE100ACDF800B047
:102DD0004FF448732A462946FFF7CDFE4FF07F4354
:102DE0002A4619EE900AA366CDF800B04FF4487356
:102DF0002946FFF7C0FE484BC4F8943004A94FF0B1
:102E000002033046ADF810304FF4967B08F09CF882
:102E10000522294630460AF0BBFB4FF41673B42254
:102E200064213046CDF800B0FFF7A5FE5A4659465A
:102E300030460AF02CFC5A226FF0590130460AF055
:102E4000ABFC2B46782229463046009507F0AEFFB2
:102E5000392130460AF04AFC3049304607F031FF4C
:102E60000322114640F2131330460AF0FBFB012106
:102E700030460AF092FB012130460AF091FB012115
:102E800030460AF090FB264BC4F84C3230460AF02C
:102E90008DFB03683946DB6D984730460AF086FBA8
:102EA0004FF4FA53836330460AF080FB4FF4C86353
:102EB000436430460AF07AFBB42109F0E9FB4FF491
:102EC000B37240F231115046FFF748FE4FF07F4396
:102ED000C4F88032134BA4F884521B6804F56B7756
:102EE0002BB9114B114AAE2111481EF03DFF114B79
:102EF0001B88072B22D8104B0C4AAF21F4E700BFE8
:102F0000B8370208A85002084C560208C4560208F6
:102F1000A0370208332B0008737373FF9D15010857
:102F2000C59714FF60D3002079360208BB3602082B
:102F3000E936020864D30020303702086F4B0721BE
:102F4000186800F0D9FD6E4A03460A2138460FF092
:102F50003DFEC4F88C7250460AF058FA694A049251
:102F600004A95046ADF814500AF06DFA2A462946D5
:102F70004846FFF7F3FD04A90A464FF0010B03A9E9
:102F80004846ADF810B0ADF80C500AF02AFCA4F891
:102F9000C8B24846FFF76AFE4FF0FF3704F57A7370
:102FA000C4F8B832D721C4E9B3772A224046FFF7E4
:102FB000D5FD4FF07F41C4F808135349A4F80C53D2
:102FC0000B6804F5707B002B8BD050480388052BD1
:102FD00091D94A4B0521186800F08EFD0A2103465D
:102FE000474A58460FF0F2FD4749C4F814B30B683E
:102FF00004F5757B002B3FF474AF44480388062B1F
:103000007FF679AF3D4B0621186800F075FD3C4A0C
:1030100003460A2158460FF0D9FDC4F818B34046BC
:103020000AF0F4F90423374AADF8143004A94046F5
:1030300004920AF008FA18EE900A192240F276215A
:10304000FFF78CFD4FF0010B04AA03A918EE900ABC
:10305000ADF80C50ADF810B00AF0C3FB4FF002030E
:10306000A4F8543318EE900AFFF700FE19EE100A88
:10307000C4E9D6776E2240F27621FFF76FFD04AAED
:1030800003A919EE100AADF80C50ADF810B00AF013
:10309000A8FB0323A4F89C33251D19EE100AFFF7A3
:1030A000E5FD18EE101A2846C4E9E87708F04EF856
:1030B00019EE901A284608F049F83146284608F0DB
:1030C00045F85146284608F041F84946284608F098
:1030D0003DF84146284608F039F818EE901A28467F
:1030E00008F034F8284619EE101A08F02FF8204698
:1030F00007B0BDEC048BBDE8F08F00BF6CD300209F
:10310000823702089037020860D3002064D3002081
:103110007047704710B54FF4057104461EF005F86E
:10312000204610BD2DE9F04F044689B0A046002589
:103130000EF082F8634BE56348F8403B04F16C0AFB
:103140004046FFF72BFD5046FFF728FD4FF48073F4
:10315000A4F8BC305C4BC4F8C0304FF6FF73A4F841
:10316000C4304FF47F0304F1D807C4F8CC30574B78
:10317000C4F8983004F59076C4E92755C4E9295578
:10318000C4E92B55C4E92D55C4F8C850A4F8D05053
:10319000C4F8D45038460AF035FF4FF4F07B30467F
:1031A00007F0F6FC2A4629464046CDF800B04FF419
:1031B0004873FFF7E0FC4FF07F42A26629462A469B
:1031C0005046CDF800B04FF44873FFF7D4FC04F13B
:1031D00098093F4BC4F894306A2148468122FFF792
:1031E000BDFC4FF07F4204F50073C4F8C820C4F85A
:1031F000D4304846A4F8CC50A4F800520AF006F99E
:10320000314B069306A908234846ADF81C300AF056
:103210001AF92A4629463846FFF7A0FC06AA05A94E
:1032200001233846ADF81830ADF814500AF0D9FA39
:103230000923A4F810313846FFF718FD4FF0FF338B
:10324000C4E945333046B8226A21FFF787FC0222E1
:103250001023009311463046B42307F0F3FB782285
:103260002B4629463046009507F0A0FD29463046FA
:1032700007F0E5FC042306A93046ADF8183007F046
:1032800063FE3046134907F0C7FB30463C2107F088
:10329000F1FB201D4146039007F058FF039851466B
:1032A00007F054FF0398494607F050FF039839464A
:1032B00007F04CFF0398314607F048FF204609B05D
:1032C000BDE8F08FEC370208903702084C56020830
:1032D0003C3C3DFFBFFF00FF704700F59673086858
:1032E000496803C370477047704741607047704733
:1032F0000123037270477047704710B4C268416879
:103300005410034601EB6200D20748BF0A599B687C
:103310005DF8044B48BFD358184743682BB1836806
:103320002BB9C06800F001007047184670470120B3
:10333000704710B50C2104461DF0F7FE204610BD65
:1033400010B5102104461DF0F0FE204610BD10B54A
:103350004FF4AC7104461DF0E8FE204610BD10B5D8
:103360000CF0B8FB0368BDE810401B6B184710B5A4
:103370000446D0F83C0158B10368DB68984738B17F
:10338000D4F83C0103689B6898470023C4F83C319B
:1033900010BD0000F8B5044617460E460CF002FCBE
:1033A000104B0025C4E954760F4E1C60C4E95255F9
:1033B0000E4B306823600E4BC4E950350368294634
:1033C0009B68C4E94E559847284600F059FB33687E
:1033D00093F876200AB1D86C00B9986814F079FA9D
:1033E0002046F8BD5CD30020F0D200206C3C0208DF
:1033F000543C0208064BC0F848310023C0F84C3159
:1034000000F5A073C0F84401C0F83C31704700BF1C
:1034100075350008064BC0F848310023C0F84C3120
:1034200000F5A073C0F84401C0F83C31704700BFFC
:10343000DD3600082DE9F84F07469068DDF828A032
:10344000994603681B6A88461446984743F2D72377
:10345000984205D8414B424AA32142481EF084FCC1
:10346000606803681B6A98470F2803D83E4B3C4AA4
:10347000A421F2E7E06803681B6A98470B2803D889
:103480003A4B374AA521E8E70CF024FB0CF070FB1F
:10349000D9F8000010B10368DB689847D9F800003C
:1034A00010B103681B689847386810B103685B69FE
:1034B0009847D8F8000010B103685B6898473868EF
:1034C00010B103681B689847D8F8000010B1036872
:1034D0009B689847E068036800215B6A98474FF053
:1034E000000B234B03600546C0F804B080F808B019
:1034F000A068036859465B6A9847064600F070FB6F
:103500006068036859465B6A98473146044600F094
:103510004DFBC9F80050C8F800403E60E4B1231DDF
:10352000CAF800303368C4F808A03046DB68F4639A
:103530009847236820461B689847294630460DF077
:10354000F8FF2B6828461B6998472B6828465B695B
:1035500098472046BDE8F88F2346E1E7183802086F
:10356000A6380208B0390208F73902089A3A020868
:10357000B03C020807B5D0F854310093D0F8502180
:10358000044B00F59C710448FFF754FF03B05DF84D
:1035900004FB00BF50D300204CD300202DE9F84F8E
:1035A00007469068DDF828A0994603681B6A88469C
:1035B00014469847B0F5057F05D2424B424AA321F5
:1035C00042481EF0D1FB606803681B6A98470F28C9
:1035D00003D83F4B3C4AA421F2E7E06803681B6A2A
:1035E00098470B2803D83B4B374AA521E8E70CF056
:1035F00071FA0CF0BDFAD9F8000010B10368DB686D
:103600009847D9F8000010B103681B6898473868DC
:1036100010B103685B699847D8F8000010B10368DF
:103620005B689847386810B103681B689847D8F8FA
:10363000000010B103689B689847E06803680021A8
:103640005B6A98474FF0000B234B03600546C0F8B8
:1036500004B080F808B0A068036859465B6A9847D0
:10366000064600F051FB6068036859465B6A98475C
:103670003146044600F02EFBC9F80050C8F800405F
:103680003E60E4B1231DCAF800303368C4F808A0D6
:103690003046DB68F4639847236820461B689847E8
:1036A000294630460DF045FF2B6828461B69984790
:1036B0002B6828465B6998472046BDE8F88F23466B
:1036C000E1E700BF183802083D3B0208B0390208A4
:1036D000F73902089A3A0208B03C020807B5D0F858
:1036E00054310093D0F85021044B00F59C710448EC
:1036F000FFF754FF03B05DF804FB00BF50D3002078
:103700004CD30020006A7047406A704770478B882E
:1037100080690A68DB0A50F823001044704710B52E
:10372000C2B1137BB3B1547BD27A240204F4E064B7
:103730001443C26998B202EB840213888B4202D10F
:1037400092F9020010BD05D8013880B20432002879
:10375000F3D1F7E70020F5E710B5282104461DF066
:10376000E4FC204610BD000030B589B00446BDF829
:1037700050500695BDF84C5005959DF84050049565
:103780009DF83C5003959DF8385002959DF83450B3
:1037900001959DF8305000950DF01CFA064B236002
:1037A000119BA361129BE361159B2362169B6362CD
:1037B000204609B030BD00BFD43C0208704700006D
:1037C00030B5164D2C78BFF35B8F14F001048DB02B
:1037D00020D128461DF0ABFCE0B13F230793104BEE
:1037E0000693104B104911480894CDE90443012277
:1037F0000423CDE90132022300930F226423CDE993
:1038000009440394FFF7B0FF28461DF09CFC0848CC
:103810001EF0C8FA05480DB030BD00BF4843002077
:103820000C770208243D020808BB05904C43002099
:10383000BD3700087047000030B5154D2C78BFF338
:103840005B8F14F001048DB01FD128461DF06FFC72
:10385000D8B13F2307930F4B06930F4B0F491048E6
:103860000894CDE9044301220423CDE90132CDE9D6
:1038700009440A230D2203940094FFF775FF28469C
:103880001DF061FC07481EF08DFA05480DB030BDF3
:103890007443002010770208283D0208DCBB059025
:1038A00078430020353800087047000030B5154DCA
:1038B0002C78BFF35B8F14F001048DB01FD1284624
:1038C0001DF035FCD8B13F2307930F4B06930F4BE8
:1038D0000F4910480894CDE904430123CDE9023390
:1038E0000423CDE900331E221423CDE90944FFF758
:1038F0003BFF28461DF027FC07481EF053FA0548F9
:103900000DB030BDA0430020147702082C3D020802
:1039100094BC0590A4430020A9380008704700001B
:1039200030B5164D2C78BFF35B8F14F001048DB0C9
:1039300020D128461DF0FBFBE0B13F230793104B3D
:103940000693104B104911480894CDE90443012215
:103950000423CDE901320823009312222823CDE964
:1039600009440394FFF700FF28461DF0ECFB0848CC
:103970001EF018FA05480DB030BD00BFCC43002042
:1039800028770208303D020838BE0590D043002059
:103990001D39000800207047002070470EB403B5A1
:1039A00003AB002153F8042B01930CF031FF02B05C
:1039B0005DF804EB03B070470CB407B504AB53F8E3
:1039C000042B01930CF024FF03B05DF804EB02B06C
:1039D00070470000C36B10B5044673B3038E2BB958
:1039E000184B194ABF2119481EF0BEF9C38D00EBD0
:1039F00043035B8B0BB30EF02FFB238E012B03D8FD
:103A0000134B144AC421EEE7E28D531C9BB2092BE1
:103A1000194688BFA3F10A0104EB410140F63F10AB
:103A2000498B814209D10A2B04EB420228BF0023B3
:103A300004EB4303508B588351832046BDE810406C
:103A40000EF0EEB9343D02083D3D0208E83D0208A3
:103A5000323E0208403E02080EF09CB910B586B016
:103A600002AC84E806001A460AAB05930193099B51
:103A700000932146089B0BF0B6FB06B010BD00007A
:103A800038B518BB124B13481B681349B3B11A68F9
:103A90009C681A4402605A681A440A601C440F4B1E
:103AA00000221A8000F038F8054600F033F80C4B7D
:103AB0001C600C4B1D600C4B188007E00B4B036027
:103AC0000B4B0B600B4B1C68002CE8D138BD00BFC2
:103AD000F8430020FC430020004400200444002060
:103AE00060D3002068D3002064D300205CBF059021
:103AF00034BF0590DCBF0590044B1B6853F82100D0
:103B0000034B1B6803EB4000704700BF00440020DC
:103B1000FC4300200A2070470048704708440020FA
:103B200010B5FFF7C3FE064C2060FFF7F9FE60609A
:103B3000FFF782FEA060FFF743FEE06010BD00BF0C
:103B4000084400207047043870477047C068036815
:103B500000219B6A1847A0F10400FFF7F7BF10B5DA
:103B6000102104461DF0E1FA204610BDA0F104002A
:103B7000F5E78068002100F085B9C06800F03AB828
:103B8000A0F10400FFF7F9BF07EE901AC068B8EE85
:103B9000E70A00F059B8A0F10400FFF7F5BFC068CC
:103BA00000F054B8A0F10400FFF7F9BF10B50022EF
:103BB0008260044AC16002F108043032046042604D
:103BC00010BD00BF143F020870477047FEF77EBF6C
:103BD00010B543F2D82104461DF0A7FA204610BDC7
:103BE00010B50446FFF792F8014B2360204610BD44
:103BF000783F0208092970B505460C4600F56B7040
:103C000013D80E4A0B460A2105F514760EF0DEFF96
:103C1000304609F0FBFB05F19800214609F066FDEE
:103C20003046BDE870400CF014BFA1F10A03592BD7
:103C300094BF034A034A0B46E5E700BF5C3F020816
:103C4000623F0208673F02087047000037B50B4625
:103C5000044615460A210B4A00F570700EF0B6FFB7
:103C6000084A2B460A2104F575700EF0AFFF04F5E3
:103C70003670019009F0CAFB019803B0BDE83040EE
:103C80000CF0E7BE6A3F020870470438704770477F
:103C9000C068036800219B6A1847A0F10400FFF781
:103CA000F7BF7047704710B5102104461DF03DFA6C
:103CB000204610BDA0F10400F5E78068012100F066
:103CC000E1B8C06800F02CB8A0F10400FFF7F9BF1C
:103CD0007047704710B500228260044AC16002F14B
:103CE000080430320460426010BD00BFA43F0208E7
:103CF00070477047FFF70DBA10B54FF405710446D1
:103D00001DF013FA204610BD10B50446FFF70AFA5D
:103D1000014B2360204610BDF43F02080000000064
:103D2000092970B504460D4600F5007035DC2C4AB3
:103D30000B460A2104F198060EF048FF04F5907432
:103D4000304609F063FB0021204606F093FE204632
:103D50004FF07F4106F060FE3B2D284625DCFCF746
:103D6000F1FB204B0022FCF781FD1BA3D3E90023CC
:103D7000FCF752FCFCF762FE000400F47F0141F006
:103D8000FF21204606F048FE2046294606F072FE36
:103D90003046BDE870400CF05CBEA1F10A03592B1F
:103DA00094BF114A114A0B46C3E7FCF7CBFB0D4BFE
:103DB0000022FCF779FA0B4B0022FCF757FD06A313
:103DC000D3E90023FCF728FCFCF738FE0849C04380
:103DD000C0B241EA0021D4E70000000000E06F40DB
:103DE0005C3F020800004E40623F0208673F020845
:103DF0000000FFFF704710B54FF4AC7104461DF092
:103E000094F9204610BD10B50446D0F8540100F0D6
:103E100061F82046BDE810400BF056BD10B50446D1
:103E2000FFF7B8FA014B2360204610BD2840020876
:103E3000002210B5042104460260012005F098F923
:103E40000C4B042118600022084605F091F90A4B3A
:103E5000012118600022084605F08AF9074B01216C
:103E600018600022084605F083F9054B18602046CB
:103E700010BD00BF2444002028440020204400201E
:103E80001C440020054B196039B90068044A0368D6
:103E900004491B691268096818477047240000200C
:103EA0003444002018440020024A13680133136090
:103EB000704700BF18440020054908B50B683B2B2C
:103EC00002D801330B6008BDFFF7EEFF0023F9E7CE
:103ED0003444002070B5244B244D04460022186859
:103EE000294605F015FB012807D1214B1B6823B992
:103EF0002068297803689B6898471E4B1E491868FC
:103F0000002205F005FB012810D1194B1B686BB985
:103F10001A4B1B7853B92046FFF7CEFF2068184A8A
:103F2000036818491B69126809689847164B174DB2
:103F300018680022294605F0EBFA012804D1206810
:103F400029680368DB689847114B124918680022FA
:103F500005F0DEFA012805D120680368BDE870404D
:103F60005B69184770BD00BF244400202D44002029
:103F700024000020204400202C44002020000020A9
:103F800034440020184400202844002030440020FD
:103F90001C4400202100002070470020704710B50D
:103FA000044600F07DFBA821E0B200F093FB80B254
:103FB00010BD000013B500240221C0B28DF80740E7
:103FC00000F088FB8DF807009DF8073003F00F0321
:103FD0008DF807309DF80730022B88BF8DF8074019
:103FE000044B9DF807209DF807005A7000229A7034
:103FF00002B010BD3A44002073B5154C1546A378A5
:1040000062789A420E461FD903B3012B14BF0021D8
:10401000092104230DEB0302C0B200F077FB9DF8E9
:1040200004309DF805201B0203F4706313433380B2
:104030009DF806309DF807201B0203F470631343BC
:104040002B80A3780133A37002B070BD0321E0E799
:104050003A4400200122A421C0B200F023BB002278
:10406000A421C0B200F01EBBFFF7F9BF70470000EB
:1040700010B4094B1A7890420AD05978884207D078
:104080000AB129B9012298545DF8044B00F008BB2D
:104090005DF8044B704700BF3844002038B5044633
:1040A0000D460020CB49FDF7ADF8CB490320FDF7C5
:1040B000A9F8CA490020FDF7A5F8C9490220FDF773
:1040C000A1F8C6490020FDF79DF8C6490020FDF77C
:1040D00099F80A2000F030FBC3490020FDF792F860
:1040E000C2490020FDF78EF80A2000F025FBC049E8
:1040F0000020FDF787F8BF490020FDF783F8BE498F
:104100000020FDF77FF8BD490020FDF77BF8BC4992
:104110000020FDF777F8BB490020FDF773F8AD49A3
:104120000020FDF76FF8B8490020FDF76BF8B7499C
:104130000020FDF767F8B6490020FDF763F8B549A0
:104140000020FDF75FF8B4490020FDF75BF8B349A4
:104150000020FDF757F8B2490020FDF753F8B149A8
:104160000020FDF74FF8A5490020FDF74BF89949CD
:104170000020FDF747F8AC490220FDF743F8AB49B2
:104180000020FDF73FF8AA490020FDF73BF8A949B8
:104190000020FDF737F8A8490020FDF733F8A749BC
:1041A0000020FDF72FF8A6490020FDF72BF89749CE
:1041B0000020FDF727F8A3490020FDF723F89549D3
:1041C0000020FDF71FF8A0490020FDF71BF89F49CC
:1041D0000020FDF717F89E490220FDF713F87F49EC
:1041E0000020FDF70FF89B490620FDF70BF89A49D0
:1041F0000020FDF707F899490E20FDF703F89849CC
:104200000020FCF7FFFF97490E20FCF7FBFF9649C3
:104210000020FCF7F7FF95490A20FCF7F3FF9449CB
:104220000020FCF7EFFF93490020FCF7EBFF6B4900
:104230000020FCF7E7FF90490A20FCF7E3FF8F49D5
:104240000020FCF7DFFF8E490F20FCF7DBFF8249DF
:104250000020FCF7D7FF8B490F20FCF7D3FF8049E4
:104260000020FCF7CFFF88490A20FCF7CBFF7E49EE
:104270000020FCF7C7FF85490F20FCF7C3FF7C49EE
:104280000020FCF7BFFF82490F20FCF7BBFF8149EC
:104290000020FCF7B7FF80490A20FCF7B3FF7F49F5
:1042A0000020FCF7AFFF7E490A20FCF7ABFF4B492B
:1042B0000020FCF7A7FF7B490A20FCF7A3FF6F490A
:1042C0000020FCF79FFF78490F20FCF79BFF624915
:1042D0000020FCF797FF75490F20FCF793FF60491A
:1042E0000020FCF78FFF72490A20FCF78BFF5E4924
:1042F0000020FCF787FF6F490F20FCF783FF5C4924
:104300000020FCF77FFF6C490F20FCF77BFF3F4943
:104310000020FCF777FF69490020FCF773FF68492C
:104320000020FCF76FFF67490020FCF76BFF664930
:104330000020FCF767FF65490020FCF763FF254973
:104340000020FCF75FFF62490320FCF75BFF214977
:104350000020FCF757FF1F490020FCF753FF5D4981
:104360001020FCF74FFF1B490020FCF74BFF5A4978
:104370001020FCF747FF00205849FCF743FF782046
:1043800000F0DAF9002C00F0C980022C03D1544966
:104390000020FCF737FF012D0BD152490020FCF71C
:1043A00031FF51490420FCF72DFF50490420FCF750
:1043B00029FF4F490020FCF725FF4E490020FCF75C
:1043C00021FF4D490020FCF71DFF4C490020FCF760
:1043D00019FF95E064400208CA4002087A400208CA
:1043E0005041020890400208A6400208BC40020862
:1043F000C2400208C4400208C6400208C840020881
:1044000066400208684002086A4002086C400208E0
:104410006E400208704002087240020874400208B0
:104420007640020878400208CE4102087C4002082B
:104430007E40020880400208824002088440020850
:1044400086400208884002088A4002088C40020820
:10445000D1410208D44102088E400208DB41020823
:1044600092400208EA41020894400208CE40020845
:1044700096400208B4400208D94002089840020859
:10448000E4400208F4400208044102080F41020817
:104490001F4102089A4002082F4102089C4002086E
:1044A0003A410208454102085341020863410208AB
:1044B000734102087E4102088E410208B64002089C
:1044C000B8400208BA400208BE400208C0400208D4
:1044D0009E410208AC410208BD4102089E4002080C
:1044E000A0400208A4400208A2410208A741020815
:1044F000A8400208AA400208AC400208AE400208E8
:1045000008490020FCF77EFE07490020FCF77AFEF0
:1045100006490020FCF776FE002038BD04492046FD
:1045200037E700BFB040020864400208B24002080A
:10453000A240020870B52E4D88B0284602F06EFAEF
:104540000446002851D12B4A2B4B2C4E0190C5E933
:1045500000234FF48043C5E90200C5E90430C5E9F2
:1045600006002862336B43F002033363336B05901C
:1045700003F002030193019B4FF480711223CDE9F4
:10458000031302200423CDE9060303A91C4801F00C
:1045900067FC4FF400731A48039303A901F060FC11
:1045A0000294336C43F400133364336C03F400134C
:1045B0000293029B336A43F400133362336A23F499
:1045C00000133362224605211F2000F01DFD1F202D
:1045D00000F04CFD22460521202000F015FD202092
:1045E00000F044FD284601F0BFFF08B070BD00BFD9
:1045F0004044002000540040801A06000038024069
:104600000004024008B5034802F056F8BDE808402F
:10461000FFF790BF4044002010B586B0194B00242E
:1046200000941A6B42F001021A631B6B03F0010342
:104630000093009B69B90123CDE901310223049362
:10464000114B039153F8200001A901F009FC06B0B9
:1046500010BD0129FBD1022304934FF48813029368
:10466000094B019153F82000039401A901F0F8FBD4
:1046700022460F21062000F0C7FC062000F0F6FCC1
:10468000E5E700BF003802405000002008B5034BAA
:10469000012153F8200001F06BFD08BD50000020FF
:1046A000FFF748BF7FB501238DF817206422CDE9BD
:1046B00001320DF1170200920A460146044802F049
:1046C00015F808B1FFF79EFF07B05DF804FB00BFC7
:1046D000404400207FB500230A468DF817304FF480
:1046E0007A710123CDE901310DF1170100910146E5
:1046F000054802F08BF808B1FFF784FF9DF817001A
:1047000007B05DF804FB00BF404400201FB54FF424
:104710007A74CDE90134009201230A460146054826
:1047200002F074F8044608B1FFF76CFFA0B204B0C1
:1047300010BD00BF4044002000F040BC00B595B063
:104740004FF480720C924FF08071052206920F9107
:1047500000220121CDE90312CDE90D22CDE911227C
:104760000B9213920092102202924FF480020346A1
:104770000191059206A96A46044802F0D2FC00386D
:1047800018BF012015B05DF804FB00BF84D80020DD
:1047900000B595B04FF480730C9306230693174829
:1047A000002341F2883206A9CDE90D33CDE911335A
:1047B0000F930B93139302F070FCE0B90223CDE941
:1047C000003301221023CDE902324FF4800105238A
:1047D000CDE905134FF0807304900F93074841F221
:1047E00088336A4606A902F09CFC003818BF0120F5
:1047F00015B05DF804FB0120FAE700BF84D8002063
:1048000000B591B04FF480730893EB2302934FF4FB
:10481000406309934FF4005305934FF04072002317
:10482000CDE90A320A22079202A96A4606480F9386
:10483000CDE90D33019302F0C4FC003818BF01200C
:1048400011B05DF804FB00BF84D8002070B588B0BB
:104850002C4B2D48002400949A6B42F002029A637C
:104860009A6B02F002020092009A9A6942F00202E8
:104870009A619A6922F002029A6101941A6B42F0DD
:1048800002021A631A6B02F002020192019A029468
:104890001A6B42F020021A631B6B03F02003029391
:1048A0004022029B0223CDE9032301210323CDE90A
:1048B00005130A2603A90925079601F0D1FA4FF43A
:1048C000806303A9114803930594079501F0C8FA82
:1048D0004FF4407303A90D480393079601F0C0FA03
:1048E000C02303A909480393079501F0B9FA2246AA
:1048F0000F215B2000F088FB5B2000F0B7FB08B0C5
:1049000070BD00BF003802400004024000140240A5
:10491000F0B5484C484B236091B0204602F0AAFB0A
:10492000054610B1012011B0F0BD01462046FFF749
:104930008DFF01261023C4E90166E3604FF0807704
:1049400097FAA7F3B3FA83F3013B236120464FF4B0
:104950008063C4E90535C4E9075502F037FB002838
:10496000E0D1CDE90900CDE90D004FF48075662353
:104970000B9007900F9041F2883202A920460895CB
:10498000029302F08AFB08B10420CCE7992341F29C
:10499000883202A92046029302F07FFB0028F3D15F
:1049A00041F28830FFF7CAFE0028EDD1CDE90900B9
:1049B000CDE90C60CDE90E008523079041F28832E5
:1049C00002A92046089502930B9702F066FB002887
:1049D000DAD141F288320DF10701204602F0D0FC15
:1049E0000028D1D1FFF7D4FE0028CDD18123029336
:1049F000F02292FAA2F29DF807300A21B2FA82F26E
:104A000001FA02F203F00F03134302A941F28832C4
:104A100020468DF8073002F040FB0028B4D141F267
:104A200088320DF10701204602F04EFC00283FF4C9
:104A30007AAFA9E784D80020001000A008B55B2059
:104A400000F022FB1448402101F0F0FA13484FF423
:104A5000806101F0EBFA11484FF4807101F0E6FA41
:104A60000E484FF4007101F0E1FA0C48802101F08A
:104A7000DDFA0A48402101F0D9FA094B9A6942F05F
:104A800002029A619A6922F002029A619A6B22F0FC
:104A900002029A6308BD00BF0004024000140240F5
:104AA0000038024038B5084D084B2B60284602F00C
:104AB000E1FA044628B901462846FFF7BFFF204621
:104AC00038BD0124FBE700BF84D80020001000A0FF
:104AD0002DE9F743214C224D01264FF00008102705
:104AE000214681464FF6FF722846C4E90067C4E9B3
:104AF0000268CDF8048003F0F3F8304600F05EFA67
:104B0000022321464FF6FF722846C4E90037C4E964
:104B1000026803F0E5F80323C4E9003721460823BF
:104B20004FF6FF722846C4E9023803F0D9F84FF473
:104B30000C7301930423C4E900372146019BA6604E
:104B40004FF6FF722846E36003F0CAF8494628464C
:104B500003B0BDE8F04303F0DAB800BF944400208E
:104B60008045002070B506468EB0002800F0BD805C
:104B70005F4B6048604C002500959A6B42F0010243
:104B80009A639A6B02F001020092009A01951A6BE7
:104B900042F480021A631A6B02F480020192019AB5
:104BA00002951A6B42F004021A631A6B02F00402B7
:104BB0000292029A03951A6B42F008021A631A6B6A
:104BC00002F008020392039A04951A6B42F0100255
:104BD0001A631A6B02F010020492049A05951A6B7C
:104BE00042F020021A631A6B02F020020592059A25
:104BF00006951A6B42F040021A631A6B02F04002EB
:104C00000692069A07951A6B42F080021A631A6B95
:104C100002F080020792079A08951A6B42F480729C
:104C20001A631B6B03F4807308930222089B0C9297
:104C30000123CDE90A2309A90C220D92099301F061
:104C40000FF94CF203732D48099309A901F008F9F3
:104C50004FF683732A48099309A901F001F94FF629
:104C60003F032848099309A901F0FAF848F23313E1
:104C70002548099309A901F0F3F84FF60C7323486E
:104C8000099309A901F0ECF840F2FF632048099369
:104C900009A901F0E5F880224FF40073C4E902236A
:104CA0004FF480614FF48053C4E904134FF4804300
:104CB000C4E906354FF40033C4E908350323C4E9D9
:104CC0000A352563134B3463204623606560A66371
:104CD00000F094FA204600F011FA38202A46052107
:104CE00000F092F9382000F0C1F90EB070BD00BF9D
:104CF0000038024000080240C0440020000C02407E
:104D0000001002400014024000180240001C024043
:104D1000002002401064024038B5194C194D1A4B5E
:104D20002360072102230422C5E90031C5E90221DD
:104D3000C5E90433AB61E26040232022C4E90423C7
:104D400000214FF4C073C4E906314FF400604FF402
:104D50008053C4E908032046C4E90111A162FFF7AA
:104D600001FF2946204602F08DFF084C003818BF8D
:104D70000120207040F26950FFF7AAFE207838BD6C
:104D800080450020A4440020400100A054000020E1
:104D900008B548B1382000F077F90448044B0360A7
:104DA000BDE8084000F02ABA08BD00BF2045002039
:104DB0001064024038B5074C074B2360204602F0D0
:104DC00081FF064D014618B928702046FFF7E0FF25
:104DD000287838BD80450020400100A05500002003
:104DE0002DE9F843194DDFF870802B68044698F8D8
:104DF00000000F4698476B6854209847C0B21128AE
:104E00004646A9460BD06B6870209847C0B2702305
:104E1000112888F8003005D00320BDE8F88354231A
:104E200088F800300A4B0B4D3078C5F80090BC4232
:104E300034BF01210C211970D9F8083098472B682C
:104E40003078DB6898470020E7E700BF28000020A3
:104E5000CC450020C8450020B44500202DE9F04F86
:104E6000344C354D236885B006461B692878984731
:104E7000A1463070019558B1DFF8C8802F4F06F178
:104E8000020B03AD02A94FF0000A3378534503D853
:104E9000002005B0BDE8F08FD9F8003001985B69BB
:104EA000007800912A469847254B00991B7813F00B
:104EB000080F1FBF0A88288808802A809A0741BFE8
:104EC0000A88C2F5477203320A805B0748BF2B8805
:104ED000D8F8002031F8020B42BFC3F5EF7301335D
:104EE0002B8093B290428CBFC31A1B1A9BB235F829
:104EF000022B00933B689CB29A4288BF141B009B14
:104F000098BFA41AA4B21C44C446052CC8BFC8F854
:104F10000000DCF80030C8BF3A60BE462BF8023B08
:104F2000DEF80030ABF8023008F1040804370AF16B
:104F3000010AAAE7C8450020B4450020C04500206A
:104F4000CC450020B8450020054BD3F8882042F41A
:104F50007002C3F888204FF000629A60704700BF6B
:104F600000ED00E008B50B4B1A6842F400721A60BD
:104F70001A6842F480621A601A6842F480721A60F9
:104F8000032000F02FF80020FDF76CFCFDF7B8F9C6
:104F9000002008BD003C0240034A044B11681B7806
:104FA0000B441360704700BFD0D800205C00002085
:104FB000014B1868704700BFD0D8002038B50446B0
:104FC000FFF7F6FF631C1CBF054B1B78054618BF97
:104FD000E418FFF7EDFF431BA342FAD338BD00BF2F
:104FE0005C0000200749CA6822F4E0620302120450
:104FF00003F4E063120C134343F0BF6343F4003344
:10500000CB60704700ED00E0164B30B5DC68C4F3B0
:105010000224C4F10705231D042D28BF0425062BF7
:105020004FF0FF338CBF033C002403FA05F521EA5F
:105030000501A34022EA0302A140002841EA02033D
:10504000ACBF00F16040084A4FEA0313B8BF00F05C
:105050000F00DBB2AABF00F56140135480F80033A3
:1050600030BD00BF00ED00E014ED00E0002808DBDB
:105070004209012300F01F0003FA00F0014B43F83E
:105080002200704700E100E000280DDB4309012207
:1050900000F01F0002FA00F02033044A42F8230017
:1050A000BFF34F8FBFF36F8F704700BF00E100E089
:1050B00010B5044650B1437903F0FF0213B90271F1
:1050C000FDF73EF901236371002010BD0120FCE7CC
:1050D000036810B5084C0246D9B210391820B1FB4C
:1050E000F0F0205CD06523F47F7020F003005F298E
:1050F00088BF0430906510BD1142020870B50446A7
:10510000FFF756FF0546002C73D0022384F8353094
:105110002268002384F83430136823F001031360FD
:1051200021680B68D8072FD40B68334DA0691D4048
:10513000D4E901231343E2681343226913436269EC
:105140001343E26903431343226A1343626A042A46
:1051500043EA050302BFD4E90B5635432B430B60EA
:105160004B69042A23F0070343EA020333D1A26AFE
:10517000E56A13437DB390B9012A21D032F00202CF
:1051800029D1EA0127D51EE0FFF712FF401B0528B1
:10519000C6D920236365032084F8350070BDB0F5BF
:1051A000005F14D1032A16D801A050F822F000BFE6
:1051B000C751000883510008C7510008C1510008B9
:1051C000B5F1C07F07D1402363650120E4E7022ADF
:1051D000F9D9032AD5D04B612046FFF779FFE26D5C
:1051E0003F239340836000200123606584F83530BD
:1051F000D4E70120D2E700BF3F8010F038B5054664
:1052000020B390F83530022BDCB21DD003681A6849
:1052100022F0010200241A6021221C605C609C6064
:10522000DC601C615A61FFF753FFEA6D3F23934036
:10523000C5E90F44C5E91144C5E9134483606C65B1
:1052400085F8344085F83540204638BD0124FBE719
:1052500070B590F83440866D012C31D0012480F86F
:10526000344090F83540012C4FF000054FF0020417
:1052700024D180F8354004684565256825F48025EB
:10528000256063608368402B0EBFA260A160E2606E
:10529000C26D08BFE1603F239340B360236843F0D1
:1052A00016032360036C1BB1236843F008032360DB
:1052B000236843F001032360002070BD80F8345060
:1052C0000220FAE770B50446866DFFF771FE94F888
:1052D0003530022B054606D080236365002384F811
:1052E0003430012070BD23681A6822F016021A605B
:1052F0005A6922F080025A61226C0AB9A26C1AB172
:105300001A6822F008021A601A6822F001021A6074
:1053100023681B6813F001030AD1E16D3F228A4024
:10532000B260012284F8352084F834301846D9E779
:10533000FFF73EFE401B0528EAD9202363650320C2
:10534000002384F8350084F83430CBE7F7B5002328
:1053500001935C4B856D1F68C36D2E6808229A40CF
:10536000324204460CD001680868400708D5086836
:1053700020F004000860AA60626D42F001026265DC
:1053800001229A40324208D021684969090641BF8A
:10539000AA60626D42F00202626504229A403242C3
:1053A00008D021680968880741BFAA60626D42F091
:1053B0000402626510229A40324210D023681968B4
:1053C00009070CD5AA601A68500337D51B68190362
:1053D00001D4236C00E0A36C0BB120469847E16D2B
:1053E00020228A4032423AD023681868C60636D551
:1053F000AA6094F83520052A1A6827D122F01602EF
:105400001A605A6922F080025A61226C0AB9A26CB1
:105410001AB11A6822F008021A603F238B40AB6071
:10542000012384F83530002384F83430236D002BB9
:1054300045D0204603B0BDE8F04018471A68D205B1
:105440005EBF1A6822F008021A60C2E7500327D52F
:105450001B68190331D4636C0BB120469847636D08
:105460006BB3636DDA0719D522684FF41653B7FB97
:10547000F3F7052384F83530136823F00103136034
:10548000019B0133BB42019302D81368DB07F7D4B9
:10549000012384F83530002384F83430E36CC6E708
:1054A0001A6812F4807208D1196821F0100119608D
:1054B000012384F8353084F83420E36BCCE703B063
:1054C000F0BD00BF5800002010B5044630B390F87E
:1054D000393003F0FF021BB980F83820FCF748FF91
:1054E00022686168022384F83930136823F440335A
:1054F0000B431360536BA16823F007030B43536303
:10550000136CE16823F47F5323F03F030B431364D0
:1055100000200123E06384F8393010BD0120FCE74E
:1055200070477047036870B55E681D68F2070446EF
:1055300014D5E90512D51A6822F480721A60C26B7C
:1055400042F00102C26301229A60042380F83930DC
:10555000002380F83830436903B19847B20616D566
:10556000AB0414D523681A6822F400521A60202272
:105570009A60E36B43F00203E363042384F8393059
:10558000002384F8383063690BB120469847300710
:1055900016D5290514D523681A6822F400621A600A
:1055A00008229A60E36B43F00403E363042384F866
:1055B0003930002384F8383063690BB120469847AE
:1055C00072070BD56B0509D523681A6822F480622F
:1055D0001A6004229A602046FFF7A2FFB00714D594
:1055E000A90512D523681A6822F400721A600222F3
:1055F0009A60E36BE363012384F83930002384F875
:10560000383023690BB120469847F20613D5EB04D6
:1056100011D523681A6822F480521A6010229A6009
:10562000E36BE363012384F83930002384F83830D6
:105630002046FFF776FF70BDF0B590F83830012BAB
:105640004FF002032BD0012280F8393080F8382047
:1056500000EB0113D3E907425D6A184F44EA0242A6
:10566000093C012C9CBF05F07F431A434FEA011609
:10567000036888BF42EA056299B9596A39400A430A
:105680005A62012C82699A6103D8426A22F07F42F1
:105690009A62012380F83930002380F838301846A8
:1056A000F0BDD96939400A43DA618219012C926947
:1056B0001A619CBF25F07F451D62EAE7F0FFFC0000
:1056C0002DE9F04107460D4614461E46FFF770FCD3
:1056D00080463A68536FDB070AD544EA0623069CE6
:1056E00043EA044444EA8514D4660020BDE8F0810E
:1056F000FFF75EFCA0EB0800B0F57A7FE9D9032044
:10570000F4E7037C012B5DD003680022C3F8C420BA
:10571000C3F8C820CA0748BFD3F8C420816142BF7C
:105720006FEA12426FEA0242C3F8C4208A0742BFFE
:10573000D3F8C42042F4F812C3F8C4204A0742BF89
:10574000D3F8C82042F00102C3F8C8200A0742BFBC
:10575000D3F8C82042F00202C3F8C820CA0642BFEC
:10576000D3F8C82042F00C02C3F8C8208A0642BF12
:10577000D3F8C82042F01002C3F8C8204A0642BF3E
:10578000D3F8C82042F02002C3F8C8200A0642BF5E
:10579000D3F8C82042F04002C3F8C820CA0542BF6F
:1057A000D3F8C82042F08002C3F8C8208A0542BF5F
:1057B000D3F8C82042F4F852C3F8C8200023037479
:1057C000184670470220704773B50D4604460028FE
:1057D00000F0A780437C0BB9FCF7ECFD0323637456
:1057E000002300932368D3F8302442F08072C3F87A
:1057F0003024D3F8303403F080730093009BFFF71C
:10580000D7FB06462268D2F80C34D90478D5D2F8F2
:10581000303423F45E3323F4FE73C2F83034D5E918
:105820000003DB0243EA8003A868D2F8301443EA9D
:1058300000430B43C2F8303400230193D2F83034D4
:1058400043F00103C2F83034D2F8303403F00103DE
:105850000193019BFFF7ACFB06462368D3F80C24A9
:10586000D20557D5D3F8A0206168286842F0060217
:10587000C3F8A020D3F8942022F00302C3F89420A8
:10588000D3F894200A4342F00102C3F89420D3F8DD
:10589000A420E16822F00302C3F8A420D3F8A420D6
:1058A0000A43C3F8A4209A68A16822F0FF029A6014
:1058B0009A680A439A606A68012A38BF0122114631
:1058C000194A4A43A96801F003018A404FF4FA518A
:1058D0004143B2FBF1F2D3F8181421F03F01C3F8B1
:1058E0001814D3F8181400200A43C3F81824C3F876
:1058F000C400C3F8C80001236061A061637407E0BD
:10590000FFF756FB801BB0F57A7F7FF67BAF032055
:1059100002B070BDFFF74CFB801BB0F57A7F9CD9BD
:10592000F5E70120F4E700BF00093D007047036878
:10593000D3F80C24D10710B5044608D5D3F80824B1
:10594000D20704D50122C3F81024FBF7AFFC23686B
:10595000D3F80C24910709D5D3F80824920705D56C
:105960000222C3F810242046FBF7D4FCA369002BC5
:105970004ED02168D1F8BC20D1F8C430D1F8C00095
:105980001A40D1F8C83091B2034019B1616941F0B1
:105990000101616112F4F81F1EBF626942F0020248
:1059A0006261D80742BF626942F0040262619907EE
:1059B00042BF626942F00802626113F00C0F1EBF21
:1059C000626942F010026261DA0642BF626942F027
:1059D00020026261980642BF626942F04002626141
:1059E000590642BF626942F0800262611A0642BFF4
:1059F000626942F48072626113F4F85F1EBF6369EA
:105A000043F400736361636913B12046FFF78EFFAF
:105A100010BD037C012B0BD003681A6B22F003022C
:105A20001A631A6B114319630023037418467047F5
:105A30000220704730B5037C012B6AD003680C68E4
:105A40005A6B42F001025A63D3F8002422F001029B
:105A5000C3F80024D3F8002442F00102C3F8002464
:105A6000DA6822F00302DA60DA682243DA605A69FF
:105A700022F007025A61D1E906522A434D695C6956
:105A80002A4322435A611A694D6822F00F021A61B3
:105A90001C692C431C61D3F8004424F00E04C3F8A5
:105AA0000044D3F800248C6842EA4502C3F800247D
:105AB0005A6E120C12045A665A6E22435A66D3F872
:105AC000002422F0F002C3F80024D1E903252A4380
:105AD0004D6AD3F800442A430D6A896A2A43224357
